{
  "contractName": "MintNFT",
  "abi": [
    {
      "inputs": [],
      "stateMutability": "nonpayable",
      "type": "constructor"
    },
    {
      "anonymous": false,
      "inputs": [
        {
          "indexed": true,
          "internalType": "address",
          "name": "owner",
          "type": "address"
        },
        {
          "indexed": true,
          "internalType": "address",
          "name": "approved",
          "type": "address"
        },
        {
          "indexed": true,
          "internalType": "uint256",
          "name": "tokenId",
          "type": "uint256"
        }
      ],
      "name": "Approval",
      "type": "event"
    },
    {
      "anonymous": false,
      "inputs": [
        {
          "indexed": true,
          "internalType": "address",
          "name": "owner",
          "type": "address"
        },
        {
          "indexed": true,
          "internalType": "address",
          "name": "operator",
          "type": "address"
        },
        {
          "indexed": false,
          "internalType": "bool",
          "name": "approved",
          "type": "bool"
        }
      ],
      "name": "ApprovalForAll",
      "type": "event"
    },
    {
      "anonymous": false,
      "inputs": [
        {
          "indexed": true,
          "internalType": "address",
          "name": "from",
          "type": "address"
        },
        {
          "indexed": true,
          "internalType": "address",
          "name": "to",
          "type": "address"
        },
        {
          "indexed": true,
          "internalType": "uint256",
          "name": "tokenId",
          "type": "uint256"
        }
      ],
      "name": "Transfer",
      "type": "event"
    },
    {
      "inputs": [
        {
          "internalType": "address",
          "name": "to",
          "type": "address"
        },
        {
          "internalType": "uint256",
          "name": "tokenId",
          "type": "uint256"
        }
      ],
      "name": "approve",
      "outputs": [],
      "stateMutability": "nonpayable",
      "type": "function"
    },
    {
      "inputs": [
        {
          "internalType": "address",
          "name": "owner",
          "type": "address"
        }
      ],
      "name": "balanceOf",
      "outputs": [
        {
          "internalType": "uint256",
          "name": "",
          "type": "uint256"
        }
      ],
      "stateMutability": "view",
      "type": "function",
      "constant": true
    },
    {
      "inputs": [
        {
          "internalType": "uint256",
          "name": "tokenId",
          "type": "uint256"
        }
      ],
      "name": "getApproved",
      "outputs": [
        {
          "internalType": "address",
          "name": "",
          "type": "address"
        }
      ],
      "stateMutability": "view",
      "type": "function",
      "constant": true
    },
    {
      "inputs": [
        {
          "internalType": "address",
          "name": "owner",
          "type": "address"
        },
        {
          "internalType": "address",
          "name": "operator",
          "type": "address"
        }
      ],
      "name": "isApprovedForAll",
      "outputs": [
        {
          "internalType": "bool",
          "name": "",
          "type": "bool"
        }
      ],
      "stateMutability": "view",
      "type": "function",
      "constant": true
    },
    {
      "inputs": [],
      "name": "name",
      "outputs": [
        {
          "internalType": "string",
          "name": "",
          "type": "string"
        }
      ],
      "stateMutability": "view",
      "type": "function",
      "constant": true
    },
    {
      "inputs": [
        {
          "internalType": "uint256",
          "name": "",
          "type": "uint256"
        }
      ],
      "name": "nftTokenPrices",
      "outputs": [
        {
          "internalType": "uint256",
          "name": "",
          "type": "uint256"
        }
      ],
      "stateMutability": "view",
      "type": "function",
      "constant": true
    },
    {
      "inputs": [
        {
          "internalType": "uint256",
          "name": "",
          "type": "uint256"
        }
      ],
      "name": "onSaleNftTokenArray",
      "outputs": [
        {
          "internalType": "uint256",
          "name": "",
          "type": "uint256"
        }
      ],
      "stateMutability": "view",
      "type": "function",
      "constant": true
    },
    {
      "inputs": [
        {
          "internalType": "uint256",
          "name": "tokenId",
          "type": "uint256"
        }
      ],
      "name": "ownerOf",
      "outputs": [
        {
          "internalType": "address",
          "name": "",
          "type": "address"
        }
      ],
      "stateMutability": "view",
      "type": "function",
      "constant": true
    },
    {
      "inputs": [
        {
          "internalType": "address",
          "name": "from",
          "type": "address"
        },
        {
          "internalType": "address",
          "name": "to",
          "type": "address"
        },
        {
          "internalType": "uint256",
          "name": "tokenId",
          "type": "uint256"
        }
      ],
      "name": "safeTransferFrom",
      "outputs": [],
      "stateMutability": "nonpayable",
      "type": "function"
    },
    {
      "inputs": [
        {
          "internalType": "address",
          "name": "from",
          "type": "address"
        },
        {
          "internalType": "address",
          "name": "to",
          "type": "address"
        },
        {
          "internalType": "uint256",
          "name": "tokenId",
          "type": "uint256"
        },
        {
          "internalType": "bytes",
          "name": "data",
          "type": "bytes"
        }
      ],
      "name": "safeTransferFrom",
      "outputs": [],
      "stateMutability": "nonpayable",
      "type": "function"
    },
    {
      "inputs": [
        {
          "internalType": "bytes4",
          "name": "interfaceId",
          "type": "bytes4"
        }
      ],
      "name": "supportsInterface",
      "outputs": [
        {
          "internalType": "bool",
          "name": "",
          "type": "bool"
        }
      ],
      "stateMutability": "view",
      "type": "function",
      "constant": true
    },
    {
      "inputs": [],
      "name": "symbol",
      "outputs": [
        {
          "internalType": "string",
          "name": "",
          "type": "string"
        }
      ],
      "stateMutability": "view",
      "type": "function",
      "constant": true
    },
    {
      "inputs": [
        {
          "internalType": "uint256",
          "name": "index",
          "type": "uint256"
        }
      ],
      "name": "tokenByIndex",
      "outputs": [
        {
          "internalType": "uint256",
          "name": "",
          "type": "uint256"
        }
      ],
      "stateMutability": "view",
      "type": "function",
      "constant": true
    },
    {
      "inputs": [
        {
          "internalType": "address",
          "name": "owner",
          "type": "address"
        },
        {
          "internalType": "uint256",
          "name": "index",
          "type": "uint256"
        }
      ],
      "name": "tokenOfOwnerByIndex",
      "outputs": [
        {
          "internalType": "uint256",
          "name": "",
          "type": "uint256"
        }
      ],
      "stateMutability": "view",
      "type": "function",
      "constant": true
    },
    {
      "inputs": [
        {
          "internalType": "uint256",
          "name": "",
          "type": "uint256"
        }
      ],
      "name": "tokenURIs",
      "outputs": [
        {
          "internalType": "string",
          "name": "",
          "type": "string"
        }
      ],
      "stateMutability": "view",
      "type": "function",
      "constant": true
    },
    {
      "inputs": [],
      "name": "totalSupply",
      "outputs": [
        {
          "internalType": "uint256",
          "name": "",
          "type": "uint256"
        }
      ],
      "stateMutability": "view",
      "type": "function",
      "constant": true
    },
    {
      "inputs": [
        {
          "internalType": "address",
          "name": "from",
          "type": "address"
        },
        {
          "internalType": "address",
          "name": "to",
          "type": "address"
        },
        {
          "internalType": "uint256",
          "name": "tokenId",
          "type": "uint256"
        }
      ],
      "name": "transferFrom",
      "outputs": [],
      "stateMutability": "nonpayable",
      "type": "function"
    },
    {
      "inputs": [
        {
          "internalType": "uint256",
          "name": "_tokenId",
          "type": "uint256"
        }
      ],
      "name": "tokenURI",
      "outputs": [
        {
          "internalType": "string",
          "name": "",
          "type": "string"
        }
      ],
      "stateMutability": "view",
      "type": "function",
      "constant": true
    },
    {
      "inputs": [
        {
          "internalType": "string",
          "name": "_tokenURI",
          "type": "string"
        },
        {
          "internalType": "uint256",
          "name": "_tokenId",
          "type": "uint256"
        }
      ],
      "name": "mintNFT",
      "outputs": [
        {
          "internalType": "uint256",
          "name": "",
          "type": "uint256"
        }
      ],
      "stateMutability": "nonpayable",
      "type": "function"
    },
    {
      "inputs": [
        {
          "internalType": "address",
          "name": "operator",
          "type": "address"
        },
        {
          "internalType": "bool",
          "name": "approved",
          "type": "bool"
        }
      ],
      "name": "setApprovalForAll",
      "outputs": [],
      "stateMutability": "nonpayable",
      "type": "function"
    },
    {
      "inputs": [
        {
          "internalType": "bool",
          "name": "approved",
          "type": "bool"
        }
      ],
      "name": "setApprovalForAll",
      "outputs": [],
      "stateMutability": "nonpayable",
      "type": "function"
    },
    {
      "inputs": [
        {
          "internalType": "address",
          "name": "_nftTokenOwner",
          "type": "address"
        }
      ],
      "name": "getNftTokens",
      "outputs": [
        {
          "components": [
            {
              "internalType": "uint256",
              "name": "nftTokenId",
              "type": "uint256"
            },
            {
              "internalType": "string",
              "name": "nftTokenURI",
              "type": "string"
            },
            {
              "internalType": "uint256",
              "name": "price",
              "type": "uint256"
            }
          ],
          "internalType": "struct MintNFT.NftTokenData[]",
          "name": "",
          "type": "tuple[]"
        }
      ],
      "stateMutability": "view",
      "type": "function",
      "constant": true
    },
    {
      "inputs": [
        {
          "internalType": "uint256",
          "name": "_tokenId",
          "type": "uint256"
        },
        {
          "internalType": "uint256",
          "name": "_price",
          "type": "uint256"
        }
      ],
      "name": "setSaleNftToken",
      "outputs": [],
      "stateMutability": "nonpayable",
      "type": "function"
    },
    {
      "inputs": [],
      "name": "getSaleNftTokens",
      "outputs": [
        {
          "components": [
            {
              "internalType": "uint256",
              "name": "nftTokenId",
              "type": "uint256"
            },
            {
              "internalType": "string",
              "name": "nftTokenURI",
              "type": "string"
            },
            {
              "internalType": "uint256",
              "name": "price",
              "type": "uint256"
            }
          ],
          "internalType": "struct MintNFT.NftTokenData[]",
          "name": "",
          "type": "tuple[]"
        }
      ],
      "stateMutability": "view",
      "type": "function",
      "constant": true
    },
    {
      "inputs": [],
      "name": "getSaleNftToken",
      "outputs": [
        {
          "internalType": "uint256[]",
          "name": "",
          "type": "uint256[]"
        }
      ],
      "stateMutability": "view",
      "type": "function",
      "constant": true
    },
    {
      "inputs": [
        {
          "internalType": "uint256",
          "name": "_tokenId",
          "type": "uint256"
        }
      ],
      "name": "getNftTokenPrice",
      "outputs": [
        {
          "internalType": "uint256",
          "name": "",
          "type": "uint256"
        }
      ],
      "stateMutability": "view",
      "type": "function",
      "constant": true
    },
    {
      "inputs": [
        {
          "internalType": "uint256",
          "name": "_tokenId",
          "type": "uint256"
        }
      ],
      "name": "buyNftToken",
      "outputs": [],
      "stateMutability": "payable",
      "type": "function",
      "payable": true
    },
    {
      "inputs": [
        {
          "internalType": "uint256",
          "name": "_tokenId",
          "type": "uint256"
        }
      ],
      "name": "burn",
      "outputs": [],
      "stateMutability": "nonpayable",
      "type": "function"
    }
  ],
  "bytecode": "0x60806040523480156200001157600080fd5b506040518060400160405280600381526020017f53444400000000000000000000000000000000000000000000000000000000008152506040518060400160405280600a81526020017f5344445f73796d626f6c0000000000000000000000000000000000000000000081525081600090816200008f919062000324565b508060019081620000a1919062000324565b5050506200040b565b600081519050919050565b7f4e487b7100000000000000000000000000000000000000000000000000000000600052604160045260246000fd5b7f4e487b7100000000000000000000000000000000000000000000000000000000600052602260045260246000fd5b600060028204905060018216806200012c57607f821691505b602082108103620001425762000141620000e4565b5b50919050565b60008190508160005260206000209050919050565b60006020601f8301049050919050565b600082821b905092915050565b600060088302620001ac7fffffffffffffffffffffffffffffffffffffffffffffffffffffffffffffffff826200016d565b620001b886836200016d565b95508019841693508086168417925050509392505050565b6000819050919050565b6000819050919050565b600062000205620001ff620001f984620001d0565b620001da565b620001d0565b9050919050565b6000819050919050565b6200022183620001e4565b6200023962000230826200020c565b8484546200017a565b825550505050565b600090565b6200025062000241565b6200025d81848462000216565b505050565b5b8181101562000285576200027960008262000246565b60018101905062000263565b5050565b601f821115620002d4576200029e8162000148565b620002a9846200015d565b81016020851015620002b9578190505b620002d1620002c8856200015d565b83018262000262565b50505b505050565b600082821c905092915050565b6000620002f960001984600802620002d9565b1980831691505092915050565b6000620003148383620002e6565b9150826002028217905092915050565b6200032f82620000aa565b67ffffffffffffffff8111156200034b576200034a620000b5565b5b62000357825462000113565b6200036482828562000289565b600060209050601f8311600181146200039c576000841562000387578287015190505b62000393858262000306565b86555062000403565b601f198416620003ac8662000148565b60005b82811015620003d657848901518255600182019150602085019450602081019050620003af565b86831015620003f65784890151620003f2601f891682620002e6565b8355505b6001600288020188555050505b505050505050565b613fed806200041b6000396000f3fe6080604052600436106101b75760003560e01c80636c8b703f116100ec578063b88d4fde1161008a578063da8cc6e811610064578063da8cc6e81461068e578063e8b3f7e2146106aa578063e985e9c5146106d3578063f257f54814610710576101b7565b8063b88d4fde146105ff578063b8e297f414610628578063c87b56dd14610651576101b7565b806374a6b54f116100c657806374a6b54f14610543578063912c45cf1461056e57806395d89b41146105ab578063a22cb465146105d6576101b7565b80636c8b703f1461048c57806370a08231146104c957806373e778c514610506576101b7565b80632f745c59116101595780634ae23e64116101335780634ae23e64146103985780634f6ccce7146103d55780635afa3a72146104125780636352211e1461044f576101b7565b80632f745c591461030957806342842e0e1461034657806342966c681461036f576101b7565b8063095ea7b311610195578063095ea7b31461026157806318160ddd1461028a5780631efceb90146102b557806323b872dd146102e0576101b7565b806301ffc9a7146101bc57806306fdde03146101f9578063081812fc14610224575b600080fd5b3480156101c857600080fd5b506101e360048036038101906101de91906127e1565b61074d565b6040516101f09190612829565b60405180910390f35b34801561020557600080fd5b5061020e6107c7565b60405161021b91906128dd565b60405180910390f35b34801561023057600080fd5b5061024b60048036038101906102469190612935565b610859565b60405161025891906129a3565b60405180910390f35b34801561026d57600080fd5b50610288600480360381019061028391906129ea565b61089f565b005b34801561029657600080fd5b5061029f6109b6565b6040516102ac9190612a39565b60405180910390f35b3480156102c157600080fd5b506102ca6109c3565b6040516102d79190612b12565b60405180910390f35b3480156102ec57600080fd5b5061030760048036038101906103029190612b34565b610a1b565b005b34801561031557600080fd5b50610330600480360381019061032b91906129ea565b610a7b565b60405161033d9190612a39565b60405180910390f35b34801561035257600080fd5b5061036d60048036038101906103689190612b34565b610b20565b005b34801561037b57600080fd5b5061039660048036038101906103919190612935565b610b40565b005b3480156103a457600080fd5b506103bf60048036038101906103ba9190612935565b610bd1565b6040516103cc9190612a39565b60405180910390f35b3480156103e157600080fd5b506103fc60048036038101906103f79190612935565b610be9565b6040516104099190612a39565b60405180910390f35b34801561041e57600080fd5b5061043960048036038101906104349190612cbc565b610c5a565b6040516104469190612a39565b60405180910390f35b34801561045b57600080fd5b5061047660048036038101906104719190612935565b610c90565b60405161048391906129a3565b60405180910390f35b34801561049857600080fd5b506104b360048036038101906104ae9190612935565b610d41565b6040516104c091906128dd565b60405180910390f35b3480156104d557600080fd5b506104f060048036038101906104eb9190612d18565b610de1565b6040516104fd9190612a39565b60405180910390f35b34801561051257600080fd5b5061052d60048036038101906105289190612935565b610e98565b60405161053a9190612a39565b60405180910390f35b34801561054f57600080fd5b50610558610ebc565b6040516105659190612ea1565b60405180910390f35b34801561057a57600080fd5b5061059560048036038101906105909190612935565b610fba565b6040516105a29190612a39565b60405180910390f35b3480156105b757600080fd5b506105c0610fd7565b6040516105cd91906128dd565b60405180910390f35b3480156105e257600080fd5b506105fd60048036038101906105f89190612eef565b611069565b005b34801561060b57600080fd5b5061062660048036038101906106219190612fd0565b61107f565b005b34801561063457600080fd5b5061064f600480360381019061064a9190613053565b6110e1565b005b34801561065d57600080fd5b5061067860048036038101906106739190612935565b61124b565b60405161068591906128dd565b60405180910390f35b6106a860048036038101906106a39190612935565b6112f0565b005b3480156106b657600080fd5b506106d160048036038101906106cc9190613093565b611481565b005b3480156106df57600080fd5b506106fa60048036038101906106f591906130c0565b61148f565b6040516107079190612829565b60405180910390f35b34801561071c57600080fd5b5061073760048036038101906107329190612d18565b611523565b6040516107449190612ea1565b60405180910390f35b60007f780e9d63000000000000000000000000000000000000000000000000000000007bffffffffffffffffffffffffffffffffffffffffffffffffffffffff1916827bffffffffffffffffffffffffffffffffffffffffffffffffffffffff191614806107c057506107bf82611617565b5b9050919050565b6060600080546107d69061312f565b80601f01602080910402602001604051908101604052809291908181526020018280546108029061312f565b801561084f5780601f106108245761010080835404028352916020019161084f565b820191906000526020600020905b81548152906001019060200180831161083257829003601f168201915b5050505050905090565b6000610864826116f9565b6004600083815260200190815260200160002060009054906101000a900473ffffffffffffffffffffffffffffffffffffffff169050919050565b60006108aa82610c90565b90508073ffffffffffffffffffffffffffffffffffffffff168373ffffffffffffffffffffffffffffffffffffffff160361091a576040517f08c379a0000000000000000000000000000000000000000000000000000000008152600401610911906131d2565b60405180910390fd5b8073ffffffffffffffffffffffffffffffffffffffff16610939611744565b73ffffffffffffffffffffffffffffffffffffffff161480610968575061096781610962611744565b61148f565b5b6109a7576040517f08c379a000000000000000000000000000000000000000000000000000000000815260040161099e90613264565b60405180910390fd5b6109b1838361174c565b505050565b6000600880549050905090565b6060600c805480602002602001604051908101604052809291908181526020018280548015610a1157602002820191906000526020600020905b8154815260200190600101908083116109fd575b5050505050905090565b610a2c610a26611744565b82611805565b610a6b576040517f08c379a0000000000000000000000000000000000000000000000000000000008152600401610a62906132f6565b60405180910390fd5b610a7683838361189a565b505050565b6000610a8683610de1565b8210610ac7576040517f08c379a0000000000000000000000000000000000000000000000000000000008152600401610abe90613388565b60405180910390fd5b600660008473ffffffffffffffffffffffffffffffffffffffff1673ffffffffffffffffffffffffffffffffffffffff168152602001908152602001600020600083815260200190815260200160002054905092915050565b610b3b8383836040518060200160405280600081525061107f565b505050565b6000610b4b82610c90565b90503373ffffffffffffffffffffffffffffffffffffffff168173ffffffffffffffffffffffffffffffffffffffff1614610bbb576040517f08c379a0000000000000000000000000000000000000000000000000000000008152600401610bb29061341a565b60405180910390fd5b610bc482611b00565b610bcd82611c1d565b5050565b600b6020528060005260406000206000915090505481565b6000610bf36109b6565b8210610c34576040517f08c379a0000000000000000000000000000000000000000000000000000000008152600401610c2b906134ac565b60405180910390fd5b60088281548110610c4857610c476134cc565b5b90600052602060002001549050919050565b600082600a60008481526020019081526020016000209081610c7c91906136a7565b50610c873383611d11565b81905092915050565b6000806002600084815260200190815260200160002060009054906101000a900473ffffffffffffffffffffffffffffffffffffffff169050600073ffffffffffffffffffffffffffffffffffffffff168173ffffffffffffffffffffffffffffffffffffffff1603610d38576040517f08c379a0000000000000000000000000000000000000000000000000000000008152600401610d2f906137c5565b60405180910390fd5b80915050919050565b600a6020528060005260406000206000915090508054610d609061312f565b80601f0160208091040260200160405190810160405280929190818152602001828054610d8c9061312f565b8015610dd95780601f10610dae57610100808354040283529160200191610dd9565b820191906000526020600020905b815481529060010190602001808311610dbc57829003601f168201915b505050505081565b60008073ffffffffffffffffffffffffffffffffffffffff168273ffffffffffffffffffffffffffffffffffffffff1603610e51576040517f08c379a0000000000000000000000000000000000000000000000000000000008152600401610e4890613857565b60405180910390fd5b600360008373ffffffffffffffffffffffffffffffffffffffff1673ffffffffffffffffffffffffffffffffffffffff168152602001908152602001600020549050919050565b600c8181548110610ea857600080fd5b906000526020600020016000915090505481565b60606000610ec86109c3565b90506000815167ffffffffffffffff811115610ee757610ee6612b91565b5b604051908082528060200260200182016040528015610f2057816020015b610f0d612754565b815260200190600190039081610f055790505b50905060005b8251811015610fb1576000838281518110610f4457610f436134cc565b5b602002602001015190506000610f5982610fba565b90506040518060600160405280838152602001610f758461124b565b815260200182815250848481518110610f9157610f906134cc565b5b602002602001018190525050508080610fa9906138a6565b915050610f26565b50809250505090565b6000600b6000838152602001908152602001600020549050919050565b606060018054610fe69061312f565b80601f01602080910402602001604051908101604052809291908181526020018280546110129061312f565b801561105f5780601f106110345761010080835404028352916020019161105f565b820191906000526020600020905b81548152906001019060200180831161104257829003601f168201915b5050505050905090565b61107b611074611744565b8383611eea565b5050565b61109061108a611744565b83611805565b6110cf576040517f08c379a00000000000000000000000000000000000000000000000000000000081526004016110c6906132f6565b60405180910390fd5b6110db84848484612056565b50505050565b60006110ec83610c90565b90506110f86001611481565b3373ffffffffffffffffffffffffffffffffffffffff168173ffffffffffffffffffffffffffffffffffffffff1614611166576040517f08c379a000000000000000000000000000000000000000000000000000000000815260040161115d9061393a565b60405180910390fd5b6000600b600085815260200190815260200160002054146111bc576040517f08c379a00000000000000000000000000000000000000000000000000000000081526004016111b3906139cc565b60405180910390fd5b6111c6813061148f565b611205576040517f08c379a00000000000000000000000000000000000000000000000000000000081526004016111fc90613a5e565b60405180910390fd5b81600b600085815260200190815260200160002081905550600c839080600181540180825580915050600190039060005260206000200160009091909190915055505050565b6060600a6000838152602001908152602001600020805461126b9061312f565b80601f01602080910402602001604051908101604052809291908181526020018280546112979061312f565b80156112e45780601f106112b9576101008083540402835291602001916112e4565b820191906000526020600020905b8154815290600101906020018083116112c757829003601f168201915b50505050509050919050565b60006112fb82610c90565b90506113076001611481565b3373ffffffffffffffffffffffffffffffffffffffff168173ffffffffffffffffffffffffffffffffffffffff1603611375576040517f08c379a000000000000000000000000000000000000000000000000000000000815260040161136c90613aca565b60405180910390fd5b61137f813061148f565b6113be576040517f08c379a00000000000000000000000000000000000000000000000000000000081526004016113b590613a5e565b60405180910390fd5b8073ffffffffffffffffffffffffffffffffffffffff166108fc349081150290604051600060405180830381858888f19350505050158015611404573d6000803e3d6000fd5b503073ffffffffffffffffffffffffffffffffffffffff166342842e0e8233856040518463ffffffff1660e01b815260040161144293929190613aea565b600060405180830381600087803b15801561145c57600080fd5b505af1158015611470573d6000803e3d6000fd5b5050505061147d82611c1d565b5050565b61148c333083611eea565b50565b6000600560008473ffffffffffffffffffffffffffffffffffffffff1673ffffffffffffffffffffffffffffffffffffffff16815260200190815260200160002060008373ffffffffffffffffffffffffffffffffffffffff1673ffffffffffffffffffffffffffffffffffffffff16815260200190815260200160002060009054906101000a900460ff16905092915050565b6060600061153083610de1565b905060008167ffffffffffffffff81111561154e5761154d612b91565b5b60405190808252806020026020018201604052801561158757816020015b611574612754565b81526020019060019003908161156c5790505b50905060005b8281101561160c5760006115a18683610a7b565b905060006115ae8261124b565b905060006115bb83610fba565b90506040518060600160405280848152602001838152602001828152508585815181106115eb576115ea6134cc565b5b60200260200101819052505050508080611604906138a6565b91505061158d565b508092505050919050565b60007f80ac58cd000000000000000000000000000000000000000000000000000000007bffffffffffffffffffffffffffffffffffffffffffffffffffffffff1916827bffffffffffffffffffffffffffffffffffffffffffffffffffffffff191614806116e257507f5b5e139f000000000000000000000000000000000000000000000000000000007bffffffffffffffffffffffffffffffffffffffffffffffffffffffff1916827bffffffffffffffffffffffffffffffffffffffffffffffffffffffff1916145b806116f257506116f1826120b2565b5b9050919050565b6117028161211c565b611741576040517f08c379a0000000000000000000000000000000000000000000000000000000008152600401611738906137c5565b60405180910390fd5b50565b600033905090565b816004600083815260200190815260200160002060006101000a81548173ffffffffffffffffffffffffffffffffffffffff021916908373ffffffffffffffffffffffffffffffffffffffff160217905550808273ffffffffffffffffffffffffffffffffffffffff166117bf83610c90565b73ffffffffffffffffffffffffffffffffffffffff167f8c5be1e5ebec7d5bd14f71427d1e84f3dd0314c0f7b2291e5b200ac8c7c3b92560405160405180910390a45050565b60008061181183610c90565b90508073ffffffffffffffffffffffffffffffffffffffff168473ffffffffffffffffffffffffffffffffffffffff1614806118535750611852818561148f565b5b8061189157508373ffffffffffffffffffffffffffffffffffffffff1661187984610859565b73ffffffffffffffffffffffffffffffffffffffff16145b91505092915050565b8273ffffffffffffffffffffffffffffffffffffffff166118ba82610c90565b73ffffffffffffffffffffffffffffffffffffffff1614611910576040517f08c379a000000000000000000000000000000000000000000000000000000000815260040161190790613b93565b60405180910390fd5b600073ffffffffffffffffffffffffffffffffffffffff168273ffffffffffffffffffffffffffffffffffffffff160361197f576040517f08c379a000000000000000000000000000000000000000000000000000000000815260040161197690613c25565b60405180910390fd5b61198a838383612188565b61199560008261174c565b6001600360008573ffffffffffffffffffffffffffffffffffffffff1673ffffffffffffffffffffffffffffffffffffffff16815260200190815260200160002060008282546119e59190613c45565b925050819055506001600360008473ffffffffffffffffffffffffffffffffffffffff1673ffffffffffffffffffffffffffffffffffffffff1681526020019081526020016000206000828254611a3c9190613c79565b92505081905550816002600083815260200190815260200160002060006101000a81548173ffffffffffffffffffffffffffffffffffffffff021916908373ffffffffffffffffffffffffffffffffffffffff160217905550808273ffffffffffffffffffffffffffffffffffffffff168473ffffffffffffffffffffffffffffffffffffffff167fddf252ad1be2c89b69c2b068fc378daa952ba7f163c4a11628f55a4df523b3ef60405160405180910390a4611afb83838361229a565b505050565b6000611b0b82610c90565b9050611b1981600084612188565b611b2460008361174c565b6001600360008373ffffffffffffffffffffffffffffffffffffffff1673ffffffffffffffffffffffffffffffffffffffff1681526020019081526020016000206000828254611b749190613c45565b925050819055506002600083815260200190815260200160002060006101000a81549073ffffffffffffffffffffffffffffffffffffffff021916905581600073ffffffffffffffffffffffffffffffffffffffff168273ffffffffffffffffffffffffffffffffffffffff167fddf252ad1be2c89b69c2b068fc378daa952ba7f163c4a11628f55a4df523b3ef60405160405180910390a4611c198160008461229a565b5050565b6000600b60008381526020019081526020016000208190555060005b600c80549050811015611d0d576000600b6000600c8481548110611c6057611c5f6134cc565b5b906000526020600020015481526020019081526020016000205403611cfa57600c6001600c80549050611c939190613c45565b81548110611ca457611ca36134cc565b5b9060005260206000200154600c8281548110611cc357611cc26134cc565b5b9060005260206000200181905550600c805480611ce357611ce2613ccf565b5b600190038181906000526020600020016000905590555b8080611d05906138a6565b915050611c39565b5050565b600073ffffffffffffffffffffffffffffffffffffffff168273ffffffffffffffffffffffffffffffffffffffff1603611d80576040517f08c379a0000000000000000000000000000000000000000000000000000000008152600401611d7790613d4a565b60405180910390fd5b611d898161211c565b15611dc9576040517f08c379a0000000000000000000000000000000000000000000000000000000008152600401611dc090613db6565b60405180910390fd5b611dd560008383612188565b6001600360008473ffffffffffffffffffffffffffffffffffffffff1673ffffffffffffffffffffffffffffffffffffffff1681526020019081526020016000206000828254611e259190613c79565b92505081905550816002600083815260200190815260200160002060006101000a81548173ffffffffffffffffffffffffffffffffffffffff021916908373ffffffffffffffffffffffffffffffffffffffff160217905550808273ffffffffffffffffffffffffffffffffffffffff16600073ffffffffffffffffffffffffffffffffffffffff167fddf252ad1be2c89b69c2b068fc378daa952ba7f163c4a11628f55a4df523b3ef60405160405180910390a4611ee66000838361229a565b5050565b8173ffffffffffffffffffffffffffffffffffffffff168373ffffffffffffffffffffffffffffffffffffffff1603611f58576040517f08c379a0000000000000000000000000000000000000000000000000000000008152600401611f4f90613e22565b60405180910390fd5b80600560008573ffffffffffffffffffffffffffffffffffffffff1673ffffffffffffffffffffffffffffffffffffffff16815260200190815260200160002060008473ffffffffffffffffffffffffffffffffffffffff1673ffffffffffffffffffffffffffffffffffffffff16815260200190815260200160002060006101000a81548160ff0219169083151502179055508173ffffffffffffffffffffffffffffffffffffffff168373ffffffffffffffffffffffffffffffffffffffff167f17307eab39ab6107e8899845ad3d59bd9653f200f220920489ca2b5937696c31836040516120499190612829565b60405180910390a3505050565b61206184848461189a565b61206d8484848461229f565b6120ac576040517f08c379a00000000000000000000000000000000000000000000000000000000081526004016120a390613eb4565b60405180910390fd5b50505050565b60007f01ffc9a7000000000000000000000000000000000000000000000000000000007bffffffffffffffffffffffffffffffffffffffffffffffffffffffff1916827bffffffffffffffffffffffffffffffffffffffffffffffffffffffff1916149050919050565b60008073ffffffffffffffffffffffffffffffffffffffff166002600084815260200190815260200160002060009054906101000a900473ffffffffffffffffffffffffffffffffffffffff1673ffffffffffffffffffffffffffffffffffffffff1614159050919050565b612193838383612426565b600073ffffffffffffffffffffffffffffffffffffffff168373ffffffffffffffffffffffffffffffffffffffff16036121d5576121d08161242b565b612214565b8173ffffffffffffffffffffffffffffffffffffffff168373ffffffffffffffffffffffffffffffffffffffff1614612213576122128382612474565b5b5b600073ffffffffffffffffffffffffffffffffffffffff168273ffffffffffffffffffffffffffffffffffffffff160361225657612251816125e1565b612295565b8273ffffffffffffffffffffffffffffffffffffffff168273ffffffffffffffffffffffffffffffffffffffff16146122945761229382826126b2565b5b5b505050565b505050565b60006122c08473ffffffffffffffffffffffffffffffffffffffff16612731565b15612419578373ffffffffffffffffffffffffffffffffffffffff1663150b7a026122e9611744565b8786866040518563ffffffff1660e01b815260040161230b9493929190613f29565b6020604051808303816000875af192505050801561234757506040513d601f19601f820116820180604052508101906123449190613f8a565b60015b6123c9573d8060008114612377576040519150601f19603f3d011682016040523d82523d6000602084013e61237c565b606091505b5060008151036123c1576040517f08c379a00000000000000000000000000000000000000000000000000000000081526004016123b890613eb4565b60405180910390fd5b805181602001fd5b63150b7a0260e01b7bffffffffffffffffffffffffffffffffffffffffffffffffffffffff1916817bffffffffffffffffffffffffffffffffffffffffffffffffffffffff19161491505061241e565b600190505b949350505050565b505050565b6008805490506009600083815260200190815260200160002081905550600881908060018154018082558091505060019003906000526020600020016000909190919091505550565b6000600161248184610de1565b61248b9190613c45565b9050600060076000848152602001908152602001600020549050818114612570576000600660008673ffffffffffffffffffffffffffffffffffffffff1673ffffffffffffffffffffffffffffffffffffffff168152602001908152602001600020600084815260200190815260200160002054905080600660008773ffffffffffffffffffffffffffffffffffffffff1673ffffffffffffffffffffffffffffffffffffffff168152602001908152602001600020600084815260200190815260200160002081905550816007600083815260200190815260200160002081905550505b6007600084815260200190815260200160002060009055600660008573ffffffffffffffffffffffffffffffffffffffff1673ffffffffffffffffffffffffffffffffffffffff16815260200190815260200160002060008381526020019081526020016000206000905550505050565b600060016008805490506125f59190613c45565b9050600060096000848152602001908152602001600020549050600060088381548110612625576126246134cc565b5b906000526020600020015490508060088381548110612647576126466134cc565b5b90600052602060002001819055508160096000838152602001908152602001600020819055506009600085815260200190815260200160002060009055600880548061269657612695613ccf565b5b6001900381819060005260206000200160009055905550505050565b60006126bd83610de1565b905081600660008573ffffffffffffffffffffffffffffffffffffffff1673ffffffffffffffffffffffffffffffffffffffff168152602001908152602001600020600083815260200190815260200160002081905550806007600084815260200190815260200160002081905550505050565b6000808273ffffffffffffffffffffffffffffffffffffffff163b119050919050565b60405180606001604052806000815260200160608152602001600081525090565b6000604051905090565b600080fd5b600080fd5b60007fffffffff0000000000000000000000000000000000000000000000000000000082169050919050565b6127be81612789565b81146127c957600080fd5b50565b6000813590506127db816127b5565b92915050565b6000602082840312156127f7576127f661277f565b5b6000612805848285016127cc565b91505092915050565b60008115159050919050565b6128238161280e565b82525050565b600060208201905061283e600083018461281a565b92915050565b600081519050919050565b600082825260208201905092915050565b60005b8381101561287e578082015181840152602081019050612863565b8381111561288d576000848401525b50505050565b6000601f19601f8301169050919050565b60006128af82612844565b6128b9818561284f565b93506128c9818560208601612860565b6128d281612893565b840191505092915050565b600060208201905081810360008301526128f781846128a4565b905092915050565b6000819050919050565b612912816128ff565b811461291d57600080fd5b50565b60008135905061292f81612909565b92915050565b60006020828403121561294b5761294a61277f565b5b600061295984828501612920565b91505092915050565b600073ffffffffffffffffffffffffffffffffffffffff82169050919050565b600061298d82612962565b9050919050565b61299d81612982565b82525050565b60006020820190506129b86000830184612994565b92915050565b6129c781612982565b81146129d257600080fd5b50565b6000813590506129e4816129be565b92915050565b60008060408385031215612a0157612a0061277f565b5b6000612a0f858286016129d5565b9250506020612a2085828601612920565b9150509250929050565b612a33816128ff565b82525050565b6000602082019050612a4e6000830184612a2a565b92915050565b600081519050919050565b600082825260208201905092915050565b6000819050602082019050919050565b612a89816128ff565b82525050565b6000612a9b8383612a80565b60208301905092915050565b6000602082019050919050565b6000612abf82612a54565b612ac98185612a5f565b9350612ad483612a70565b8060005b83811015612b05578151612aec8882612a8f565b9750612af783612aa7565b925050600181019050612ad8565b5085935050505092915050565b60006020820190508181036000830152612b2c8184612ab4565b905092915050565b600080600060608486031215612b4d57612b4c61277f565b5b6000612b5b868287016129d5565b9350506020612b6c868287016129d5565b9250506040612b7d86828701612920565b9150509250925092565b600080fd5b600080fd5b7f4e487b7100000000000000000000000000000000000000000000000000000000600052604160045260246000fd5b612bc982612893565b810181811067ffffffffffffffff82111715612be857612be7612b91565b5b80604052505050565b6000612bfb612775565b9050612c078282612bc0565b919050565b600067ffffffffffffffff821115612c2757612c26612b91565b5b612c3082612893565b9050602081019050919050565b82818337600083830152505050565b6000612c5f612c5a84612c0c565b612bf1565b905082815260208101848484011115612c7b57612c7a612b8c565b5b612c86848285612c3d565b509392505050565b600082601f830112612ca357612ca2612b87565b5b8135612cb3848260208601612c4c565b91505092915050565b60008060408385031215612cd357612cd261277f565b5b600083013567ffffffffffffffff811115612cf157612cf0612784565b5b612cfd85828601612c8e565b9250506020612d0e85828601612920565b9150509250929050565b600060208284031215612d2e57612d2d61277f565b5b6000612d3c848285016129d5565b91505092915050565b600081519050919050565b600082825260208201905092915050565b6000819050602082019050919050565b600082825260208201905092915050565b6000612d8d82612844565b612d978185612d71565b9350612da7818560208601612860565b612db081612893565b840191505092915050565b6000606083016000830151612dd36000860182612a80565b5060208301518482036020860152612deb8282612d82565b9150506040830151612e006040860182612a80565b508091505092915050565b6000612e178383612dbb565b905092915050565b6000602082019050919050565b6000612e3782612d45565b612e418185612d50565b935083602082028501612e5385612d61565b8060005b85811015612e8f5784840389528151612e708582612e0b565b9450612e7b83612e1f565b925060208a01995050600181019050612e57565b50829750879550505050505092915050565b60006020820190508181036000830152612ebb8184612e2c565b905092915050565b612ecc8161280e565b8114612ed757600080fd5b50565b600081359050612ee981612ec3565b92915050565b60008060408385031215612f0657612f0561277f565b5b6000612f14858286016129d5565b9250506020612f2585828601612eda565b9150509250929050565b600067ffffffffffffffff821115612f4a57612f49612b91565b5b612f5382612893565b9050602081019050919050565b6000612f73612f6e84612f2f565b612bf1565b905082815260208101848484011115612f8f57612f8e612b8c565b5b612f9a848285612c3d565b509392505050565b600082601f830112612fb757612fb6612b87565b5b8135612fc7848260208601612f60565b91505092915050565b60008060008060808587031215612fea57612fe961277f565b5b6000612ff8878288016129d5565b9450506020613009878288016129d5565b935050604061301a87828801612920565b925050606085013567ffffffffffffffff81111561303b5761303a612784565b5b61304787828801612fa2565b91505092959194509250565b6000806040838503121561306a5761306961277f565b5b600061307885828601612920565b925050602061308985828601612920565b9150509250929050565b6000602082840312156130a9576130a861277f565b5b60006130b784828501612eda565b91505092915050565b600080604083850312156130d7576130d661277f565b5b60006130e5858286016129d5565b92505060206130f6858286016129d5565b9150509250929050565b7f4e487b7100000000000000000000000000000000000000000000000000000000600052602260045260246000fd5b6000600282049050600182168061314757607f821691505b60208210810361315a57613159613100565b5b50919050565b7f4552433732313a20617070726f76616c20746f2063757272656e74206f776e6560008201527f7200000000000000000000000000000000000000000000000000000000000000602082015250565b60006131bc60218361284f565b91506131c782613160565b604082019050919050565b600060208201905081810360008301526131eb816131af565b9050919050565b7f4552433732313a20617070726f76652063616c6c6572206973206e6f7420746f60008201527f6b656e206f776e6572206e6f7220617070726f76656420666f7220616c6c0000602082015250565b600061324e603e8361284f565b9150613259826131f2565b604082019050919050565b6000602082019050818103600083015261327d81613241565b9050919050565b7f4552433732313a2063616c6c6572206973206e6f7420746f6b656e206f776e6560008201527f72206e6f7220617070726f766564000000000000000000000000000000000000602082015250565b60006132e0602e8361284f565b91506132eb82613284565b604082019050919050565b6000602082019050818103600083015261330f816132d3565b9050919050565b7f455243373231456e756d657261626c653a206f776e657220696e646578206f7560008201527f74206f6620626f756e6473000000000000000000000000000000000000000000602082015250565b6000613372602b8361284f565b915061337d82613316565b604082019050919050565b600060208201905081810360008301526133a181613365565b9050919050565b7f6d73672e73656e646572206973206e6f7420746865206f776e6572206f66207460008201527f686520746f6b656e000000000000000000000000000000000000000000000000602082015250565b600061340460288361284f565b915061340f826133a8565b604082019050919050565b60006020820190508181036000830152613433816133f7565b9050919050565b7f455243373231456e756d657261626c653a20676c6f62616c20696e646578206f60008201527f7574206f6620626f756e64730000000000000000000000000000000000000000602082015250565b6000613496602c8361284f565b91506134a18261343a565b604082019050919050565b600060208201905081810360008301526134c581613489565b9050919050565b7f4e487b7100000000000000000000000000000000000000000000000000000000600052603260045260246000fd5b60008190508160005260206000209050919050565b60006020601f8301049050919050565b600082821b905092915050565b60006008830261355d7fffffffffffffffffffffffffffffffffffffffffffffffffffffffffffffffff82613520565b6135678683613520565b95508019841693508086168417925050509392505050565b6000819050919050565b60006135a461359f61359a846128ff565b61357f565b6128ff565b9050919050565b6000819050919050565b6135be83613589565b6135d26135ca826135ab565b84845461352d565b825550505050565b600090565b6135e76135da565b6135f28184846135b5565b505050565b5b818110156136165761360b6000826135df565b6001810190506135f8565b5050565b601f82111561365b5761362c816134fb565b61363584613510565b81016020851015613644578190505b61365861365085613510565b8301826135f7565b50505b505050565b600082821c905092915050565b600061367e60001984600802613660565b1980831691505092915050565b6000613697838361366d565b9150826002028217905092915050565b6136b082612844565b67ffffffffffffffff8111156136c9576136c8612b91565b5b6136d3825461312f565b6136de82828561361a565b600060209050601f83116001811461371157600084156136ff578287015190505b613709858261368b565b865550613771565b601f19841661371f866134fb565b60005b8281101561374757848901518255600182019150602085019450602081019050613722565b868310156137645784890151613760601f89168261366d565b8355505b6001600288020188555050505b505050505050565b7f4552433732313a20696e76616c696420746f6b656e2049440000000000000000600082015250565b60006137af60188361284f565b91506137ba82613779565b602082019050919050565b600060208201905081810360008301526137de816137a2565b9050919050565b7f4552433732313a2061646472657373207a65726f206973206e6f74206120766160008201527f6c6964206f776e65720000000000000000000000000000000000000000000000602082015250565b600061384160298361284f565b915061384c826137e5565b604082019050919050565b6000602082019050818103600083015261387081613834565b9050919050565b7f4e487b7100000000000000000000000000000000000000000000000000000000600052601160045260246000fd5b60006138b1826128ff565b91507fffffffffffffffffffffffffffffffffffffffffffffffffffffffffffffffff82036138e3576138e2613877565b5b600182019050919050565b7f43616c6c6572206973206e6f74206e667420746f6b656e206f776e65722e0000600082015250565b6000613924601e8361284f565b915061392f826138ee565b602082019050919050565b6000602082019050818103600083015261395381613917565b9050919050565b7f54686973206e667420746f6b656e20697320616c7265616479206f6e2073616c60008201527f652e000000000000000000000000000000000000000000000000000000000000602082015250565b60006139b660228361284f565b91506139c18261395a565b604082019050919050565b600060208201905081810360008301526139e5816139a9565b9050919050565b7f6e667420746f6b656e206f776e657220646964206e6f7420617070726f76652060008201527f746f6b656e2e0000000000000000000000000000000000000000000000000000602082015250565b6000613a4860268361284f565b9150613a53826139ec565b604082019050919050565b60006020820190508181036000830152613a7781613a3b565b9050919050565b7f63616c6c6572206973206e667420746f6b656e206f776e65722e000000000000600082015250565b6000613ab4601a8361284f565b9150613abf82613a7e565b602082019050919050565b60006020820190508181036000830152613ae381613aa7565b9050919050565b6000606082019050613aff6000830186612994565b613b0c6020830185612994565b613b196040830184612a2a565b949350505050565b7f4552433732313a207472616e736665722066726f6d20696e636f72726563742060008201527f6f776e6572000000000000000000000000000000000000000000000000000000602082015250565b6000613b7d60258361284f565b9150613b8882613b21565b604082019050919050565b60006020820190508181036000830152613bac81613b70565b9050919050565b7f4552433732313a207472616e7366657220746f20746865207a65726f2061646460008201527f7265737300000000000000000000000000000000000000000000000000000000602082015250565b6000613c0f60248361284f565b9150613c1a82613bb3565b604082019050919050565b60006020820190508181036000830152613c3e81613c02565b9050919050565b6000613c50826128ff565b9150613c5b836128ff565b925082821015613c6e57613c6d613877565b5b828203905092915050565b6000613c84826128ff565b9150613c8f836128ff565b9250827fffffffffffffffffffffffffffffffffffffffffffffffffffffffffffffffff03821115613cc457613cc3613877565b5b828201905092915050565b7f4e487b7100000000000000000000000000000000000000000000000000000000600052603160045260246000fd5b7f4552433732313a206d696e7420746f20746865207a65726f2061646472657373600082015250565b6000613d3460208361284f565b9150613d3f82613cfe565b602082019050919050565b60006020820190508181036000830152613d6381613d27565b9050919050565b7f4552433732313a20746f6b656e20616c7265616479206d696e74656400000000600082015250565b6000613da0601c8361284f565b9150613dab82613d6a565b602082019050919050565b60006020820190508181036000830152613dcf81613d93565b9050919050565b7f4552433732313a20617070726f766520746f2063616c6c657200000000000000600082015250565b6000613e0c60198361284f565b9150613e1782613dd6565b602082019050919050565b60006020820190508181036000830152613e3b81613dff565b9050919050565b7f4552433732313a207472616e7366657220746f206e6f6e20455243373231526560008201527f63656976657220696d706c656d656e7465720000000000000000000000000000602082015250565b6000613e9e60328361284f565b9150613ea982613e42565b604082019050919050565b60006020820190508181036000830152613ecd81613e91565b9050919050565b600081519050919050565b600082825260208201905092915050565b6000613efb82613ed4565b613f058185613edf565b9350613f15818560208601612860565b613f1e81612893565b840191505092915050565b6000608082019050613f3e6000830187612994565b613f4b6020830186612994565b613f586040830185612a2a565b8181036060830152613f6a8184613ef0565b905095945050505050565b600081519050613f84816127b5565b92915050565b600060208284031215613fa057613f9f61277f565b5b6000613fae84828501613f75565b9150509291505056fea2646970667358221220949c6968d29de33fb67c264d164413b2a619abb963076c7683f60681c98cdee664736f6c634300080f0033",
  "immutableReferences": {},
  "source": "// SPDX-License-Identifier: MIT\npragma solidity ^0.8.0;\n\nimport \"@openzeppelin/contracts/token/ERC721/extensions/ERC721Enumerable.sol\";\n// openzeppelin/contracts     ERC721\n\ncontract MintNFT is  ERC721Enumerable {\n\n    // constructor(string memory _name, string memory _symbol) ERC721(_name, _symbol) {}\n    constructor() ERC721(\"SDD\", \"SDD_symbol\") {}\n    // symbol =   ethereum\n    // name = \n\n    mapping(uint =>string ) public tokenURIs ;\n\n\n    function tokenURI(uint _tokenId) override public view returns (string memory) {\n        return  tokenURIs[_tokenId] ;\n    }\n\n    function mintNFT( string memory _tokenURI, uint256 _tokenId) public  returns (uint256) {\n\n        // 1 tokenIds  .\n        tokenURIs[_tokenId] = _tokenURI;\n\n        _mint(msg.sender, _tokenId);\n        // msg.sender  \n        return _tokenId;\n    }\n\n\n    struct NftTokenData {\n        uint256 nftTokenId;\n        string  nftTokenURI ;\n        uint price ;        \n    }\n    //    \n\n    function setApprovalForAll(bool approved) public virtual {\n        _setApprovalForAll(msg.sender, address(this), approved);\n    }\n    //   \n\n\n// My NFT\n    function getNftTokens(address _nftTokenOwner) view public returns (NftTokenData[] memory) {\n        uint256 balanceLength = balanceOf(_nftTokenOwner);\n        //balanceOf    \n        //require(balanceLength != 0, \"Owner did not have token.\");\n\n        NftTokenData[] memory nftTokenData = new NftTokenData[](balanceLength);\n\n        for(uint256 i = 0; i < balanceLength; i++) {\n            uint256 nftTokenId = tokenOfOwnerByIndex(_nftTokenOwner, i);\n            string memory nftTokenURI = tokenURI(nftTokenId);   \n            uint tokenPrice = getNftTokenPrice(nftTokenId);\n            nftTokenData[i] = NftTokenData(nftTokenId , nftTokenURI, tokenPrice );\n        }\n\n        return nftTokenData;\n\n    }\n\n    // \n    mapping(uint256 => uint256) public nftTokenPrices;\n    uint256[] public onSaleNftTokenArray;\n\n    function setSaleNftToken(uint256 _tokenId, uint256 _price) public {\n        address nftTokenOwner = ownerOf(_tokenId);\n        setApprovalForAll(true);\n\n        require(nftTokenOwner == msg.sender, \"Caller is not nft token owner.\");\n        require(nftTokenPrices[_tokenId] == 0, \"This nft token is already on sale.\");\n        require(isApprovedForAll(nftTokenOwner, address(this)), \"nft token owner did not approve token.\");\n\n        nftTokenPrices[_tokenId] = _price;\n        onSaleNftTokenArray.push(_tokenId); // nft list\n\n    }\n\n    // \n    function getSaleNftTokens() public view returns (NftTokenData[] memory ){\n        uint[] memory onSaleNftToken = getSaleNftToken();\n        NftTokenData[] memory onSaleNftTokens = new NftTokenData[](onSaleNftToken.length);\n\n        for(uint i = 0; i < onSaleNftToken.length; i ++){\n            uint tokenId = onSaleNftToken[i];\n            uint tokenPrice = getNftTokenPrice(tokenId);\n            onSaleNftTokens[i] = NftTokenData(tokenId, tokenURI(tokenId), tokenPrice) ;\n        }\n\n        return onSaleNftTokens;\n    }\n\n\n    function getSaleNftToken() view public returns (uint[] memory ){\n        return onSaleNftTokenArray ;\n    }\n\n\n    function getNftTokenPrice(uint256 _tokenId) view public returns(uint256){\n        return nftTokenPrices[_tokenId];\n    }\n\n\n    //\n    function buyNftToken(uint256 _tokenId) public payable {\n        address nftTokenOwner = ownerOf(_tokenId);\n        setApprovalForAll(true);\n\n        require(nftTokenOwner != msg.sender,\"caller is nft token owner.\");\n        require(isApprovedForAll(nftTokenOwner, address(this)), \"nft token owner did not approve token.\");\n\n\n        payable(nftTokenOwner).transfer(msg.value);\n\n        IERC721(address(this)).safeTransferFrom(nftTokenOwner, msg.sender, _tokenId);\n\n\n        //  \n        removeToken(_tokenId);        \n\n    }\n\n    function burn( uint256 _tokenId) public{\n        address addr_owner = ownerOf(_tokenId);\n        require( addr_owner == msg.sender, \"msg.sender is not the owner of the token\");\n        _burn(_tokenId);\n        removeToken(_tokenId);\n    }\n\n    function removeToken(uint256 _tokenId) private {\n                \n        nftTokenPrices[_tokenId] = 0;\n\n        for(uint256 i = 0; i<onSaleNftTokenArray.length; i ++){\n            if(nftTokenPrices[onSaleNftTokenArray[i]] ==0){\n                onSaleNftTokenArray[i] = onSaleNftTokenArray[onSaleNftTokenArray.length -1] ;\n                onSaleNftTokenArray.pop();\n            }\n        }\n    } \n}\n\n",
  "sourcePath": "/Users/ieunchong/Desktop/SDD_SmartContract/contracts/MintNFT.sol",
  "compiler": {
    "name": "solc",
    "version": "0.8.15+commit.e14f2714.Emscripten.clang"
  },
  "schemaVersion": "3.4.8",
  "updatedAt": "2022-08-02T14:07:44.230Z",
  "networkType": "ethereum",
  "devdoc": {
    "kind": "dev",
    "methods": {
      "approve(address,uint256)": {
        "details": "See {IERC721-approve}."
      },
      "balanceOf(address)": {
        "details": "See {IERC721-balanceOf}."
      },
      "getApproved(uint256)": {
        "details": "See {IERC721-getApproved}."
      },
      "isApprovedForAll(address,address)": {
        "details": "See {IERC721-isApprovedForAll}."
      },
      "name()": {
        "details": "See {IERC721Metadata-name}."
      },
      "ownerOf(uint256)": {
        "details": "See {IERC721-ownerOf}."
      },
      "safeTransferFrom(address,address,uint256)": {
        "details": "See {IERC721-safeTransferFrom}."
      },
      "safeTransferFrom(address,address,uint256,bytes)": {
        "details": "See {IERC721-safeTransferFrom}."
      },
      "setApprovalForAll(address,bool)": {
        "details": "See {IERC721-setApprovalForAll}."
      },
      "supportsInterface(bytes4)": {
        "details": "See {IERC165-supportsInterface}."
      },
      "symbol()": {
        "details": "See {IERC721Metadata-symbol}."
      },
      "tokenByIndex(uint256)": {
        "details": "See {IERC721Enumerable-tokenByIndex}."
      },
      "tokenOfOwnerByIndex(address,uint256)": {
        "details": "See {IERC721Enumerable-tokenOfOwnerByIndex}."
      },
      "totalSupply()": {
        "details": "See {IERC721Enumerable-totalSupply}."
      },
      "transferFrom(address,address,uint256)": {
        "details": "See {IERC721-transferFrom}."
      }
    },
    "version": 1
  },
  "userdoc": {
    "kind": "user",
    "methods": {},
    "version": 1
  }
}