{
  "contractName": "MintNFT",
  "abi": [
    {
      "inputs": [],
      "stateMutability": "nonpayable",
      "type": "constructor"
    },
    {
      "anonymous": false,
      "inputs": [
        {
          "indexed": true,
          "internalType": "address",
          "name": "owner",
          "type": "address"
        },
        {
          "indexed": true,
          "internalType": "address",
          "name": "approved",
          "type": "address"
        },
        {
          "indexed": true,
          "internalType": "uint256",
          "name": "tokenId",
          "type": "uint256"
        }
      ],
      "name": "Approval",
      "type": "event"
    },
    {
      "anonymous": false,
      "inputs": [
        {
          "indexed": true,
          "internalType": "address",
          "name": "owner",
          "type": "address"
        },
        {
          "indexed": true,
          "internalType": "address",
          "name": "operator",
          "type": "address"
        },
        {
          "indexed": false,
          "internalType": "bool",
          "name": "approved",
          "type": "bool"
        }
      ],
      "name": "ApprovalForAll",
      "type": "event"
    },
    {
      "anonymous": false,
      "inputs": [
        {
          "indexed": true,
          "internalType": "address",
          "name": "from",
          "type": "address"
        },
        {
          "indexed": true,
          "internalType": "address",
          "name": "to",
          "type": "address"
        },
        {
          "indexed": true,
          "internalType": "uint256",
          "name": "tokenId",
          "type": "uint256"
        }
      ],
      "name": "Transfer",
      "type": "event"
    },
    {
      "anonymous": false,
      "inputs": [
        {
          "indexed": false,
          "internalType": "address",
          "name": "sender",
          "type": "address"
        },
        {
          "indexed": false,
          "internalType": "uint256",
          "name": "tokenId",
          "type": "uint256"
        }
      ],
      "name": "mymint",
      "type": "event"
    },
    {
      "inputs": [
        {
          "internalType": "address",
          "name": "to",
          "type": "address"
        },
        {
          "internalType": "uint256",
          "name": "tokenId",
          "type": "uint256"
        }
      ],
      "name": "approve",
      "outputs": [],
      "stateMutability": "nonpayable",
      "type": "function"
    },
    {
      "inputs": [
        {
          "internalType": "address",
          "name": "owner",
          "type": "address"
        }
      ],
      "name": "balanceOf",
      "outputs": [
        {
          "internalType": "uint256",
          "name": "",
          "type": "uint256"
        }
      ],
      "stateMutability": "view",
      "type": "function",
      "constant": true
    },
    {
      "inputs": [
        {
          "internalType": "uint256",
          "name": "tokenId",
          "type": "uint256"
        }
      ],
      "name": "getApproved",
      "outputs": [
        {
          "internalType": "address",
          "name": "",
          "type": "address"
        }
      ],
      "stateMutability": "view",
      "type": "function",
      "constant": true
    },
    {
      "inputs": [
        {
          "internalType": "address",
          "name": "owner",
          "type": "address"
        },
        {
          "internalType": "address",
          "name": "operator",
          "type": "address"
        }
      ],
      "name": "isApprovedForAll",
      "outputs": [
        {
          "internalType": "bool",
          "name": "",
          "type": "bool"
        }
      ],
      "stateMutability": "view",
      "type": "function",
      "constant": true
    },
    {
      "inputs": [],
      "name": "name",
      "outputs": [
        {
          "internalType": "string",
          "name": "",
          "type": "string"
        }
      ],
      "stateMutability": "view",
      "type": "function",
      "constant": true
    },
    {
      "inputs": [
        {
          "internalType": "uint256",
          "name": "",
          "type": "uint256"
        }
      ],
      "name": "nftTokenPrices",
      "outputs": [
        {
          "internalType": "uint256",
          "name": "",
          "type": "uint256"
        }
      ],
      "stateMutability": "view",
      "type": "function",
      "constant": true
    },
    {
      "inputs": [
        {
          "internalType": "uint256",
          "name": "",
          "type": "uint256"
        }
      ],
      "name": "onSaleNftTokenArray",
      "outputs": [
        {
          "internalType": "uint256",
          "name": "",
          "type": "uint256"
        }
      ],
      "stateMutability": "view",
      "type": "function",
      "constant": true
    },
    {
      "inputs": [
        {
          "internalType": "uint256",
          "name": "tokenId",
          "type": "uint256"
        }
      ],
      "name": "ownerOf",
      "outputs": [
        {
          "internalType": "address",
          "name": "",
          "type": "address"
        }
      ],
      "stateMutability": "view",
      "type": "function",
      "constant": true
    },
    {
      "inputs": [
        {
          "internalType": "address",
          "name": "from",
          "type": "address"
        },
        {
          "internalType": "address",
          "name": "to",
          "type": "address"
        },
        {
          "internalType": "uint256",
          "name": "tokenId",
          "type": "uint256"
        }
      ],
      "name": "safeTransferFrom",
      "outputs": [],
      "stateMutability": "nonpayable",
      "type": "function"
    },
    {
      "inputs": [
        {
          "internalType": "address",
          "name": "from",
          "type": "address"
        },
        {
          "internalType": "address",
          "name": "to",
          "type": "address"
        },
        {
          "internalType": "uint256",
          "name": "tokenId",
          "type": "uint256"
        },
        {
          "internalType": "bytes",
          "name": "data",
          "type": "bytes"
        }
      ],
      "name": "safeTransferFrom",
      "outputs": [],
      "stateMutability": "nonpayable",
      "type": "function"
    },
    {
      "inputs": [
        {
          "internalType": "address",
          "name": "operator",
          "type": "address"
        },
        {
          "internalType": "bool",
          "name": "approved",
          "type": "bool"
        }
      ],
      "name": "setApprovalForAll",
      "outputs": [],
      "stateMutability": "nonpayable",
      "type": "function"
    },
    {
      "inputs": [
        {
          "internalType": "bytes4",
          "name": "interfaceId",
          "type": "bytes4"
        }
      ],
      "name": "supportsInterface",
      "outputs": [
        {
          "internalType": "bool",
          "name": "",
          "type": "bool"
        }
      ],
      "stateMutability": "view",
      "type": "function",
      "constant": true
    },
    {
      "inputs": [],
      "name": "symbol",
      "outputs": [
        {
          "internalType": "string",
          "name": "",
          "type": "string"
        }
      ],
      "stateMutability": "view",
      "type": "function",
      "constant": true
    },
    {
      "inputs": [
        {
          "internalType": "uint256",
          "name": "index",
          "type": "uint256"
        }
      ],
      "name": "tokenByIndex",
      "outputs": [
        {
          "internalType": "uint256",
          "name": "",
          "type": "uint256"
        }
      ],
      "stateMutability": "view",
      "type": "function",
      "constant": true
    },
    {
      "inputs": [
        {
          "internalType": "address",
          "name": "owner",
          "type": "address"
        },
        {
          "internalType": "uint256",
          "name": "index",
          "type": "uint256"
        }
      ],
      "name": "tokenOfOwnerByIndex",
      "outputs": [
        {
          "internalType": "uint256",
          "name": "",
          "type": "uint256"
        }
      ],
      "stateMutability": "view",
      "type": "function",
      "constant": true
    },
    {
      "inputs": [
        {
          "internalType": "uint256",
          "name": "",
          "type": "uint256"
        }
      ],
      "name": "tokenURIs",
      "outputs": [
        {
          "internalType": "string",
          "name": "",
          "type": "string"
        }
      ],
      "stateMutability": "view",
      "type": "function",
      "constant": true
    },
    {
      "inputs": [],
      "name": "totalSupply",
      "outputs": [
        {
          "internalType": "uint256",
          "name": "",
          "type": "uint256"
        }
      ],
      "stateMutability": "view",
      "type": "function",
      "constant": true
    },
    {
      "inputs": [
        {
          "internalType": "address",
          "name": "from",
          "type": "address"
        },
        {
          "internalType": "address",
          "name": "to",
          "type": "address"
        },
        {
          "internalType": "uint256",
          "name": "tokenId",
          "type": "uint256"
        }
      ],
      "name": "transferFrom",
      "outputs": [],
      "stateMutability": "nonpayable",
      "type": "function"
    },
    {
      "inputs": [
        {
          "internalType": "uint256",
          "name": "_tokenId",
          "type": "uint256"
        }
      ],
      "name": "tokenURI",
      "outputs": [
        {
          "internalType": "string",
          "name": "",
          "type": "string"
        }
      ],
      "stateMutability": "view",
      "type": "function",
      "constant": true
    },
    {
      "inputs": [
        {
          "internalType": "string",
          "name": "_tokenURI",
          "type": "string"
        }
      ],
      "name": "mintNFT",
      "outputs": [
        {
          "internalType": "uint256",
          "name": "",
          "type": "uint256"
        }
      ],
      "stateMutability": "nonpayable",
      "type": "function"
    },
    {
      "inputs": [
        {
          "internalType": "string",
          "name": "_tokenURI",
          "type": "string"
        }
      ],
      "name": "editNFT",
      "outputs": [
        {
          "internalType": "uint256",
          "name": "",
          "type": "uint256"
        }
      ],
      "stateMutability": "nonpayable",
      "type": "function"
    },
    {
      "inputs": [
        {
          "internalType": "address",
          "name": "_nftTokenOwner",
          "type": "address"
        }
      ],
      "name": "getNftTokens",
      "outputs": [
        {
          "components": [
            {
              "internalType": "uint256",
              "name": "nftTokenId",
              "type": "uint256"
            },
            {
              "internalType": "string",
              "name": "nftTokenURI",
              "type": "string"
            },
            {
              "internalType": "uint256",
              "name": "price",
              "type": "uint256"
            }
          ],
          "internalType": "struct MintNFT.NftTokenData[]",
          "name": "",
          "type": "tuple[]"
        }
      ],
      "stateMutability": "view",
      "type": "function",
      "constant": true
    },
    {
      "inputs": [
        {
          "internalType": "uint256",
          "name": "_tokenId",
          "type": "uint256"
        },
        {
          "internalType": "uint256",
          "name": "_price",
          "type": "uint256"
        }
      ],
      "name": "setSaleNftToken",
      "outputs": [],
      "stateMutability": "nonpayable",
      "type": "function"
    },
    {
      "inputs": [],
      "name": "getSaleNftTokens",
      "outputs": [
        {
          "components": [
            {
              "internalType": "uint256",
              "name": "nftTokenId",
              "type": "uint256"
            },
            {
              "internalType": "string",
              "name": "nftTokenURI",
              "type": "string"
            },
            {
              "internalType": "uint256",
              "name": "price",
              "type": "uint256"
            }
          ],
          "internalType": "struct MintNFT.NftTokenData[]",
          "name": "",
          "type": "tuple[]"
        }
      ],
      "stateMutability": "view",
      "type": "function",
      "constant": true
    },
    {
      "inputs": [],
      "name": "getSaleNftToken",
      "outputs": [
        {
          "internalType": "uint256[]",
          "name": "",
          "type": "uint256[]"
        }
      ],
      "stateMutability": "view",
      "type": "function",
      "constant": true
    },
    {
      "inputs": [
        {
          "internalType": "uint256",
          "name": "_tokenId",
          "type": "uint256"
        }
      ],
      "name": "getNftTokenPrice",
      "outputs": [
        {
          "internalType": "uint256",
          "name": "",
          "type": "uint256"
        }
      ],
      "stateMutability": "view",
      "type": "function",
      "constant": true
    },
    {
      "inputs": [
        {
          "internalType": "uint256",
          "name": "_tokenId",
          "type": "uint256"
        }
      ],
      "name": "buyNftToken",
      "outputs": [],
      "stateMutability": "payable",
      "type": "function",
      "payable": true
    },
    {
      "inputs": [
        {
          "internalType": "uint256",
          "name": "_tokenId",
          "type": "uint256"
        }
      ],
      "name": "burn",
      "outputs": [],
      "stateMutability": "nonpayable",
      "type": "function"
    }
  ],
  "bytecode": "0x60806040523480156200001157600080fd5b506040518060400160405280600381526020017f53444400000000000000000000000000000000000000000000000000000000008152506040518060400160405280600a81526020017f5344445f73796d626f6c0000000000000000000000000000000000000000000081525081600090816200008f919062000324565b508060019081620000a1919062000324565b5050506200040b565b600081519050919050565b7f4e487b7100000000000000000000000000000000000000000000000000000000600052604160045260246000fd5b7f4e487b7100000000000000000000000000000000000000000000000000000000600052602260045260246000fd5b600060028204905060018216806200012c57607f821691505b602082108103620001425762000141620000e4565b5b50919050565b60008190508160005260206000209050919050565b60006020601f8301049050919050565b600082821b905092915050565b600060088302620001ac7fffffffffffffffffffffffffffffffffffffffffffffffffffffffffffffffff826200016d565b620001b886836200016d565b95508019841693508086168417925050509392505050565b6000819050919050565b6000819050919050565b600062000205620001ff620001f984620001d0565b620001da565b620001d0565b9050919050565b6000819050919050565b6200022183620001e4565b6200023962000230826200020c565b8484546200017a565b825550505050565b600090565b6200025062000241565b6200025d81848462000216565b505050565b5b8181101562000285576200027960008262000246565b60018101905062000263565b5050565b601f821115620002d4576200029e8162000148565b620002a9846200015d565b81016020851015620002b9578190505b620002d1620002c8856200015d565b83018262000262565b50505b505050565b600082821c905092915050565b6000620002f960001984600802620002d9565b1980831691505092915050565b6000620003148383620002e6565b9150826002028217905092915050565b6200032f82620000aa565b67ffffffffffffffff8111156200034b576200034a620000b5565b5b62000357825462000113565b6200036482828562000289565b600060209050601f8311600181146200039c576000841562000387578287015190505b62000393858262000306565b86555062000403565b601f198416620003ac8662000148565b60005b82811015620003d657848901518255600182019150602085019450602081019050620003af565b86831015620003f65784890151620003f2601f891682620002e6565b8355505b6001600288020188555050505b505050505050565b61426a806200041b6000396000f3fe6080604052600436106101b75760003560e01c806370a08231116100ec578063b88d4fde1161008a578063da8cc6e811610064578063da8cc6e81461068e578063e985e9c5146106aa578063f257f548146106e7578063fb37e88314610724576101b7565b8063b88d4fde146105ff578063b8e297f414610628578063c87b56dd14610651576101b7565b8063879a6024116100c6578063879a602414610531578063912c45cf1461056e57806395d89b41146105ab578063a22cb465146105d6576101b7565b806370a082311461048c57806373e778c5146104c957806374a6b54f14610506576101b7565b80632f745c59116101595780634ae23e64116101335780634ae23e64146103985780634f6ccce7146103d55780636352211e146104125780636c8b703f1461044f576101b7565b80632f745c591461030957806342842e0e1461034657806342966c681461036f576101b7565b8063095ea7b311610195578063095ea7b31461026157806318160ddd1461028a5780631efceb90146102b557806323b872dd146102e0576101b7565b806301ffc9a7146101bc57806306fdde03146101f9578063081812fc14610224575b600080fd5b3480156101c857600080fd5b506101e360048036038101906101de9190612931565b610761565b6040516101f09190612979565b60405180910390f35b34801561020557600080fd5b5061020e6107db565b60405161021b9190612a2d565b60405180910390f35b34801561023057600080fd5b5061024b60048036038101906102469190612a85565b61086d565b6040516102589190612af3565b60405180910390f35b34801561026d57600080fd5b5061028860048036038101906102839190612b3a565b6108b3565b005b34801561029657600080fd5b5061029f6109ca565b6040516102ac9190612b89565b60405180910390f35b3480156102c157600080fd5b506102ca6109d7565b6040516102d79190612c62565b60405180910390f35b3480156102ec57600080fd5b5061030760048036038101906103029190612c84565b610a2f565b005b34801561031557600080fd5b50610330600480360381019061032b9190612b3a565b610a8f565b60405161033d9190612b89565b60405180910390f35b34801561035257600080fd5b5061036d60048036038101906103689190612c84565b610b34565b005b34801561037b57600080fd5b5061039660048036038101906103919190612a85565b610b54565b005b3480156103a457600080fd5b506103bf60048036038101906103ba9190612a85565b610be5565b6040516103cc9190612b89565b60405180910390f35b3480156103e157600080fd5b506103fc60048036038101906103f79190612a85565b610bfd565b6040516104099190612b89565b60405180910390f35b34801561041e57600080fd5b5061043960048036038101906104349190612a85565b610c6e565b6040516104469190612af3565b60405180910390f35b34801561045b57600080fd5b5061047660048036038101906104719190612a85565b610d1f565b6040516104839190612a2d565b60405180910390f35b34801561049857600080fd5b506104b360048036038101906104ae9190612cd7565b610dbf565b6040516104c09190612b89565b60405180910390f35b3480156104d557600080fd5b506104f060048036038101906104eb9190612a85565b610e76565b6040516104fd9190612b89565b60405180910390f35b34801561051257600080fd5b5061051b610e9a565b6040516105289190612e60565b60405180910390f35b34801561053d57600080fd5b5061055860048036038101906105539190612fb7565b610f98565b6040516105659190612b89565b60405180910390f35b34801561057a57600080fd5b5061059560048036038101906105909190612a85565b610f9f565b6040516105a29190612b89565b60405180910390f35b3480156105b757600080fd5b506105c0610fbc565b6040516105cd9190612a2d565b60405180910390f35b3480156105e257600080fd5b506105fd60048036038101906105f8919061302c565b61104e565b005b34801561060b57600080fd5b506106266004803603810190610621919061310d565b611064565b005b34801561063457600080fd5b5061064f600480360381019061064a9190613190565b6110c6565b005b34801561065d57600080fd5b5061067860048036038101906106739190612a85565b611269565b6040516106859190612a2d565b60405180910390f35b6106a860048036038101906106a39190612a85565b61130e565b005b3480156106b657600080fd5b506106d160048036038101906106cc91906131d0565b611534565b6040516106de9190612979565b60405180910390f35b3480156106f357600080fd5b5061070e60048036038101906107099190612cd7565b6115c8565b60405161071b9190612e60565b60405180910390f35b34801561073057600080fd5b5061074b60048036038101906107469190612fb7565b6116bc565b6040516107589190612b89565b60405180910390f35b60007f780e9d63000000000000000000000000000000000000000000000000000000007bffffffffffffffffffffffffffffffffffffffffffffffffffffffff1916827bffffffffffffffffffffffffffffffffffffffffffffffffffffffff191614806107d457506107d382611743565b5b9050919050565b6060600080546107ea9061323f565b80601f01602080910402602001604051908101604052809291908181526020018280546108169061323f565b80156108635780601f1061083857610100808354040283529160200191610863565b820191906000526020600020905b81548152906001019060200180831161084657829003601f168201915b5050505050905090565b600061087882611825565b6004600083815260200190815260200160002060009054906101000a900473ffffffffffffffffffffffffffffffffffffffff169050919050565b60006108be82610c6e565b90508073ffffffffffffffffffffffffffffffffffffffff168373ffffffffffffffffffffffffffffffffffffffff160361092e576040517f08c379a0000000000000000000000000000000000000000000000000000000008152600401610925906132e2565b60405180910390fd5b8073ffffffffffffffffffffffffffffffffffffffff1661094d611870565b73ffffffffffffffffffffffffffffffffffffffff16148061097c575061097b81610976611870565b611534565b5b6109bb576040517f08c379a00000000000000000000000000000000000000000000000000000000081526004016109b290613374565b60405180910390fd5b6109c58383611878565b505050565b6000600880549050905090565b6060600d805480602002602001604051908101604052809291908181526020018280548015610a2557602002820191906000526020600020905b815481526020019060010190808311610a11575b5050505050905090565b610a40610a3a611870565b82611931565b610a7f576040517f08c379a0000000000000000000000000000000000000000000000000000000008152600401610a7690613406565b60405180910390fd5b610a8a8383836119c6565b505050565b6000610a9a83610dbf565b8210610adb576040517f08c379a0000000000000000000000000000000000000000000000000000000008152600401610ad290613498565b60405180910390fd5b600660008473ffffffffffffffffffffffffffffffffffffffff1673ffffffffffffffffffffffffffffffffffffffff168152602001908152602001600020600083815260200190815260200160002054905092915050565b610b4f83838360405180602001604052806000815250611064565b505050565b6000610b5f82610c6e565b90503373ffffffffffffffffffffffffffffffffffffffff168173ffffffffffffffffffffffffffffffffffffffff1614610bcf576040517f08c379a0000000000000000000000000000000000000000000000000000000008152600401610bc69061352a565b60405180910390fd5b610bd882611c2c565b610be182611d49565b5050565b600c6020528060005260406000206000915090505481565b6000610c076109ca565b8210610c48576040517f08c379a0000000000000000000000000000000000000000000000000000000008152600401610c3f906135bc565b60405180910390fd5b60088281548110610c5c57610c5b6135dc565b5b90600052602060002001549050919050565b6000806002600084815260200190815260200160002060009054906101000a900473ffffffffffffffffffffffffffffffffffffffff169050600073ffffffffffffffffffffffffffffffffffffffff168173ffffffffffffffffffffffffffffffffffffffff1603610d16576040517f08c379a0000000000000000000000000000000000000000000000000000000008152600401610d0d90613657565b60405180910390fd5b80915050919050565b600b6020528060005260406000206000915090508054610d3e9061323f565b80601f0160208091040260200160405190810160405280929190818152602001828054610d6a9061323f565b8015610db75780601f10610d8c57610100808354040283529160200191610db7565b820191906000526020600020905b815481529060010190602001808311610d9a57829003601f168201915b505050505081565b60008073ffffffffffffffffffffffffffffffffffffffff168273ffffffffffffffffffffffffffffffffffffffff1603610e2f576040517f08c379a0000000000000000000000000000000000000000000000000000000008152600401610e26906136e9565b60405180910390fd5b600360008373ffffffffffffffffffffffffffffffffffffffff1673ffffffffffffffffffffffffffffffffffffffff168152602001908152602001600020549050919050565b600d8181548110610e8657600080fd5b906000526020600020016000915090505481565b60606000610ea66109d7565b90506000815167ffffffffffffffff811115610ec557610ec4612e8c565b5b604051908082528060200260200182016040528015610efe57816020015b610eeb6128a4565b815260200190600190039081610ee35790505b50905060005b8251811015610f8f576000838281518110610f2257610f216135dc565b5b602002602001015190506000610f3782610f9f565b90506040518060600160405280838152602001610f5384611269565b815260200182815250848481518110610f6f57610f6e6135dc565b5b602002602001018190525050508080610f8790613738565b915050610f04565b50809250505090565b6000919050565b6000600c6000838152602001908152602001600020549050919050565b606060018054610fcb9061323f565b80601f0160208091040260200160405190810160405280929190818152602001828054610ff79061323f565b80156110445780601f1061101957610100808354040283529160200191611044565b820191906000526020600020905b81548152906001019060200180831161102757829003601f168201915b5050505050905090565b611060611059611870565b8383611e3d565b5050565b61107561106f611870565b83611931565b6110b4576040517f08c379a00000000000000000000000000000000000000000000000000000000081526004016110ab90613406565b60405180910390fd5b6110c084848484611fa9565b50505050565b60006110d183610c6e565b90503373ffffffffffffffffffffffffffffffffffffffff168173ffffffffffffffffffffffffffffffffffffffff1614611141576040517f08c379a0000000000000000000000000000000000000000000000000000000008152600401611138906137cc565b60405180910390fd5b60008211611184576040517f08c379a000000000000000000000000000000000000000000000000000000000815260040161117b90613838565b60405180910390fd5b6000600c600085815260200190815260200160002054146111da576040517f08c379a00000000000000000000000000000000000000000000000000000000081526004016111d1906138ca565b60405180910390fd5b6111e48130611534565b611223576040517f08c379a000000000000000000000000000000000000000000000000000000000815260040161121a9061395c565b60405180910390fd5b81600c600085815260200190815260200160002081905550600d839080600181540180825580915050600190039060005260206000200160009091909190915055505050565b6060600b600083815260200190815260200160002080546112899061323f565b80601f01602080910402602001604051908101604052809291908181526020018280546112b59061323f565b80156113025780601f106112d757610100808354040283529160200191611302565b820191906000526020600020905b8154815290600101906020018083116112e557829003601f168201915b50505050509050919050565b6000600c6000838152602001908152602001600020549050600061133183610c6e565b905060008211611376576040517f08c379a000000000000000000000000000000000000000000000000000000000815260040161136d906139c8565b60405180910390fd5b348211156113b9576040517f08c379a00000000000000000000000000000000000000000000000000000000081526004016113b090613a34565b60405180910390fd5b3373ffffffffffffffffffffffffffffffffffffffff168173ffffffffffffffffffffffffffffffffffffffff1603611427576040517f08c379a000000000000000000000000000000000000000000000000000000000815260040161141e90613aa0565b60405180910390fd5b6114318130611534565b611470576040517f08c379a00000000000000000000000000000000000000000000000000000000081526004016114679061395c565b60405180910390fd5b8073ffffffffffffffffffffffffffffffffffffffff166108fc349081150290604051600060405180830381858888f193505050501580156114b6573d6000803e3d6000fd5b503073ffffffffffffffffffffffffffffffffffffffff166342842e0e8233866040518463ffffffff1660e01b81526004016114f493929190613ac0565b600060405180830381600087803b15801561150e57600080fd5b505af1158015611522573d6000803e3d6000fd5b5050505061152f83611d49565b505050565b6000600560008473ffffffffffffffffffffffffffffffffffffffff1673ffffffffffffffffffffffffffffffffffffffff16815260200190815260200160002060008373ffffffffffffffffffffffffffffffffffffffff1673ffffffffffffffffffffffffffffffffffffffff16815260200190815260200160002060009054906101000a900460ff16905092915050565b606060006115d583610dbf565b905060008167ffffffffffffffff8111156115f3576115f2612e8c565b5b60405190808252806020026020018201604052801561162c57816020015b6116196128a4565b8152602001906001900390816116115790505b50905060005b828110156116b15760006116468683610a8f565b9050600061165382611269565b9050600061166083610f9f565b90506040518060600160405280848152602001838152602001828152508585815181106116905761168f6135dc565b5b602002602001018190525050505080806116a990613738565b915050611632565b508092505050919050565b60006116c8600a612005565b60006116d4600a61201b565b905082600b600083815260200190815260200160002090816116f69190613ca3565b507f5940d536573fc43223141313339740aee8ba0e0f2cb0d366f5cb76fb4a0fdf473382604051611728929190613d75565b60405180910390a161173a3382612029565b80915050919050565b60007f80ac58cd000000000000000000000000000000000000000000000000000000007bffffffffffffffffffffffffffffffffffffffffffffffffffffffff1916827bffffffffffffffffffffffffffffffffffffffffffffffffffffffff1916148061180e57507f5b5e139f000000000000000000000000000000000000000000000000000000007bffffffffffffffffffffffffffffffffffffffffffffffffffffffff1916827bffffffffffffffffffffffffffffffffffffffffffffffffffffffff1916145b8061181e575061181d82612202565b5b9050919050565b61182e8161226c565b61186d576040517f08c379a000000000000000000000000000000000000000000000000000000000815260040161186490613657565b60405180910390fd5b50565b600033905090565b816004600083815260200190815260200160002060006101000a81548173ffffffffffffffffffffffffffffffffffffffff021916908373ffffffffffffffffffffffffffffffffffffffff160217905550808273ffffffffffffffffffffffffffffffffffffffff166118eb83610c6e565b73ffffffffffffffffffffffffffffffffffffffff167f8c5be1e5ebec7d5bd14f71427d1e84f3dd0314c0f7b2291e5b200ac8c7c3b92560405160405180910390a45050565b60008061193d83610c6e565b90508073ffffffffffffffffffffffffffffffffffffffff168473ffffffffffffffffffffffffffffffffffffffff16148061197f575061197e8185611534565b5b806119bd57508373ffffffffffffffffffffffffffffffffffffffff166119a58461086d565b73ffffffffffffffffffffffffffffffffffffffff16145b91505092915050565b8273ffffffffffffffffffffffffffffffffffffffff166119e682610c6e565b73ffffffffffffffffffffffffffffffffffffffff1614611a3c576040517f08c379a0000000000000000000000000000000000000000000000000000000008152600401611a3390613e10565b60405180910390fd5b600073ffffffffffffffffffffffffffffffffffffffff168273ffffffffffffffffffffffffffffffffffffffff1603611aab576040517f08c379a0000000000000000000000000000000000000000000000000000000008152600401611aa290613ea2565b60405180910390fd5b611ab68383836122d8565b611ac1600082611878565b6001600360008573ffffffffffffffffffffffffffffffffffffffff1673ffffffffffffffffffffffffffffffffffffffff1681526020019081526020016000206000828254611b119190613ec2565b925050819055506001600360008473ffffffffffffffffffffffffffffffffffffffff1673ffffffffffffffffffffffffffffffffffffffff1681526020019081526020016000206000828254611b689190613ef6565b92505081905550816002600083815260200190815260200160002060006101000a81548173ffffffffffffffffffffffffffffffffffffffff021916908373ffffffffffffffffffffffffffffffffffffffff160217905550808273ffffffffffffffffffffffffffffffffffffffff168473ffffffffffffffffffffffffffffffffffffffff167fddf252ad1be2c89b69c2b068fc378daa952ba7f163c4a11628f55a4df523b3ef60405160405180910390a4611c278383836123ea565b505050565b6000611c3782610c6e565b9050611c45816000846122d8565b611c50600083611878565b6001600360008373ffffffffffffffffffffffffffffffffffffffff1673ffffffffffffffffffffffffffffffffffffffff1681526020019081526020016000206000828254611ca09190613ec2565b925050819055506002600083815260200190815260200160002060006101000a81549073ffffffffffffffffffffffffffffffffffffffff021916905581600073ffffffffffffffffffffffffffffffffffffffff168273ffffffffffffffffffffffffffffffffffffffff167fddf252ad1be2c89b69c2b068fc378daa952ba7f163c4a11628f55a4df523b3ef60405160405180910390a4611d45816000846123ea565b5050565b6000600c60008381526020019081526020016000208190555060005b600d80549050811015611e39576000600c6000600d8481548110611d8c57611d8b6135dc565b5b906000526020600020015481526020019081526020016000205403611e2657600d6001600d80549050611dbf9190613ec2565b81548110611dd057611dcf6135dc565b5b9060005260206000200154600d8281548110611def57611dee6135dc565b5b9060005260206000200181905550600d805480611e0f57611e0e613f4c565b5b600190038181906000526020600020016000905590555b8080611e3190613738565b915050611d65565b5050565b8173ffffffffffffffffffffffffffffffffffffffff168373ffffffffffffffffffffffffffffffffffffffff1603611eab576040517f08c379a0000000000000000000000000000000000000000000000000000000008152600401611ea290613fc7565b60405180910390fd5b80600560008573ffffffffffffffffffffffffffffffffffffffff1673ffffffffffffffffffffffffffffffffffffffff16815260200190815260200160002060008473ffffffffffffffffffffffffffffffffffffffff1673ffffffffffffffffffffffffffffffffffffffff16815260200190815260200160002060006101000a81548160ff0219169083151502179055508173ffffffffffffffffffffffffffffffffffffffff168373ffffffffffffffffffffffffffffffffffffffff167f17307eab39ab6107e8899845ad3d59bd9653f200f220920489ca2b5937696c3183604051611f9c9190612979565b60405180910390a3505050565b611fb48484846119c6565b611fc0848484846123ef565b611fff576040517f08c379a0000000000000000000000000000000000000000000000000000000008152600401611ff690614059565b60405180910390fd5b50505050565b6001816000016000828254019250508190555050565b600081600001549050919050565b600073ffffffffffffffffffffffffffffffffffffffff168273ffffffffffffffffffffffffffffffffffffffff1603612098576040517f08c379a000000000000000000000000000000000000000000000000000000000815260040161208f906140c5565b60405180910390fd5b6120a18161226c565b156120e1576040517f08c379a00000000000000000000000000000000000000000000000000000000081526004016120d890614131565b60405180910390fd5b6120ed600083836122d8565b6001600360008473ffffffffffffffffffffffffffffffffffffffff1673ffffffffffffffffffffffffffffffffffffffff168152602001908152602001600020600082825461213d9190613ef6565b92505081905550816002600083815260200190815260200160002060006101000a81548173ffffffffffffffffffffffffffffffffffffffff021916908373ffffffffffffffffffffffffffffffffffffffff160217905550808273ffffffffffffffffffffffffffffffffffffffff16600073ffffffffffffffffffffffffffffffffffffffff167fddf252ad1be2c89b69c2b068fc378daa952ba7f163c4a11628f55a4df523b3ef60405160405180910390a46121fe600083836123ea565b5050565b60007f01ffc9a7000000000000000000000000000000000000000000000000000000007bffffffffffffffffffffffffffffffffffffffffffffffffffffffff1916827bffffffffffffffffffffffffffffffffffffffffffffffffffffffff1916149050919050565b60008073ffffffffffffffffffffffffffffffffffffffff166002600084815260200190815260200160002060009054906101000a900473ffffffffffffffffffffffffffffffffffffffff1673ffffffffffffffffffffffffffffffffffffffff1614159050919050565b6122e3838383612576565b600073ffffffffffffffffffffffffffffffffffffffff168373ffffffffffffffffffffffffffffffffffffffff1603612325576123208161257b565b612364565b8173ffffffffffffffffffffffffffffffffffffffff168373ffffffffffffffffffffffffffffffffffffffff16146123635761236283826125c4565b5b5b600073ffffffffffffffffffffffffffffffffffffffff168273ffffffffffffffffffffffffffffffffffffffff16036123a6576123a181612731565b6123e5565b8273ffffffffffffffffffffffffffffffffffffffff168273ffffffffffffffffffffffffffffffffffffffff16146123e4576123e38282612802565b5b5b505050565b505050565b60006124108473ffffffffffffffffffffffffffffffffffffffff16612881565b15612569578373ffffffffffffffffffffffffffffffffffffffff1663150b7a02612439611870565b8786866040518563ffffffff1660e01b815260040161245b94939291906141a6565b6020604051808303816000875af192505050801561249757506040513d601f19601f820116820180604052508101906124949190614207565b60015b612519573d80600081146124c7576040519150601f19603f3d011682016040523d82523d6000602084013e6124cc565b606091505b506000815103612511576040517f08c379a000000000000000000000000000000000000000000000000000000000815260040161250890614059565b60405180910390fd5b805181602001fd5b63150b7a0260e01b7bffffffffffffffffffffffffffffffffffffffffffffffffffffffff1916817bffffffffffffffffffffffffffffffffffffffffffffffffffffffff19161491505061256e565b600190505b949350505050565b505050565b6008805490506009600083815260200190815260200160002081905550600881908060018154018082558091505060019003906000526020600020016000909190919091505550565b600060016125d184610dbf565b6125db9190613ec2565b90506000600760008481526020019081526020016000205490508181146126c0576000600660008673ffffffffffffffffffffffffffffffffffffffff1673ffffffffffffffffffffffffffffffffffffffff168152602001908152602001600020600084815260200190815260200160002054905080600660008773ffffffffffffffffffffffffffffffffffffffff1673ffffffffffffffffffffffffffffffffffffffff168152602001908152602001600020600084815260200190815260200160002081905550816007600083815260200190815260200160002081905550505b6007600084815260200190815260200160002060009055600660008573ffffffffffffffffffffffffffffffffffffffff1673ffffffffffffffffffffffffffffffffffffffff16815260200190815260200160002060008381526020019081526020016000206000905550505050565b600060016008805490506127459190613ec2565b9050600060096000848152602001908152602001600020549050600060088381548110612775576127746135dc565b5b906000526020600020015490508060088381548110612797576127966135dc565b5b9060005260206000200181905550816009600083815260200190815260200160002081905550600960008581526020019081526020016000206000905560088054806127e6576127e5613f4c565b5b6001900381819060005260206000200160009055905550505050565b600061280d83610dbf565b905081600660008573ffffffffffffffffffffffffffffffffffffffff1673ffffffffffffffffffffffffffffffffffffffff168152602001908152602001600020600083815260200190815260200160002081905550806007600084815260200190815260200160002081905550505050565b6000808273ffffffffffffffffffffffffffffffffffffffff163b119050919050565b60405180606001604052806000815260200160608152602001600081525090565b6000604051905090565b600080fd5b600080fd5b60007fffffffff0000000000000000000000000000000000000000000000000000000082169050919050565b61290e816128d9565b811461291957600080fd5b50565b60008135905061292b81612905565b92915050565b600060208284031215612947576129466128cf565b5b60006129558482850161291c565b91505092915050565b60008115159050919050565b6129738161295e565b82525050565b600060208201905061298e600083018461296a565b92915050565b600081519050919050565b600082825260208201905092915050565b60005b838110156129ce5780820151818401526020810190506129b3565b838111156129dd576000848401525b50505050565b6000601f19601f8301169050919050565b60006129ff82612994565b612a09818561299f565b9350612a198185602086016129b0565b612a22816129e3565b840191505092915050565b60006020820190508181036000830152612a4781846129f4565b905092915050565b6000819050919050565b612a6281612a4f565b8114612a6d57600080fd5b50565b600081359050612a7f81612a59565b92915050565b600060208284031215612a9b57612a9a6128cf565b5b6000612aa984828501612a70565b91505092915050565b600073ffffffffffffffffffffffffffffffffffffffff82169050919050565b6000612add82612ab2565b9050919050565b612aed81612ad2565b82525050565b6000602082019050612b086000830184612ae4565b92915050565b612b1781612ad2565b8114612b2257600080fd5b50565b600081359050612b3481612b0e565b92915050565b60008060408385031215612b5157612b506128cf565b5b6000612b5f85828601612b25565b9250506020612b7085828601612a70565b9150509250929050565b612b8381612a4f565b82525050565b6000602082019050612b9e6000830184612b7a565b92915050565b600081519050919050565b600082825260208201905092915050565b6000819050602082019050919050565b612bd981612a4f565b82525050565b6000612beb8383612bd0565b60208301905092915050565b6000602082019050919050565b6000612c0f82612ba4565b612c198185612baf565b9350612c2483612bc0565b8060005b83811015612c55578151612c3c8882612bdf565b9750612c4783612bf7565b925050600181019050612c28565b5085935050505092915050565b60006020820190508181036000830152612c7c8184612c04565b905092915050565b600080600060608486031215612c9d57612c9c6128cf565b5b6000612cab86828701612b25565b9350506020612cbc86828701612b25565b9250506040612ccd86828701612a70565b9150509250925092565b600060208284031215612ced57612cec6128cf565b5b6000612cfb84828501612b25565b91505092915050565b600081519050919050565b600082825260208201905092915050565b6000819050602082019050919050565b600082825260208201905092915050565b6000612d4c82612994565b612d568185612d30565b9350612d668185602086016129b0565b612d6f816129e3565b840191505092915050565b6000606083016000830151612d926000860182612bd0565b5060208301518482036020860152612daa8282612d41565b9150506040830151612dbf6040860182612bd0565b508091505092915050565b6000612dd68383612d7a565b905092915050565b6000602082019050919050565b6000612df682612d04565b612e008185612d0f565b935083602082028501612e1285612d20565b8060005b85811015612e4e5784840389528151612e2f8582612dca565b9450612e3a83612dde565b925060208a01995050600181019050612e16565b50829750879550505050505092915050565b60006020820190508181036000830152612e7a8184612deb565b905092915050565b600080fd5b600080fd5b7f4e487b7100000000000000000000000000000000000000000000000000000000600052604160045260246000fd5b612ec4826129e3565b810181811067ffffffffffffffff82111715612ee357612ee2612e8c565b5b80604052505050565b6000612ef66128c5565b9050612f028282612ebb565b919050565b600067ffffffffffffffff821115612f2257612f21612e8c565b5b612f2b826129e3565b9050602081019050919050565b82818337600083830152505050565b6000612f5a612f5584612f07565b612eec565b905082815260208101848484011115612f7657612f75612e87565b5b612f81848285612f38565b509392505050565b600082601f830112612f9e57612f9d612e82565b5b8135612fae848260208601612f47565b91505092915050565b600060208284031215612fcd57612fcc6128cf565b5b600082013567ffffffffffffffff811115612feb57612fea6128d4565b5b612ff784828501612f89565b91505092915050565b6130098161295e565b811461301457600080fd5b50565b60008135905061302681613000565b92915050565b60008060408385031215613043576130426128cf565b5b600061305185828601612b25565b925050602061306285828601613017565b9150509250929050565b600067ffffffffffffffff82111561308757613086612e8c565b5b613090826129e3565b9050602081019050919050565b60006130b06130ab8461306c565b612eec565b9050828152602081018484840111156130cc576130cb612e87565b5b6130d7848285612f38565b509392505050565b600082601f8301126130f4576130f3612e82565b5b813561310484826020860161309d565b91505092915050565b60008060008060808587031215613127576131266128cf565b5b600061313587828801612b25565b945050602061314687828801612b25565b935050604061315787828801612a70565b925050606085013567ffffffffffffffff811115613178576131776128d4565b5b613184878288016130df565b91505092959194509250565b600080604083850312156131a7576131a66128cf565b5b60006131b585828601612a70565b92505060206131c685828601612a70565b9150509250929050565b600080604083850312156131e7576131e66128cf565b5b60006131f585828601612b25565b925050602061320685828601612b25565b9150509250929050565b7f4e487b7100000000000000000000000000000000000000000000000000000000600052602260045260246000fd5b6000600282049050600182168061325757607f821691505b60208210810361326a57613269613210565b5b50919050565b7f4552433732313a20617070726f76616c20746f2063757272656e74206f776e6560008201527f7200000000000000000000000000000000000000000000000000000000000000602082015250565b60006132cc60218361299f565b91506132d782613270565b604082019050919050565b600060208201905081810360008301526132fb816132bf565b9050919050565b7f4552433732313a20617070726f76652063616c6c6572206973206e6f7420746f60008201527f6b656e206f776e6572206e6f7220617070726f76656420666f7220616c6c0000602082015250565b600061335e603e8361299f565b915061336982613302565b604082019050919050565b6000602082019050818103600083015261338d81613351565b9050919050565b7f4552433732313a2063616c6c6572206973206e6f7420746f6b656e206f776e6560008201527f72206e6f7220617070726f766564000000000000000000000000000000000000602082015250565b60006133f0602e8361299f565b91506133fb82613394565b604082019050919050565b6000602082019050818103600083015261341f816133e3565b9050919050565b7f455243373231456e756d657261626c653a206f776e657220696e646578206f7560008201527f74206f6620626f756e6473000000000000000000000000000000000000000000602082015250565b6000613482602b8361299f565b915061348d82613426565b604082019050919050565b600060208201905081810360008301526134b181613475565b9050919050565b7f6d73672e73656e646572206973206e6f7420746865206f776e6572206f66207460008201527f686520746f6b656e000000000000000000000000000000000000000000000000602082015250565b600061351460288361299f565b915061351f826134b8565b604082019050919050565b6000602082019050818103600083015261354381613507565b9050919050565b7f455243373231456e756d657261626c653a20676c6f62616c20696e646578206f60008201527f7574206f6620626f756e64730000000000000000000000000000000000000000602082015250565b60006135a6602c8361299f565b91506135b18261354a565b604082019050919050565b600060208201905081810360008301526135d581613599565b9050919050565b7f4e487b7100000000000000000000000000000000000000000000000000000000600052603260045260246000fd5b7f4552433732313a20696e76616c696420746f6b656e2049440000000000000000600082015250565b600061364160188361299f565b915061364c8261360b565b602082019050919050565b6000602082019050818103600083015261367081613634565b9050919050565b7f4552433732313a2061646472657373207a65726f206973206e6f74206120766160008201527f6c6964206f776e65720000000000000000000000000000000000000000000000602082015250565b60006136d360298361299f565b91506136de82613677565b604082019050919050565b60006020820190508181036000830152613702816136c6565b9050919050565b7f4e487b7100000000000000000000000000000000000000000000000000000000600052601160045260246000fd5b600061374382612a4f565b91507fffffffffffffffffffffffffffffffffffffffffffffffffffffffffffffffff820361377557613774613709565b5b600182019050919050565b7f43616c6c6572206973206e6f74206e667420746f6b656e206f776e65722e0000600082015250565b60006137b6601e8361299f565b91506137c182613780565b602082019050919050565b600060208201905081810360008301526137e5816137a9565b9050919050565b7f5072696365206973207a65726f206f72206c6f7765722e000000000000000000600082015250565b600061382260178361299f565b915061382d826137ec565b602082019050919050565b6000602082019050818103600083015261385181613815565b9050919050565b7f54686973206e667420746f6b656e20697320616c7265616479206f6e2073616c60008201527f652e000000000000000000000000000000000000000000000000000000000000602082015250565b60006138b460228361299f565b91506138bf82613858565b604082019050919050565b600060208201905081810360008301526138e3816138a7565b9050919050565b7f6e667420746f6b656e206f776e657220646964206e6f7420617070726f76652060008201527f746f6b656e2e0000000000000000000000000000000000000000000000000000602082015250565b600061394660268361299f565b9150613951826138ea565b604082019050919050565b6000602082019050818103600083015261397581613939565b9050919050565b7f6e667420746f6b656e206e6f742073616c652e00000000000000000000000000600082015250565b60006139b260138361299f565b91506139bd8261397c565b602082019050919050565b600060208201905081810360008301526139e1816139a5565b9050919050565b7f63616c6c65722073656e74206c6f776572207468616e2070726963652e000000600082015250565b6000613a1e601d8361299f565b9150613a29826139e8565b602082019050919050565b60006020820190508181036000830152613a4d81613a11565b9050919050565b7f63616c6c6572206973206e667420746f6b656e206f776e65722e000000000000600082015250565b6000613a8a601a8361299f565b9150613a9582613a54565b602082019050919050565b60006020820190508181036000830152613ab981613a7d565b9050919050565b6000606082019050613ad56000830186612ae4565b613ae26020830185612ae4565b613aef6040830184612b7a565b949350505050565b60008190508160005260206000209050919050565b60006020601f8301049050919050565b600082821b905092915050565b600060088302613b597fffffffffffffffffffffffffffffffffffffffffffffffffffffffffffffffff82613b1c565b613b638683613b1c565b95508019841693508086168417925050509392505050565b6000819050919050565b6000613ba0613b9b613b9684612a4f565b613b7b565b612a4f565b9050919050565b6000819050919050565b613bba83613b85565b613bce613bc682613ba7565b848454613b29565b825550505050565b600090565b613be3613bd6565b613bee818484613bb1565b505050565b5b81811015613c1257613c07600082613bdb565b600181019050613bf4565b5050565b601f821115613c5757613c2881613af7565b613c3184613b0c565b81016020851015613c40578190505b613c54613c4c85613b0c565b830182613bf3565b50505b505050565b600082821c905092915050565b6000613c7a60001984600802613c5c565b1980831691505092915050565b6000613c938383613c69565b9150826002028217905092915050565b613cac82612994565b67ffffffffffffffff811115613cc557613cc4612e8c565b5b613ccf825461323f565b613cda828285613c16565b600060209050601f831160018114613d0d5760008415613cfb578287015190505b613d058582613c87565b865550613d6d565b601f198416613d1b86613af7565b60005b82811015613d4357848901518255600182019150602085019450602081019050613d1e565b86831015613d605784890151613d5c601f891682613c69565b8355505b6001600288020188555050505b505050505050565b6000604082019050613d8a6000830185612ae4565b613d976020830184612b7a565b9392505050565b7f4552433732313a207472616e736665722066726f6d20696e636f72726563742060008201527f6f776e6572000000000000000000000000000000000000000000000000000000602082015250565b6000613dfa60258361299f565b9150613e0582613d9e565b604082019050919050565b60006020820190508181036000830152613e2981613ded565b9050919050565b7f4552433732313a207472616e7366657220746f20746865207a65726f2061646460008201527f7265737300000000000000000000000000000000000000000000000000000000602082015250565b6000613e8c60248361299f565b9150613e9782613e30565b604082019050919050565b60006020820190508181036000830152613ebb81613e7f565b9050919050565b6000613ecd82612a4f565b9150613ed883612a4f565b925082821015613eeb57613eea613709565b5b828203905092915050565b6000613f0182612a4f565b9150613f0c83612a4f565b9250827fffffffffffffffffffffffffffffffffffffffffffffffffffffffffffffffff03821115613f4157613f40613709565b5b828201905092915050565b7f4e487b7100000000000000000000000000000000000000000000000000000000600052603160045260246000fd5b7f4552433732313a20617070726f766520746f2063616c6c657200000000000000600082015250565b6000613fb160198361299f565b9150613fbc82613f7b565b602082019050919050565b60006020820190508181036000830152613fe081613fa4565b9050919050565b7f4552433732313a207472616e7366657220746f206e6f6e20455243373231526560008201527f63656976657220696d706c656d656e7465720000000000000000000000000000602082015250565b600061404360328361299f565b915061404e82613fe7565b604082019050919050565b6000602082019050818103600083015261407281614036565b9050919050565b7f4552433732313a206d696e7420746f20746865207a65726f2061646472657373600082015250565b60006140af60208361299f565b91506140ba82614079565b602082019050919050565b600060208201905081810360008301526140de816140a2565b9050919050565b7f4552433732313a20746f6b656e20616c7265616479206d696e74656400000000600082015250565b600061411b601c8361299f565b9150614126826140e5565b602082019050919050565b6000602082019050818103600083015261414a8161410e565b9050919050565b600081519050919050565b600082825260208201905092915050565b600061417882614151565b614182818561415c565b93506141928185602086016129b0565b61419b816129e3565b840191505092915050565b60006080820190506141bb6000830187612ae4565b6141c86020830186612ae4565b6141d56040830185612b7a565b81810360608301526141e7818461416d565b905095945050505050565b60008151905061420181612905565b92915050565b60006020828403121561421d5761421c6128cf565b5b600061422b848285016141f2565b9150509291505056fea2646970667358221220a89a8f980674e9b380983e946a3a7e07b721e7af25aa8336f2af506dcb56b86a64736f6c634300080f0033",
  "immutableReferences": {},
  "source": "// SPDX-License-Identifier: MIT\npragma solidity ^0.8.0;\n\nimport \"@openzeppelin/contracts/token/ERC721/extensions/ERC721Enumerable.sol\";\n// openzeppelin/contracts     ERC721\nimport \"@openzeppelin/contracts/utils/Counters.sol\";\n// openzeppelin count \n// library .\n\ncontract MintNFT is  ERC721Enumerable {\n    using Counters for Counters.Counter;\n    \n    Counters.Counter private _tokenIds;\n\n    // constructor(string memory _name, string memory _symbol) ERC721(_name, _symbol) {}\n    constructor() ERC721(\"SDD\", \"SDD_symbol\") {}\n    // symbol =   ethereum\n    // name = \n\n    event mymint (address sender, uint tokenId);\n\n    mapping(uint =>string ) public tokenURIs ;\n\n    function tokenURI(uint _tokenId) override public view returns (string memory) {\n        return  tokenURIs[_tokenId] ;\n    }\n\n    function mintNFT( string memory _tokenURI) public  returns (uint256) {\n        _tokenIds.increment();\n\n        uint256 tokenId = _tokenIds.current();\n        tokenURIs[tokenId] = _tokenURI;\n\n        emit mymint(msg.sender, tokenId);\n        _mint(msg.sender, tokenId);\n        // msg.sender  \n        return tokenId;\n    }\n\n    function editNFT( string memory _tokenURI) public returns (uint256) {\n        \n    }\n\n    struct NftTokenData {\n        uint256 nftTokenId;\n        string  nftTokenURI ;\n        uint price ;        \n    }\n    //    \n\n\n// My NFT\n    function getNftTokens(address _nftTokenOwner) view public returns (NftTokenData[] memory) {\n        uint256 balanceLength = balanceOf(_nftTokenOwner);\n        //balanceOf    \n        //require(balanceLength != 0, \"Owner did not have token.\");\n\n        NftTokenData[] memory nftTokenData = new NftTokenData[](balanceLength);\n\n        for(uint256 i = 0; i < balanceLength; i++) {\n            uint256 nftTokenId = tokenOfOwnerByIndex(_nftTokenOwner, i);\n            string memory nftTokenURI = tokenURI(nftTokenId);   \n            uint tokenPrice = getNftTokenPrice(nftTokenId);\n            nftTokenData[i] = NftTokenData(nftTokenId , nftTokenURI, tokenPrice );\n        }\n\n        return nftTokenData;\n\n    }\n\n    // \n    mapping(uint256 => uint256) public nftTokenPrices;\n    uint256[] public onSaleNftTokenArray;\n\n    function setSaleNftToken(uint256 _tokenId, uint256 _price) public {\n        address nftTokenOwner = ownerOf(_tokenId);\n\n        require(nftTokenOwner == msg.sender, \"Caller is not nft token owner.\");\n        require(_price > 0, \"Price is zero or lower.\");\n        require(nftTokenPrices[_tokenId] == 0, \"This nft token is already on sale.\");\n        require(isApprovedForAll(nftTokenOwner, address(this)), \"nft token owner did not approve token.\");\n\n        nftTokenPrices[_tokenId] = _price;\n        onSaleNftTokenArray.push(_tokenId); // nft list\n\n    }\n\n    // \n    function getSaleNftTokens() public view returns (NftTokenData[] memory ){\n        uint[] memory onSaleNftToken = getSaleNftToken();\n        NftTokenData[] memory onSaleNftTokens = new NftTokenData[](onSaleNftToken.length);\n\n        for(uint i = 0; i < onSaleNftToken.length; i ++){\n            uint tokenId = onSaleNftToken[i];\n            uint tokenPrice = getNftTokenPrice(tokenId);\n            onSaleNftTokens[i] = NftTokenData(tokenId, tokenURI(tokenId), tokenPrice) ;\n        }\n\n        return onSaleNftTokens;\n    }\n\n\n    function getSaleNftToken() view public returns (uint[] memory ){\n        return onSaleNftTokenArray ;\n    }\n\n\n    function getNftTokenPrice(uint256 _tokenId) view public returns(uint256){\n        return nftTokenPrices[_tokenId];\n    }\n\n\n    //\n    function buyNftToken(uint256 _tokenId) public payable {\n        uint256 price = nftTokenPrices[_tokenId];\n        address nftTokenOwner = ownerOf(_tokenId);\n\n        require(price > 0, \"nft token not sale.\");\n        require(price  <= msg.value, \"caller sent lower than price.\");\n        require(nftTokenOwner != msg.sender,\"caller is nft token owner.\");\n        require(isApprovedForAll(nftTokenOwner, address(this)), \"nft token owner did not approve token.\");\n\n\n        payable(nftTokenOwner).transfer(msg.value);\n\n        IERC721(address(this)).safeTransferFrom(nftTokenOwner, msg.sender, _tokenId);\n\n\n        //  \n        removeToken(_tokenId);        \n\n    }\n\n    function burn( uint256 _tokenId) public{\n        address addr_owner = ownerOf(_tokenId);\n        require( addr_owner == msg.sender, \"msg.sender is not the owner of the token\");\n        _burn(_tokenId);\n        removeToken(_tokenId);\n    }\n\n\n\n    function removeToken(uint256 _tokenId) private {\n                \n        nftTokenPrices[_tokenId] = 0;\n\n        for(uint256 i = 0; i<onSaleNftTokenArray.length; i ++){\n            if(nftTokenPrices[onSaleNftTokenArray[i]] ==0){\n                onSaleNftTokenArray[i] = onSaleNftTokenArray[onSaleNftTokenArray.length -1] ;\n                onSaleNftTokenArray.pop();\n            }\n        }\n    } \n}\n",
  "sourcePath": "/Users/ieunchong/Desktop/SDD_SmartContract/contracts/MintNFT.sol",
  "compiler": {
    "name": "solc",
    "version": "0.8.15+commit.e14f2714.Emscripten.clang"
  },
  "schemaVersion": "3.4.8",
  "updatedAt": "2022-07-21T05:43:11.149Z",
  "networkType": "ethereum",
  "devdoc": {
    "kind": "dev",
    "methods": {
      "approve(address,uint256)": {
        "details": "See {IERC721-approve}."
      },
      "balanceOf(address)": {
        "details": "See {IERC721-balanceOf}."
      },
      "getApproved(uint256)": {
        "details": "See {IERC721-getApproved}."
      },
      "isApprovedForAll(address,address)": {
        "details": "See {IERC721-isApprovedForAll}."
      },
      "name()": {
        "details": "See {IERC721Metadata-name}."
      },
      "ownerOf(uint256)": {
        "details": "See {IERC721-ownerOf}."
      },
      "safeTransferFrom(address,address,uint256)": {
        "details": "See {IERC721-safeTransferFrom}."
      },
      "safeTransferFrom(address,address,uint256,bytes)": {
        "details": "See {IERC721-safeTransferFrom}."
      },
      "setApprovalForAll(address,bool)": {
        "details": "See {IERC721-setApprovalForAll}."
      },
      "supportsInterface(bytes4)": {
        "details": "See {IERC165-supportsInterface}."
      },
      "symbol()": {
        "details": "See {IERC721Metadata-symbol}."
      },
      "tokenByIndex(uint256)": {
        "details": "See {IERC721Enumerable-tokenByIndex}."
      },
      "tokenOfOwnerByIndex(address,uint256)": {
        "details": "See {IERC721Enumerable-tokenOfOwnerByIndex}."
      },
      "totalSupply()": {
        "details": "See {IERC721Enumerable-totalSupply}."
      },
      "transferFrom(address,address,uint256)": {
        "details": "See {IERC721-transferFrom}."
      }
    },
    "version": 1
  },
  "userdoc": {
    "kind": "user",
    "methods": {},
    "version": 1
  }
}