{
  "contractName": "MintNFT",
  "abi": [
    {
      "inputs": [],
      "stateMutability": "nonpayable",
      "type": "constructor"
    },
    {
      "anonymous": false,
      "inputs": [
        {
          "indexed": true,
          "internalType": "address",
          "name": "owner",
          "type": "address"
        },
        {
          "indexed": true,
          "internalType": "address",
          "name": "approved",
          "type": "address"
        },
        {
          "indexed": true,
          "internalType": "uint256",
          "name": "tokenId",
          "type": "uint256"
        }
      ],
      "name": "Approval",
      "type": "event"
    },
    {
      "anonymous": false,
      "inputs": [
        {
          "indexed": true,
          "internalType": "address",
          "name": "owner",
          "type": "address"
        },
        {
          "indexed": true,
          "internalType": "address",
          "name": "operator",
          "type": "address"
        },
        {
          "indexed": false,
          "internalType": "bool",
          "name": "approved",
          "type": "bool"
        }
      ],
      "name": "ApprovalForAll",
      "type": "event"
    },
    {
      "anonymous": false,
      "inputs": [
        {
          "indexed": true,
          "internalType": "address",
          "name": "from",
          "type": "address"
        },
        {
          "indexed": true,
          "internalType": "address",
          "name": "to",
          "type": "address"
        },
        {
          "indexed": true,
          "internalType": "uint256",
          "name": "tokenId",
          "type": "uint256"
        }
      ],
      "name": "Transfer",
      "type": "event"
    },
    {
      "inputs": [
        {
          "internalType": "address",
          "name": "to",
          "type": "address"
        },
        {
          "internalType": "uint256",
          "name": "tokenId",
          "type": "uint256"
        }
      ],
      "name": "approve",
      "outputs": [],
      "stateMutability": "nonpayable",
      "type": "function"
    },
    {
      "inputs": [
        {
          "internalType": "address",
          "name": "owner",
          "type": "address"
        }
      ],
      "name": "balanceOf",
      "outputs": [
        {
          "internalType": "uint256",
          "name": "",
          "type": "uint256"
        }
      ],
      "stateMutability": "view",
      "type": "function",
      "constant": true
    },
    {
      "inputs": [
        {
          "internalType": "uint256",
          "name": "tokenId",
          "type": "uint256"
        }
      ],
      "name": "getApproved",
      "outputs": [
        {
          "internalType": "address",
          "name": "",
          "type": "address"
        }
      ],
      "stateMutability": "view",
      "type": "function",
      "constant": true
    },
    {
      "inputs": [
        {
          "internalType": "address",
          "name": "owner",
          "type": "address"
        },
        {
          "internalType": "address",
          "name": "operator",
          "type": "address"
        }
      ],
      "name": "isApprovedForAll",
      "outputs": [
        {
          "internalType": "bool",
          "name": "",
          "type": "bool"
        }
      ],
      "stateMutability": "view",
      "type": "function",
      "constant": true
    },
    {
      "inputs": [],
      "name": "name",
      "outputs": [
        {
          "internalType": "string",
          "name": "",
          "type": "string"
        }
      ],
      "stateMutability": "view",
      "type": "function",
      "constant": true
    },
    {
      "inputs": [
        {
          "internalType": "uint256",
          "name": "",
          "type": "uint256"
        }
      ],
      "name": "nftTokenPrices",
      "outputs": [
        {
          "internalType": "uint256",
          "name": "",
          "type": "uint256"
        }
      ],
      "stateMutability": "view",
      "type": "function",
      "constant": true
    },
    {
      "inputs": [
        {
          "internalType": "uint256",
          "name": "",
          "type": "uint256"
        }
      ],
      "name": "onSaleNftTokenArray",
      "outputs": [
        {
          "internalType": "uint256",
          "name": "",
          "type": "uint256"
        }
      ],
      "stateMutability": "view",
      "type": "function",
      "constant": true
    },
    {
      "inputs": [
        {
          "internalType": "uint256",
          "name": "tokenId",
          "type": "uint256"
        }
      ],
      "name": "ownerOf",
      "outputs": [
        {
          "internalType": "address",
          "name": "",
          "type": "address"
        }
      ],
      "stateMutability": "view",
      "type": "function",
      "constant": true
    },
    {
      "inputs": [
        {
          "internalType": "address",
          "name": "from",
          "type": "address"
        },
        {
          "internalType": "address",
          "name": "to",
          "type": "address"
        },
        {
          "internalType": "uint256",
          "name": "tokenId",
          "type": "uint256"
        }
      ],
      "name": "safeTransferFrom",
      "outputs": [],
      "stateMutability": "nonpayable",
      "type": "function"
    },
    {
      "inputs": [
        {
          "internalType": "address",
          "name": "from",
          "type": "address"
        },
        {
          "internalType": "address",
          "name": "to",
          "type": "address"
        },
        {
          "internalType": "uint256",
          "name": "tokenId",
          "type": "uint256"
        },
        {
          "internalType": "bytes",
          "name": "data",
          "type": "bytes"
        }
      ],
      "name": "safeTransferFrom",
      "outputs": [],
      "stateMutability": "nonpayable",
      "type": "function"
    },
    {
      "inputs": [
        {
          "internalType": "address",
          "name": "operator",
          "type": "address"
        },
        {
          "internalType": "bool",
          "name": "approved",
          "type": "bool"
        }
      ],
      "name": "setApprovalForAll",
      "outputs": [],
      "stateMutability": "nonpayable",
      "type": "function"
    },
    {
      "inputs": [
        {
          "internalType": "bytes4",
          "name": "interfaceId",
          "type": "bytes4"
        }
      ],
      "name": "supportsInterface",
      "outputs": [
        {
          "internalType": "bool",
          "name": "",
          "type": "bool"
        }
      ],
      "stateMutability": "view",
      "type": "function",
      "constant": true
    },
    {
      "inputs": [],
      "name": "symbol",
      "outputs": [
        {
          "internalType": "string",
          "name": "",
          "type": "string"
        }
      ],
      "stateMutability": "view",
      "type": "function",
      "constant": true
    },
    {
      "inputs": [
        {
          "internalType": "uint256",
          "name": "index",
          "type": "uint256"
        }
      ],
      "name": "tokenByIndex",
      "outputs": [
        {
          "internalType": "uint256",
          "name": "",
          "type": "uint256"
        }
      ],
      "stateMutability": "view",
      "type": "function",
      "constant": true
    },
    {
      "inputs": [
        {
          "internalType": "address",
          "name": "owner",
          "type": "address"
        },
        {
          "internalType": "uint256",
          "name": "index",
          "type": "uint256"
        }
      ],
      "name": "tokenOfOwnerByIndex",
      "outputs": [
        {
          "internalType": "uint256",
          "name": "",
          "type": "uint256"
        }
      ],
      "stateMutability": "view",
      "type": "function",
      "constant": true
    },
    {
      "inputs": [
        {
          "internalType": "uint256",
          "name": "",
          "type": "uint256"
        }
      ],
      "name": "tokenURIs",
      "outputs": [
        {
          "internalType": "string",
          "name": "",
          "type": "string"
        }
      ],
      "stateMutability": "view",
      "type": "function",
      "constant": true
    },
    {
      "inputs": [],
      "name": "totalSupply",
      "outputs": [
        {
          "internalType": "uint256",
          "name": "",
          "type": "uint256"
        }
      ],
      "stateMutability": "view",
      "type": "function",
      "constant": true
    },
    {
      "inputs": [
        {
          "internalType": "address",
          "name": "from",
          "type": "address"
        },
        {
          "internalType": "address",
          "name": "to",
          "type": "address"
        },
        {
          "internalType": "uint256",
          "name": "tokenId",
          "type": "uint256"
        }
      ],
      "name": "transferFrom",
      "outputs": [],
      "stateMutability": "nonpayable",
      "type": "function"
    },
    {
      "inputs": [
        {
          "internalType": "uint256",
          "name": "_tokenId",
          "type": "uint256"
        }
      ],
      "name": "tokenURI",
      "outputs": [
        {
          "internalType": "string",
          "name": "",
          "type": "string"
        }
      ],
      "stateMutability": "view",
      "type": "function",
      "constant": true
    },
    {
      "inputs": [
        {
          "internalType": "string",
          "name": "_tokenURI",
          "type": "string"
        }
      ],
      "name": "mintNFT",
      "outputs": [
        {
          "internalType": "uint256",
          "name": "",
          "type": "uint256"
        }
      ],
      "stateMutability": "nonpayable",
      "type": "function"
    },
    {
      "inputs": [
        {
          "internalType": "string",
          "name": "_tokenURI",
          "type": "string"
        }
      ],
      "name": "editNFT",
      "outputs": [
        {
          "internalType": "uint256",
          "name": "",
          "type": "uint256"
        }
      ],
      "stateMutability": "nonpayable",
      "type": "function"
    },
    {
      "inputs": [
        {
          "internalType": "address",
          "name": "_nftTokenOwner",
          "type": "address"
        }
      ],
      "name": "getNftTokens",
      "outputs": [
        {
          "components": [
            {
              "internalType": "uint256",
              "name": "nftTokenId",
              "type": "uint256"
            },
            {
              "internalType": "string",
              "name": "nftTokenURI",
              "type": "string"
            },
            {
              "internalType": "uint256",
              "name": "price",
              "type": "uint256"
            }
          ],
          "internalType": "struct MintNFT.NftTokenData[]",
          "name": "",
          "type": "tuple[]"
        }
      ],
      "stateMutability": "view",
      "type": "function",
      "constant": true
    },
    {
      "inputs": [
        {
          "internalType": "uint256",
          "name": "_tokenId",
          "type": "uint256"
        },
        {
          "internalType": "uint256",
          "name": "_price",
          "type": "uint256"
        }
      ],
      "name": "setSaleNftToken",
      "outputs": [],
      "stateMutability": "nonpayable",
      "type": "function"
    },
    {
      "inputs": [],
      "name": "getSaleNftTokens",
      "outputs": [
        {
          "components": [
            {
              "internalType": "uint256",
              "name": "nftTokenId",
              "type": "uint256"
            },
            {
              "internalType": "string",
              "name": "nftTokenURI",
              "type": "string"
            },
            {
              "internalType": "uint256",
              "name": "price",
              "type": "uint256"
            }
          ],
          "internalType": "struct MintNFT.NftTokenData[]",
          "name": "",
          "type": "tuple[]"
        }
      ],
      "stateMutability": "view",
      "type": "function",
      "constant": true
    },
    {
      "inputs": [],
      "name": "getSaleNftToken",
      "outputs": [
        {
          "internalType": "uint256[]",
          "name": "",
          "type": "uint256[]"
        }
      ],
      "stateMutability": "view",
      "type": "function",
      "constant": true
    },
    {
      "inputs": [
        {
          "internalType": "uint256",
          "name": "_tokenId",
          "type": "uint256"
        }
      ],
      "name": "getNftTokenPrice",
      "outputs": [
        {
          "internalType": "uint256",
          "name": "",
          "type": "uint256"
        }
      ],
      "stateMutability": "view",
      "type": "function",
      "constant": true
    },
    {
      "inputs": [
        {
          "internalType": "uint256",
          "name": "_tokenId",
          "type": "uint256"
        }
      ],
      "name": "buyNftToken",
      "outputs": [],
      "stateMutability": "payable",
      "type": "function",
      "payable": true
    },
    {
      "inputs": [
        {
          "internalType": "uint256",
          "name": "_tokenId",
          "type": "uint256"
        }
      ],
      "name": "burn",
      "outputs": [],
      "stateMutability": "nonpayable",
      "type": "function"
    }
  ],
  "bytecode": "0x60806040523480156200001157600080fd5b506040518060400160405280600381526020017f53444400000000000000000000000000000000000000000000000000000000008152506040518060400160405280600a81526020017f5344445f73796d626f6c0000000000000000000000000000000000000000000081525081600090816200008f919062000324565b508060019081620000a1919062000324565b5050506200040b565b600081519050919050565b7f4e487b7100000000000000000000000000000000000000000000000000000000600052604160045260246000fd5b7f4e487b7100000000000000000000000000000000000000000000000000000000600052602260045260246000fd5b600060028204905060018216806200012c57607f821691505b602082108103620001425762000141620000e4565b5b50919050565b60008190508160005260206000209050919050565b60006020601f8301049050919050565b600082821b905092915050565b600060088302620001ac7fffffffffffffffffffffffffffffffffffffffffffffffffffffffffffffffff826200016d565b620001b886836200016d565b95508019841693508086168417925050509392505050565b6000819050919050565b6000819050919050565b600062000205620001ff620001f984620001d0565b620001da565b620001d0565b9050919050565b6000819050919050565b6200022183620001e4565b6200023962000230826200020c565b8484546200017a565b825550505050565b600090565b6200025062000241565b6200025d81848462000216565b505050565b5b8181101562000285576200027960008262000246565b60018101905062000263565b5050565b601f821115620002d4576200029e8162000148565b620002a9846200015d565b81016020851015620002b9578190505b620002d1620002c8856200015d565b83018262000262565b50505b505050565b600082821c905092915050565b6000620002f960001984600802620002d9565b1980831691505092915050565b6000620003148383620002e6565b9150826002028217905092915050565b6200032f82620000aa565b67ffffffffffffffff8111156200034b576200034a620000b5565b5b62000357825462000113565b6200036482828562000289565b600060209050601f8311600181146200039c576000841562000387578287015190505b62000393858262000306565b86555062000403565b601f198416620003ac8662000148565b60005b82811015620003d657848901518255600182019150602085019450602081019050620003af565b86831015620003f65784890151620003f2601f891682620002e6565b8355505b6001600288020188555050505b505050505050565b614208806200041b6000396000f3fe6080604052600436106101b75760003560e01c806370a08231116100ec578063b88d4fde1161008a578063da8cc6e811610064578063da8cc6e81461068e578063e985e9c5146106aa578063f257f548146106e7578063fb37e88314610724576101b7565b8063b88d4fde146105ff578063b8e297f414610628578063c87b56dd14610651576101b7565b8063879a6024116100c6578063879a602414610531578063912c45cf1461056e57806395d89b41146105ab578063a22cb465146105d6576101b7565b806370a082311461048c57806373e778c5146104c957806374a6b54f14610506576101b7565b80632f745c59116101595780634ae23e64116101335780634ae23e64146103985780634f6ccce7146103d55780636352211e146104125780636c8b703f1461044f576101b7565b80632f745c591461030957806342842e0e1461034657806342966c681461036f576101b7565b8063095ea7b311610195578063095ea7b31461026157806318160ddd1461028a5780631efceb90146102b557806323b872dd146102e0576101b7565b806301ffc9a7146101bc57806306fdde03146101f9578063081812fc14610224575b600080fd5b3480156101c857600080fd5b506101e360048036038101906101de91906128f8565b610761565b6040516101f09190612940565b60405180910390f35b34801561020557600080fd5b5061020e6107db565b60405161021b91906129f4565b60405180910390f35b34801561023057600080fd5b5061024b60048036038101906102469190612a4c565b61086d565b6040516102589190612aba565b60405180910390f35b34801561026d57600080fd5b5061028860048036038101906102839190612b01565b6108b3565b005b34801561029657600080fd5b5061029f6109ca565b6040516102ac9190612b50565b60405180910390f35b3480156102c157600080fd5b506102ca6109d7565b6040516102d79190612c29565b60405180910390f35b3480156102ec57600080fd5b5061030760048036038101906103029190612c4b565b610a2f565b005b34801561031557600080fd5b50610330600480360381019061032b9190612b01565b610a8f565b60405161033d9190612b50565b60405180910390f35b34801561035257600080fd5b5061036d60048036038101906103689190612c4b565b610b34565b005b34801561037b57600080fd5b5061039660048036038101906103919190612a4c565b610b54565b005b3480156103a457600080fd5b506103bf60048036038101906103ba9190612a4c565b610be5565b6040516103cc9190612b50565b60405180910390f35b3480156103e157600080fd5b506103fc60048036038101906103f79190612a4c565b610bfd565b6040516104099190612b50565b60405180910390f35b34801561041e57600080fd5b5061043960048036038101906104349190612a4c565b610c6e565b6040516104469190612aba565b60405180910390f35b34801561045b57600080fd5b5061047660048036038101906104719190612a4c565b610d1f565b60405161048391906129f4565b60405180910390f35b34801561049857600080fd5b506104b360048036038101906104ae9190612c9e565b610dbf565b6040516104c09190612b50565b60405180910390f35b3480156104d557600080fd5b506104f060048036038101906104eb9190612a4c565b610e76565b6040516104fd9190612b50565b60405180910390f35b34801561051257600080fd5b5061051b610e9a565b6040516105289190612e27565b60405180910390f35b34801561053d57600080fd5b5061055860048036038101906105539190612f7e565b610f98565b6040516105659190612b50565b60405180910390f35b34801561057a57600080fd5b5061059560048036038101906105909190612a4c565b610f9f565b6040516105a29190612b50565b60405180910390f35b3480156105b757600080fd5b506105c0610fbc565b6040516105cd91906129f4565b60405180910390f35b3480156105e257600080fd5b506105fd60048036038101906105f89190612ff3565b61104e565b005b34801561060b57600080fd5b50610626600480360381019061062191906130d4565b611064565b005b34801561063457600080fd5b5061064f600480360381019061064a9190613157565b6110c6565b005b34801561065d57600080fd5b5061067860048036038101906106739190612a4c565b611269565b60405161068591906129f4565b60405180910390f35b6106a860048036038101906106a39190612a4c565b61130e565b005b3480156106b657600080fd5b506106d160048036038101906106cc9190613197565b611534565b6040516106de9190612940565b60405180910390f35b3480156106f357600080fd5b5061070e60048036038101906107099190612c9e565b6115c8565b60405161071b9190612e27565b60405180910390f35b34801561073057600080fd5b5061074b60048036038101906107469190612f7e565b6116bc565b6040516107589190612b50565b60405180910390f35b60007f780e9d63000000000000000000000000000000000000000000000000000000007bffffffffffffffffffffffffffffffffffffffffffffffffffffffff1916827bffffffffffffffffffffffffffffffffffffffffffffffffffffffff191614806107d457506107d38261170a565b5b9050919050565b6060600080546107ea90613206565b80601f016020809104026020016040519081016040528092919081815260200182805461081690613206565b80156108635780601f1061083857610100808354040283529160200191610863565b820191906000526020600020905b81548152906001019060200180831161084657829003601f168201915b5050505050905090565b6000610878826117ec565b6004600083815260200190815260200160002060009054906101000a900473ffffffffffffffffffffffffffffffffffffffff169050919050565b60006108be82610c6e565b90508073ffffffffffffffffffffffffffffffffffffffff168373ffffffffffffffffffffffffffffffffffffffff160361092e576040517f08c379a0000000000000000000000000000000000000000000000000000000008152600401610925906132a9565b60405180910390fd5b8073ffffffffffffffffffffffffffffffffffffffff1661094d611837565b73ffffffffffffffffffffffffffffffffffffffff16148061097c575061097b81610976611837565b611534565b5b6109bb576040517f08c379a00000000000000000000000000000000000000000000000000000000081526004016109b29061333b565b60405180910390fd5b6109c5838361183f565b505050565b6000600880549050905090565b6060600d805480602002602001604051908101604052809291908181526020018280548015610a2557602002820191906000526020600020905b815481526020019060010190808311610a11575b5050505050905090565b610a40610a3a611837565b826118f8565b610a7f576040517f08c379a0000000000000000000000000000000000000000000000000000000008152600401610a76906133cd565b60405180910390fd5b610a8a83838361198d565b505050565b6000610a9a83610dbf565b8210610adb576040517f08c379a0000000000000000000000000000000000000000000000000000000008152600401610ad29061345f565b60405180910390fd5b600660008473ffffffffffffffffffffffffffffffffffffffff1673ffffffffffffffffffffffffffffffffffffffff168152602001908152602001600020600083815260200190815260200160002054905092915050565b610b4f83838360405180602001604052806000815250611064565b505050565b6000610b5f82610c6e565b90503373ffffffffffffffffffffffffffffffffffffffff168173ffffffffffffffffffffffffffffffffffffffff1614610bcf576040517f08c379a0000000000000000000000000000000000000000000000000000000008152600401610bc6906134f1565b60405180910390fd5b610bd882611bf3565b610be182611d10565b5050565b600c6020528060005260406000206000915090505481565b6000610c076109ca565b8210610c48576040517f08c379a0000000000000000000000000000000000000000000000000000000008152600401610c3f90613583565b60405180910390fd5b60088281548110610c5c57610c5b6135a3565b5b90600052602060002001549050919050565b6000806002600084815260200190815260200160002060009054906101000a900473ffffffffffffffffffffffffffffffffffffffff169050600073ffffffffffffffffffffffffffffffffffffffff168173ffffffffffffffffffffffffffffffffffffffff1603610d16576040517f08c379a0000000000000000000000000000000000000000000000000000000008152600401610d0d9061361e565b60405180910390fd5b80915050919050565b600b6020528060005260406000206000915090508054610d3e90613206565b80601f0160208091040260200160405190810160405280929190818152602001828054610d6a90613206565b8015610db75780601f10610d8c57610100808354040283529160200191610db7565b820191906000526020600020905b815481529060010190602001808311610d9a57829003601f168201915b505050505081565b60008073ffffffffffffffffffffffffffffffffffffffff168273ffffffffffffffffffffffffffffffffffffffff1603610e2f576040517f08c379a0000000000000000000000000000000000000000000000000000000008152600401610e26906136b0565b60405180910390fd5b600360008373ffffffffffffffffffffffffffffffffffffffff1673ffffffffffffffffffffffffffffffffffffffff168152602001908152602001600020549050919050565b600d8181548110610e8657600080fd5b906000526020600020016000915090505481565b60606000610ea66109d7565b90506000815167ffffffffffffffff811115610ec557610ec4612e53565b5b604051908082528060200260200182016040528015610efe57816020015b610eeb61286b565b815260200190600190039081610ee35790505b50905060005b8251811015610f8f576000838281518110610f2257610f216135a3565b5b602002602001015190506000610f3782610f9f565b90506040518060600160405280838152602001610f5384611269565b815260200182815250848481518110610f6f57610f6e6135a3565b5b602002602001018190525050508080610f87906136ff565b915050610f04565b50809250505090565b6000919050565b6000600c6000838152602001908152602001600020549050919050565b606060018054610fcb90613206565b80601f0160208091040260200160405190810160405280929190818152602001828054610ff790613206565b80156110445780601f1061101957610100808354040283529160200191611044565b820191906000526020600020905b81548152906001019060200180831161102757829003601f168201915b5050505050905090565b611060611059611837565b8383611e04565b5050565b61107561106f611837565b836118f8565b6110b4576040517f08c379a00000000000000000000000000000000000000000000000000000000081526004016110ab906133cd565b60405180910390fd5b6110c084848484611f70565b50505050565b60006110d183610c6e565b90503373ffffffffffffffffffffffffffffffffffffffff168173ffffffffffffffffffffffffffffffffffffffff1614611141576040517f08c379a000000000000000000000000000000000000000000000000000000000815260040161113890613793565b60405180910390fd5b60008211611184576040517f08c379a000000000000000000000000000000000000000000000000000000000815260040161117b906137ff565b60405180910390fd5b6000600c600085815260200190815260200160002054146111da576040517f08c379a00000000000000000000000000000000000000000000000000000000081526004016111d190613891565b60405180910390fd5b6111e48130611534565b611223576040517f08c379a000000000000000000000000000000000000000000000000000000000815260040161121a90613923565b60405180910390fd5b81600c600085815260200190815260200160002081905550600d839080600181540180825580915050600190039060005260206000200160009091909190915055505050565b6060600b6000838152602001908152602001600020805461128990613206565b80601f01602080910402602001604051908101604052809291908181526020018280546112b590613206565b80156113025780601f106112d757610100808354040283529160200191611302565b820191906000526020600020905b8154815290600101906020018083116112e557829003601f168201915b50505050509050919050565b6000600c6000838152602001908152602001600020549050600061133183610c6e565b905060008211611376576040517f08c379a000000000000000000000000000000000000000000000000000000000815260040161136d9061398f565b60405180910390fd5b348211156113b9576040517f08c379a00000000000000000000000000000000000000000000000000000000081526004016113b0906139fb565b60405180910390fd5b3373ffffffffffffffffffffffffffffffffffffffff168173ffffffffffffffffffffffffffffffffffffffff1603611427576040517f08c379a000000000000000000000000000000000000000000000000000000000815260040161141e90613a67565b60405180910390fd5b6114318130611534565b611470576040517f08c379a000000000000000000000000000000000000000000000000000000000815260040161146790613923565b60405180910390fd5b8073ffffffffffffffffffffffffffffffffffffffff166108fc349081150290604051600060405180830381858888f193505050501580156114b6573d6000803e3d6000fd5b503073ffffffffffffffffffffffffffffffffffffffff166342842e0e8233866040518463ffffffff1660e01b81526004016114f493929190613a87565b600060405180830381600087803b15801561150e57600080fd5b505af1158015611522573d6000803e3d6000fd5b5050505061152f83611d10565b505050565b6000600560008473ffffffffffffffffffffffffffffffffffffffff1673ffffffffffffffffffffffffffffffffffffffff16815260200190815260200160002060008373ffffffffffffffffffffffffffffffffffffffff1673ffffffffffffffffffffffffffffffffffffffff16815260200190815260200160002060009054906101000a900460ff16905092915050565b606060006115d583610dbf565b905060008167ffffffffffffffff8111156115f3576115f2612e53565b5b60405190808252806020026020018201604052801561162c57816020015b61161961286b565b8152602001906001900390816116115790505b50905060005b828110156116b15760006116468683610a8f565b9050600061165382611269565b9050600061166083610f9f565b90506040518060600160405280848152602001838152602001828152508585815181106116905761168f6135a3565b5b602002602001018190525050505080806116a9906136ff565b915050611632565b508092505050919050565b60006116c8600a611fcc565b60006116d4600a611fe2565b905082600b600083815260200190815260200160002090816116f69190613c6a565b506117013382611ff0565b80915050919050565b60007f80ac58cd000000000000000000000000000000000000000000000000000000007bffffffffffffffffffffffffffffffffffffffffffffffffffffffff1916827bffffffffffffffffffffffffffffffffffffffffffffffffffffffff191614806117d557507f5b5e139f000000000000000000000000000000000000000000000000000000007bffffffffffffffffffffffffffffffffffffffffffffffffffffffff1916827bffffffffffffffffffffffffffffffffffffffffffffffffffffffff1916145b806117e557506117e4826121c9565b5b9050919050565b6117f581612233565b611834576040517f08c379a000000000000000000000000000000000000000000000000000000000815260040161182b9061361e565b60405180910390fd5b50565b600033905090565b816004600083815260200190815260200160002060006101000a81548173ffffffffffffffffffffffffffffffffffffffff021916908373ffffffffffffffffffffffffffffffffffffffff160217905550808273ffffffffffffffffffffffffffffffffffffffff166118b283610c6e565b73ffffffffffffffffffffffffffffffffffffffff167f8c5be1e5ebec7d5bd14f71427d1e84f3dd0314c0f7b2291e5b200ac8c7c3b92560405160405180910390a45050565b60008061190483610c6e565b90508073ffffffffffffffffffffffffffffffffffffffff168473ffffffffffffffffffffffffffffffffffffffff16148061194657506119458185611534565b5b8061198457508373ffffffffffffffffffffffffffffffffffffffff1661196c8461086d565b73ffffffffffffffffffffffffffffffffffffffff16145b91505092915050565b8273ffffffffffffffffffffffffffffffffffffffff166119ad82610c6e565b73ffffffffffffffffffffffffffffffffffffffff1614611a03576040517f08c379a00000000000000000000000000000000000000000000000000000000081526004016119fa90613dae565b60405180910390fd5b600073ffffffffffffffffffffffffffffffffffffffff168273ffffffffffffffffffffffffffffffffffffffff1603611a72576040517f08c379a0000000000000000000000000000000000000000000000000000000008152600401611a6990613e40565b60405180910390fd5b611a7d83838361229f565b611a8860008261183f565b6001600360008573ffffffffffffffffffffffffffffffffffffffff1673ffffffffffffffffffffffffffffffffffffffff1681526020019081526020016000206000828254611ad89190613e60565b925050819055506001600360008473ffffffffffffffffffffffffffffffffffffffff1673ffffffffffffffffffffffffffffffffffffffff1681526020019081526020016000206000828254611b2f9190613e94565b92505081905550816002600083815260200190815260200160002060006101000a81548173ffffffffffffffffffffffffffffffffffffffff021916908373ffffffffffffffffffffffffffffffffffffffff160217905550808273ffffffffffffffffffffffffffffffffffffffff168473ffffffffffffffffffffffffffffffffffffffff167fddf252ad1be2c89b69c2b068fc378daa952ba7f163c4a11628f55a4df523b3ef60405160405180910390a4611bee8383836123b1565b505050565b6000611bfe82610c6e565b9050611c0c8160008461229f565b611c1760008361183f565b6001600360008373ffffffffffffffffffffffffffffffffffffffff1673ffffffffffffffffffffffffffffffffffffffff1681526020019081526020016000206000828254611c679190613e60565b925050819055506002600083815260200190815260200160002060006101000a81549073ffffffffffffffffffffffffffffffffffffffff021916905581600073ffffffffffffffffffffffffffffffffffffffff168273ffffffffffffffffffffffffffffffffffffffff167fddf252ad1be2c89b69c2b068fc378daa952ba7f163c4a11628f55a4df523b3ef60405160405180910390a4611d0c816000846123b1565b5050565b6000600c60008381526020019081526020016000208190555060005b600d80549050811015611e00576000600c6000600d8481548110611d5357611d526135a3565b5b906000526020600020015481526020019081526020016000205403611ded57600d6001600d80549050611d869190613e60565b81548110611d9757611d966135a3565b5b9060005260206000200154600d8281548110611db657611db56135a3565b5b9060005260206000200181905550600d805480611dd657611dd5613eea565b5b600190038181906000526020600020016000905590555b8080611df8906136ff565b915050611d2c565b5050565b8173ffffffffffffffffffffffffffffffffffffffff168373ffffffffffffffffffffffffffffffffffffffff1603611e72576040517f08c379a0000000000000000000000000000000000000000000000000000000008152600401611e6990613f65565b60405180910390fd5b80600560008573ffffffffffffffffffffffffffffffffffffffff1673ffffffffffffffffffffffffffffffffffffffff16815260200190815260200160002060008473ffffffffffffffffffffffffffffffffffffffff1673ffffffffffffffffffffffffffffffffffffffff16815260200190815260200160002060006101000a81548160ff0219169083151502179055508173ffffffffffffffffffffffffffffffffffffffff168373ffffffffffffffffffffffffffffffffffffffff167f17307eab39ab6107e8899845ad3d59bd9653f200f220920489ca2b5937696c3183604051611f639190612940565b60405180910390a3505050565b611f7b84848461198d565b611f87848484846123b6565b611fc6576040517f08c379a0000000000000000000000000000000000000000000000000000000008152600401611fbd90613ff7565b60405180910390fd5b50505050565b6001816000016000828254019250508190555050565b600081600001549050919050565b600073ffffffffffffffffffffffffffffffffffffffff168273ffffffffffffffffffffffffffffffffffffffff160361205f576040517f08c379a000000000000000000000000000000000000000000000000000000000815260040161205690614063565b60405180910390fd5b61206881612233565b156120a8576040517f08c379a000000000000000000000000000000000000000000000000000000000815260040161209f906140cf565b60405180910390fd5b6120b46000838361229f565b6001600360008473ffffffffffffffffffffffffffffffffffffffff1673ffffffffffffffffffffffffffffffffffffffff16815260200190815260200160002060008282546121049190613e94565b92505081905550816002600083815260200190815260200160002060006101000a81548173ffffffffffffffffffffffffffffffffffffffff021916908373ffffffffffffffffffffffffffffffffffffffff160217905550808273ffffffffffffffffffffffffffffffffffffffff16600073ffffffffffffffffffffffffffffffffffffffff167fddf252ad1be2c89b69c2b068fc378daa952ba7f163c4a11628f55a4df523b3ef60405160405180910390a46121c5600083836123b1565b5050565b60007f01ffc9a7000000000000000000000000000000000000000000000000000000007bffffffffffffffffffffffffffffffffffffffffffffffffffffffff1916827bffffffffffffffffffffffffffffffffffffffffffffffffffffffff1916149050919050565b60008073ffffffffffffffffffffffffffffffffffffffff166002600084815260200190815260200160002060009054906101000a900473ffffffffffffffffffffffffffffffffffffffff1673ffffffffffffffffffffffffffffffffffffffff1614159050919050565b6122aa83838361253d565b600073ffffffffffffffffffffffffffffffffffffffff168373ffffffffffffffffffffffffffffffffffffffff16036122ec576122e781612542565b61232b565b8173ffffffffffffffffffffffffffffffffffffffff168373ffffffffffffffffffffffffffffffffffffffff161461232a57612329838261258b565b5b5b600073ffffffffffffffffffffffffffffffffffffffff168273ffffffffffffffffffffffffffffffffffffffff160361236d57612368816126f8565b6123ac565b8273ffffffffffffffffffffffffffffffffffffffff168273ffffffffffffffffffffffffffffffffffffffff16146123ab576123aa82826127c9565b5b5b505050565b505050565b60006123d78473ffffffffffffffffffffffffffffffffffffffff16612848565b15612530578373ffffffffffffffffffffffffffffffffffffffff1663150b7a02612400611837565b8786866040518563ffffffff1660e01b81526004016124229493929190614144565b6020604051808303816000875af192505050801561245e57506040513d601f19601f8201168201806040525081019061245b91906141a5565b60015b6124e0573d806000811461248e576040519150601f19603f3d011682016040523d82523d6000602084013e612493565b606091505b5060008151036124d8576040517f08c379a00000000000000000000000000000000000000000000000000000000081526004016124cf90613ff7565b60405180910390fd5b805181602001fd5b63150b7a0260e01b7bffffffffffffffffffffffffffffffffffffffffffffffffffffffff1916817bffffffffffffffffffffffffffffffffffffffffffffffffffffffff191614915050612535565b600190505b949350505050565b505050565b6008805490506009600083815260200190815260200160002081905550600881908060018154018082558091505060019003906000526020600020016000909190919091505550565b6000600161259884610dbf565b6125a29190613e60565b9050600060076000848152602001908152602001600020549050818114612687576000600660008673ffffffffffffffffffffffffffffffffffffffff1673ffffffffffffffffffffffffffffffffffffffff168152602001908152602001600020600084815260200190815260200160002054905080600660008773ffffffffffffffffffffffffffffffffffffffff1673ffffffffffffffffffffffffffffffffffffffff168152602001908152602001600020600084815260200190815260200160002081905550816007600083815260200190815260200160002081905550505b6007600084815260200190815260200160002060009055600660008573ffffffffffffffffffffffffffffffffffffffff1673ffffffffffffffffffffffffffffffffffffffff16815260200190815260200160002060008381526020019081526020016000206000905550505050565b6000600160088054905061270c9190613e60565b905060006009600084815260200190815260200160002054905060006008838154811061273c5761273b6135a3565b5b90600052602060002001549050806008838154811061275e5761275d6135a3565b5b9060005260206000200181905550816009600083815260200190815260200160002081905550600960008581526020019081526020016000206000905560088054806127ad576127ac613eea565b5b6001900381819060005260206000200160009055905550505050565b60006127d483610dbf565b905081600660008573ffffffffffffffffffffffffffffffffffffffff1673ffffffffffffffffffffffffffffffffffffffff168152602001908152602001600020600083815260200190815260200160002081905550806007600084815260200190815260200160002081905550505050565b6000808273ffffffffffffffffffffffffffffffffffffffff163b119050919050565b60405180606001604052806000815260200160608152602001600081525090565b6000604051905090565b600080fd5b600080fd5b60007fffffffff0000000000000000000000000000000000000000000000000000000082169050919050565b6128d5816128a0565b81146128e057600080fd5b50565b6000813590506128f2816128cc565b92915050565b60006020828403121561290e5761290d612896565b5b600061291c848285016128e3565b91505092915050565b60008115159050919050565b61293a81612925565b82525050565b60006020820190506129556000830184612931565b92915050565b600081519050919050565b600082825260208201905092915050565b60005b8381101561299557808201518184015260208101905061297a565b838111156129a4576000848401525b50505050565b6000601f19601f8301169050919050565b60006129c68261295b565b6129d08185612966565b93506129e0818560208601612977565b6129e9816129aa565b840191505092915050565b60006020820190508181036000830152612a0e81846129bb565b905092915050565b6000819050919050565b612a2981612a16565b8114612a3457600080fd5b50565b600081359050612a4681612a20565b92915050565b600060208284031215612a6257612a61612896565b5b6000612a7084828501612a37565b91505092915050565b600073ffffffffffffffffffffffffffffffffffffffff82169050919050565b6000612aa482612a79565b9050919050565b612ab481612a99565b82525050565b6000602082019050612acf6000830184612aab565b92915050565b612ade81612a99565b8114612ae957600080fd5b50565b600081359050612afb81612ad5565b92915050565b60008060408385031215612b1857612b17612896565b5b6000612b2685828601612aec565b9250506020612b3785828601612a37565b9150509250929050565b612b4a81612a16565b82525050565b6000602082019050612b656000830184612b41565b92915050565b600081519050919050565b600082825260208201905092915050565b6000819050602082019050919050565b612ba081612a16565b82525050565b6000612bb28383612b97565b60208301905092915050565b6000602082019050919050565b6000612bd682612b6b565b612be08185612b76565b9350612beb83612b87565b8060005b83811015612c1c578151612c038882612ba6565b9750612c0e83612bbe565b925050600181019050612bef565b5085935050505092915050565b60006020820190508181036000830152612c438184612bcb565b905092915050565b600080600060608486031215612c6457612c63612896565b5b6000612c7286828701612aec565b9350506020612c8386828701612aec565b9250506040612c9486828701612a37565b9150509250925092565b600060208284031215612cb457612cb3612896565b5b6000612cc284828501612aec565b91505092915050565b600081519050919050565b600082825260208201905092915050565b6000819050602082019050919050565b600082825260208201905092915050565b6000612d138261295b565b612d1d8185612cf7565b9350612d2d818560208601612977565b612d36816129aa565b840191505092915050565b6000606083016000830151612d596000860182612b97565b5060208301518482036020860152612d718282612d08565b9150506040830151612d866040860182612b97565b508091505092915050565b6000612d9d8383612d41565b905092915050565b6000602082019050919050565b6000612dbd82612ccb565b612dc78185612cd6565b935083602082028501612dd985612ce7565b8060005b85811015612e155784840389528151612df68582612d91565b9450612e0183612da5565b925060208a01995050600181019050612ddd565b50829750879550505050505092915050565b60006020820190508181036000830152612e418184612db2565b905092915050565b600080fd5b600080fd5b7f4e487b7100000000000000000000000000000000000000000000000000000000600052604160045260246000fd5b612e8b826129aa565b810181811067ffffffffffffffff82111715612eaa57612ea9612e53565b5b80604052505050565b6000612ebd61288c565b9050612ec98282612e82565b919050565b600067ffffffffffffffff821115612ee957612ee8612e53565b5b612ef2826129aa565b9050602081019050919050565b82818337600083830152505050565b6000612f21612f1c84612ece565b612eb3565b905082815260208101848484011115612f3d57612f3c612e4e565b5b612f48848285612eff565b509392505050565b600082601f830112612f6557612f64612e49565b5b8135612f75848260208601612f0e565b91505092915050565b600060208284031215612f9457612f93612896565b5b600082013567ffffffffffffffff811115612fb257612fb161289b565b5b612fbe84828501612f50565b91505092915050565b612fd081612925565b8114612fdb57600080fd5b50565b600081359050612fed81612fc7565b92915050565b6000806040838503121561300a57613009612896565b5b600061301885828601612aec565b925050602061302985828601612fde565b9150509250929050565b600067ffffffffffffffff82111561304e5761304d612e53565b5b613057826129aa565b9050602081019050919050565b600061307761307284613033565b612eb3565b90508281526020810184848401111561309357613092612e4e565b5b61309e848285612eff565b509392505050565b600082601f8301126130bb576130ba612e49565b5b81356130cb848260208601613064565b91505092915050565b600080600080608085870312156130ee576130ed612896565b5b60006130fc87828801612aec565b945050602061310d87828801612aec565b935050604061311e87828801612a37565b925050606085013567ffffffffffffffff81111561313f5761313e61289b565b5b61314b878288016130a6565b91505092959194509250565b6000806040838503121561316e5761316d612896565b5b600061317c85828601612a37565b925050602061318d85828601612a37565b9150509250929050565b600080604083850312156131ae576131ad612896565b5b60006131bc85828601612aec565b92505060206131cd85828601612aec565b9150509250929050565b7f4e487b7100000000000000000000000000000000000000000000000000000000600052602260045260246000fd5b6000600282049050600182168061321e57607f821691505b602082108103613231576132306131d7565b5b50919050565b7f4552433732313a20617070726f76616c20746f2063757272656e74206f776e6560008201527f7200000000000000000000000000000000000000000000000000000000000000602082015250565b6000613293602183612966565b915061329e82613237565b604082019050919050565b600060208201905081810360008301526132c281613286565b9050919050565b7f4552433732313a20617070726f76652063616c6c6572206973206e6f7420746f60008201527f6b656e206f776e6572206e6f7220617070726f76656420666f7220616c6c0000602082015250565b6000613325603e83612966565b9150613330826132c9565b604082019050919050565b6000602082019050818103600083015261335481613318565b9050919050565b7f4552433732313a2063616c6c6572206973206e6f7420746f6b656e206f776e6560008201527f72206e6f7220617070726f766564000000000000000000000000000000000000602082015250565b60006133b7602e83612966565b91506133c28261335b565b604082019050919050565b600060208201905081810360008301526133e6816133aa565b9050919050565b7f455243373231456e756d657261626c653a206f776e657220696e646578206f7560008201527f74206f6620626f756e6473000000000000000000000000000000000000000000602082015250565b6000613449602b83612966565b9150613454826133ed565b604082019050919050565b600060208201905081810360008301526134788161343c565b9050919050565b7f6d73672e73656e646572206973206e6f7420746865206f776e6572206f66207460008201527f686520746f6b656e000000000000000000000000000000000000000000000000602082015250565b60006134db602883612966565b91506134e68261347f565b604082019050919050565b6000602082019050818103600083015261350a816134ce565b9050919050565b7f455243373231456e756d657261626c653a20676c6f62616c20696e646578206f60008201527f7574206f6620626f756e64730000000000000000000000000000000000000000602082015250565b600061356d602c83612966565b915061357882613511565b604082019050919050565b6000602082019050818103600083015261359c81613560565b9050919050565b7f4e487b7100000000000000000000000000000000000000000000000000000000600052603260045260246000fd5b7f4552433732313a20696e76616c696420746f6b656e2049440000000000000000600082015250565b6000613608601883612966565b9150613613826135d2565b602082019050919050565b60006020820190508181036000830152613637816135fb565b9050919050565b7f4552433732313a2061646472657373207a65726f206973206e6f74206120766160008201527f6c6964206f776e65720000000000000000000000000000000000000000000000602082015250565b600061369a602983612966565b91506136a58261363e565b604082019050919050565b600060208201905081810360008301526136c98161368d565b9050919050565b7f4e487b7100000000000000000000000000000000000000000000000000000000600052601160045260246000fd5b600061370a82612a16565b91507fffffffffffffffffffffffffffffffffffffffffffffffffffffffffffffffff820361373c5761373b6136d0565b5b600182019050919050565b7f43616c6c6572206973206e6f74206e667420746f6b656e206f776e65722e0000600082015250565b600061377d601e83612966565b915061378882613747565b602082019050919050565b600060208201905081810360008301526137ac81613770565b9050919050565b7f5072696365206973207a65726f206f72206c6f7765722e000000000000000000600082015250565b60006137e9601783612966565b91506137f4826137b3565b602082019050919050565b60006020820190508181036000830152613818816137dc565b9050919050565b7f54686973206e667420746f6b656e20697320616c7265616479206f6e2073616c60008201527f652e000000000000000000000000000000000000000000000000000000000000602082015250565b600061387b602283612966565b91506138868261381f565b604082019050919050565b600060208201905081810360008301526138aa8161386e565b9050919050565b7f6e667420746f6b656e206f776e657220646964206e6f7420617070726f76652060008201527f746f6b656e2e0000000000000000000000000000000000000000000000000000602082015250565b600061390d602683612966565b9150613918826138b1565b604082019050919050565b6000602082019050818103600083015261393c81613900565b9050919050565b7f6e667420746f6b656e206e6f742073616c652e00000000000000000000000000600082015250565b6000613979601383612966565b915061398482613943565b602082019050919050565b600060208201905081810360008301526139a88161396c565b9050919050565b7f63616c6c65722073656e74206c6f776572207468616e2070726963652e000000600082015250565b60006139e5601d83612966565b91506139f0826139af565b602082019050919050565b60006020820190508181036000830152613a14816139d8565b9050919050565b7f63616c6c6572206973206e667420746f6b656e206f776e65722e000000000000600082015250565b6000613a51601a83612966565b9150613a5c82613a1b565b602082019050919050565b60006020820190508181036000830152613a8081613a44565b9050919050565b6000606082019050613a9c6000830186612aab565b613aa96020830185612aab565b613ab66040830184612b41565b949350505050565b60008190508160005260206000209050919050565b60006020601f8301049050919050565b600082821b905092915050565b600060088302613b207fffffffffffffffffffffffffffffffffffffffffffffffffffffffffffffffff82613ae3565b613b2a8683613ae3565b95508019841693508086168417925050509392505050565b6000819050919050565b6000613b67613b62613b5d84612a16565b613b42565b612a16565b9050919050565b6000819050919050565b613b8183613b4c565b613b95613b8d82613b6e565b848454613af0565b825550505050565b600090565b613baa613b9d565b613bb5818484613b78565b505050565b5b81811015613bd957613bce600082613ba2565b600181019050613bbb565b5050565b601f821115613c1e57613bef81613abe565b613bf884613ad3565b81016020851015613c07578190505b613c1b613c1385613ad3565b830182613bba565b50505b505050565b600082821c905092915050565b6000613c4160001984600802613c23565b1980831691505092915050565b6000613c5a8383613c30565b9150826002028217905092915050565b613c738261295b565b67ffffffffffffffff811115613c8c57613c8b612e53565b5b613c968254613206565b613ca1828285613bdd565b600060209050601f831160018114613cd45760008415613cc2578287015190505b613ccc8582613c4e565b865550613d34565b601f198416613ce286613abe565b60005b82811015613d0a57848901518255600182019150602085019450602081019050613ce5565b86831015613d275784890151613d23601f891682613c30565b8355505b6001600288020188555050505b505050505050565b7f4552433732313a207472616e736665722066726f6d20696e636f72726563742060008201527f6f776e6572000000000000000000000000000000000000000000000000000000602082015250565b6000613d98602583612966565b9150613da382613d3c565b604082019050919050565b60006020820190508181036000830152613dc781613d8b565b9050919050565b7f4552433732313a207472616e7366657220746f20746865207a65726f2061646460008201527f7265737300000000000000000000000000000000000000000000000000000000602082015250565b6000613e2a602483612966565b9150613e3582613dce565b604082019050919050565b60006020820190508181036000830152613e5981613e1d565b9050919050565b6000613e6b82612a16565b9150613e7683612a16565b925082821015613e8957613e886136d0565b5b828203905092915050565b6000613e9f82612a16565b9150613eaa83612a16565b9250827fffffffffffffffffffffffffffffffffffffffffffffffffffffffffffffffff03821115613edf57613ede6136d0565b5b828201905092915050565b7f4e487b7100000000000000000000000000000000000000000000000000000000600052603160045260246000fd5b7f4552433732313a20617070726f766520746f2063616c6c657200000000000000600082015250565b6000613f4f601983612966565b9150613f5a82613f19565b602082019050919050565b60006020820190508181036000830152613f7e81613f42565b9050919050565b7f4552433732313a207472616e7366657220746f206e6f6e20455243373231526560008201527f63656976657220696d706c656d656e7465720000000000000000000000000000602082015250565b6000613fe1603283612966565b9150613fec82613f85565b604082019050919050565b6000602082019050818103600083015261401081613fd4565b9050919050565b7f4552433732313a206d696e7420746f20746865207a65726f2061646472657373600082015250565b600061404d602083612966565b915061405882614017565b602082019050919050565b6000602082019050818103600083015261407c81614040565b9050919050565b7f4552433732313a20746f6b656e20616c7265616479206d696e74656400000000600082015250565b60006140b9601c83612966565b91506140c482614083565b602082019050919050565b600060208201905081810360008301526140e8816140ac565b9050919050565b600081519050919050565b600082825260208201905092915050565b6000614116826140ef565b61412081856140fa565b9350614130818560208601612977565b614139816129aa565b840191505092915050565b60006080820190506141596000830187612aab565b6141666020830186612aab565b6141736040830185612b41565b8181036060830152614185818461410b565b905095945050505050565b60008151905061419f816128cc565b92915050565b6000602082840312156141bb576141ba612896565b5b60006141c984828501614190565b9150509291505056fea264697066735822122087a40bf437e6d0db700dcca01b909d6b3eb482f011d7102330edbcda8964ca3564736f6c634300080f0033",
  "immutableReferences": {},
  "source": "// SPDX-License-Identifier: MIT\npragma solidity ^0.8.0;\n\nimport \"@openzeppelin/contracts/token/ERC721/extensions/ERC721Enumerable.sol\";\n// openzeppelin/contracts     ERC721\nimport \"@openzeppelin/contracts/utils/Counters.sol\";\n// openzeppelin count \n// library .\n\ncontract MintNFT is  ERC721Enumerable {\n    using Counters for Counters.Counter;\n    \n    Counters.Counter private _tokenIds;\n\n    // constructor(string memory _name, string memory _symbol) ERC721(_name, _symbol) {}\n    constructor() ERC721(\"SDD\", \"SDD_symbol\") {}\n    // symbol =   ethereum\n    // name = \n\n    mapping(uint =>string ) public tokenURIs ;\n\n    function tokenURI(uint _tokenId) override public view returns (string memory) {\n        return  tokenURIs[_tokenId] ;\n    }\n\n    function mintNFT( string memory _tokenURI) public  returns (uint256) {\n        _tokenIds.increment();\n\n        uint256 tokenId = _tokenIds.current();\n        tokenURIs[tokenId] = _tokenURI;\n \n        _mint(msg.sender, tokenId);\n        // msg.sender  \n        return tokenId;\n    }\n\n    function editNFT( string memory _tokenURI) public returns (uint256) {\n        \n    }\n\n    struct NftTokenData {\n        uint256 nftTokenId;\n        string  nftTokenURI ;\n        uint price ;        \n    }\n    //    \n\n\n// My NFT\n    function getNftTokens(address _nftTokenOwner) view public returns (NftTokenData[] memory) {\n        uint256 balanceLength = balanceOf(_nftTokenOwner);\n        //balanceOf    \n        //require(balanceLength != 0, \"Owner did not have token.\");\n\n        NftTokenData[] memory nftTokenData = new NftTokenData[](balanceLength);\n\n        for(uint256 i = 0; i < balanceLength; i++) {\n            uint256 nftTokenId = tokenOfOwnerByIndex(_nftTokenOwner, i);\n            string memory nftTokenURI = tokenURI(nftTokenId);   \n            uint tokenPrice = getNftTokenPrice(nftTokenId);\n            nftTokenData[i] = NftTokenData(nftTokenId , nftTokenURI, tokenPrice );\n        }\n\n        return nftTokenData;\n\n    }\n\n    // \n    mapping(uint256 => uint256) public nftTokenPrices;\n    uint256[] public onSaleNftTokenArray;\n\n    function setSaleNftToken(uint256 _tokenId, uint256 _price) public {\n        address nftTokenOwner = ownerOf(_tokenId);\n\n        require(nftTokenOwner == msg.sender, \"Caller is not nft token owner.\");\n        require(_price > 0, \"Price is zero or lower.\");\n        require(nftTokenPrices[_tokenId] == 0, \"This nft token is already on sale.\");\n        require(isApprovedForAll(nftTokenOwner, address(this)), \"nft token owner did not approve token.\");\n\n        nftTokenPrices[_tokenId] = _price;\n        onSaleNftTokenArray.push(_tokenId); // nft list\n\n    }\n\n    // \n    function getSaleNftTokens() public view returns (NftTokenData[] memory ){\n        uint[] memory onSaleNftToken = getSaleNftToken();\n        NftTokenData[] memory onSaleNftTokens = new NftTokenData[](onSaleNftToken.length);\n\n        for(uint i = 0; i < onSaleNftToken.length; i ++){\n            uint tokenId = onSaleNftToken[i];\n            uint tokenPrice = getNftTokenPrice(tokenId);\n            onSaleNftTokens[i] = NftTokenData(tokenId, tokenURI(tokenId), tokenPrice) ;\n        }\n\n        return onSaleNftTokens;\n    }\n\n\n    function getSaleNftToken() view public returns (uint[] memory ){\n        return onSaleNftTokenArray ;\n    }\n\n\n    function getNftTokenPrice(uint256 _tokenId) view public returns(uint256){\n        return nftTokenPrices[_tokenId];\n    }\n\n\n    //\n    function buyNftToken(uint256 _tokenId) public payable {\n        uint256 price = nftTokenPrices[_tokenId];\n        address nftTokenOwner = ownerOf(_tokenId);\n\n        require(price > 0, \"nft token not sale.\");\n        require(price  <= msg.value, \"caller sent lower than price.\");\n        require(nftTokenOwner != msg.sender,\"caller is nft token owner.\");\n        require(isApprovedForAll(nftTokenOwner, address(this)), \"nft token owner did not approve token.\");\n\n\n        payable(nftTokenOwner).transfer(msg.value);\n\n        IERC721(address(this)).safeTransferFrom(nftTokenOwner, msg.sender, _tokenId);\n\n\n        //  \n        removeToken(_tokenId);        \n\n    }\n\n    function burn( uint256 _tokenId) public{\n        address addr_owner = ownerOf(_tokenId);\n        require( addr_owner == msg.sender, \"msg.sender is not the owner of the token\");\n        _burn(_tokenId);\n        removeToken(_tokenId);\n    }\n\n\n\n    function removeToken(uint256 _tokenId) private {\n                \n        nftTokenPrices[_tokenId] = 0;\n\n        for(uint256 i = 0; i<onSaleNftTokenArray.length; i ++){\n            if(nftTokenPrices[onSaleNftTokenArray[i]] ==0){\n                onSaleNftTokenArray[i] = onSaleNftTokenArray[onSaleNftTokenArray.length -1] ;\n                onSaleNftTokenArray.pop();\n            }\n        }\n    } \n}\n",
  "sourcePath": "/Users/ieunchong/Desktop/SDD_SmartContract/contracts/MintNFT.sol",
  "compiler": {
    "name": "solc",
    "version": "0.8.15+commit.e14f2714.Emscripten.clang"
  },
  "schemaVersion": "3.4.8",
  "updatedAt": "2022-07-18T09:12:44.316Z",
  "networkType": "ethereum",
  "devdoc": {
    "kind": "dev",
    "methods": {
      "approve(address,uint256)": {
        "details": "See {IERC721-approve}."
      },
      "balanceOf(address)": {
        "details": "See {IERC721-balanceOf}."
      },
      "getApproved(uint256)": {
        "details": "See {IERC721-getApproved}."
      },
      "isApprovedForAll(address,address)": {
        "details": "See {IERC721-isApprovedForAll}."
      },
      "name()": {
        "details": "See {IERC721Metadata-name}."
      },
      "ownerOf(uint256)": {
        "details": "See {IERC721-ownerOf}."
      },
      "safeTransferFrom(address,address,uint256)": {
        "details": "See {IERC721-safeTransferFrom}."
      },
      "safeTransferFrom(address,address,uint256,bytes)": {
        "details": "See {IERC721-safeTransferFrom}."
      },
      "setApprovalForAll(address,bool)": {
        "details": "See {IERC721-setApprovalForAll}."
      },
      "supportsInterface(bytes4)": {
        "details": "See {IERC165-supportsInterface}."
      },
      "symbol()": {
        "details": "See {IERC721Metadata-symbol}."
      },
      "tokenByIndex(uint256)": {
        "details": "See {IERC721Enumerable-tokenByIndex}."
      },
      "tokenOfOwnerByIndex(address,uint256)": {
        "details": "See {IERC721Enumerable-tokenOfOwnerByIndex}."
      },
      "totalSupply()": {
        "details": "See {IERC721Enumerable-totalSupply}."
      },
      "transferFrom(address,address,uint256)": {
        "details": "See {IERC721-transferFrom}."
      }
    },
    "version": 1
  },
  "userdoc": {
    "kind": "user",
    "methods": {},
    "version": 1
  }
}