{
  "contractName": "MintNFT",
  "abi": [
    {
      "inputs": [],
      "stateMutability": "nonpayable",
      "type": "constructor"
    },
    {
      "anonymous": false,
      "inputs": [
        {
          "indexed": true,
          "internalType": "address",
          "name": "owner",
          "type": "address"
        },
        {
          "indexed": true,
          "internalType": "address",
          "name": "approved",
          "type": "address"
        },
        {
          "indexed": true,
          "internalType": "uint256",
          "name": "tokenId",
          "type": "uint256"
        }
      ],
      "name": "Approval",
      "type": "event"
    },
    {
      "anonymous": false,
      "inputs": [
        {
          "indexed": true,
          "internalType": "address",
          "name": "owner",
          "type": "address"
        },
        {
          "indexed": true,
          "internalType": "address",
          "name": "operator",
          "type": "address"
        },
        {
          "indexed": false,
          "internalType": "bool",
          "name": "approved",
          "type": "bool"
        }
      ],
      "name": "ApprovalForAll",
      "type": "event"
    },
    {
      "anonymous": false,
      "inputs": [
        {
          "indexed": true,
          "internalType": "address",
          "name": "from",
          "type": "address"
        },
        {
          "indexed": true,
          "internalType": "address",
          "name": "to",
          "type": "address"
        },
        {
          "indexed": true,
          "internalType": "uint256",
          "name": "tokenId",
          "type": "uint256"
        }
      ],
      "name": "Transfer",
      "type": "event"
    },
    {
      "inputs": [
        {
          "internalType": "address",
          "name": "to",
          "type": "address"
        },
        {
          "internalType": "uint256",
          "name": "tokenId",
          "type": "uint256"
        }
      ],
      "name": "approve",
      "outputs": [],
      "stateMutability": "nonpayable",
      "type": "function"
    },
    {
      "inputs": [
        {
          "internalType": "address",
          "name": "owner",
          "type": "address"
        }
      ],
      "name": "balanceOf",
      "outputs": [
        {
          "internalType": "uint256",
          "name": "",
          "type": "uint256"
        }
      ],
      "stateMutability": "view",
      "type": "function",
      "constant": true
    },
    {
      "inputs": [
        {
          "internalType": "uint256",
          "name": "tokenId",
          "type": "uint256"
        }
      ],
      "name": "getApproved",
      "outputs": [
        {
          "internalType": "address",
          "name": "",
          "type": "address"
        }
      ],
      "stateMutability": "view",
      "type": "function",
      "constant": true
    },
    {
      "inputs": [
        {
          "internalType": "address",
          "name": "owner",
          "type": "address"
        },
        {
          "internalType": "address",
          "name": "operator",
          "type": "address"
        }
      ],
      "name": "isApprovedForAll",
      "outputs": [
        {
          "internalType": "bool",
          "name": "",
          "type": "bool"
        }
      ],
      "stateMutability": "view",
      "type": "function",
      "constant": true
    },
    {
      "inputs": [],
      "name": "name",
      "outputs": [
        {
          "internalType": "string",
          "name": "",
          "type": "string"
        }
      ],
      "stateMutability": "view",
      "type": "function",
      "constant": true
    },
    {
      "inputs": [
        {
          "internalType": "uint256",
          "name": "",
          "type": "uint256"
        }
      ],
      "name": "nftTokenPrices",
      "outputs": [
        {
          "internalType": "uint256",
          "name": "",
          "type": "uint256"
        }
      ],
      "stateMutability": "view",
      "type": "function",
      "constant": true
    },
    {
      "inputs": [
        {
          "internalType": "uint256",
          "name": "",
          "type": "uint256"
        }
      ],
      "name": "onSaleNftTokenArray",
      "outputs": [
        {
          "internalType": "uint256",
          "name": "",
          "type": "uint256"
        }
      ],
      "stateMutability": "view",
      "type": "function",
      "constant": true
    },
    {
      "inputs": [
        {
          "internalType": "uint256",
          "name": "tokenId",
          "type": "uint256"
        }
      ],
      "name": "ownerOf",
      "outputs": [
        {
          "internalType": "address",
          "name": "",
          "type": "address"
        }
      ],
      "stateMutability": "view",
      "type": "function",
      "constant": true
    },
    {
      "inputs": [
        {
          "internalType": "address",
          "name": "from",
          "type": "address"
        },
        {
          "internalType": "address",
          "name": "to",
          "type": "address"
        },
        {
          "internalType": "uint256",
          "name": "tokenId",
          "type": "uint256"
        }
      ],
      "name": "safeTransferFrom",
      "outputs": [],
      "stateMutability": "nonpayable",
      "type": "function"
    },
    {
      "inputs": [
        {
          "internalType": "address",
          "name": "from",
          "type": "address"
        },
        {
          "internalType": "address",
          "name": "to",
          "type": "address"
        },
        {
          "internalType": "uint256",
          "name": "tokenId",
          "type": "uint256"
        },
        {
          "internalType": "bytes",
          "name": "data",
          "type": "bytes"
        }
      ],
      "name": "safeTransferFrom",
      "outputs": [],
      "stateMutability": "nonpayable",
      "type": "function"
    },
    {
      "inputs": [
        {
          "internalType": "bytes4",
          "name": "interfaceId",
          "type": "bytes4"
        }
      ],
      "name": "supportsInterface",
      "outputs": [
        {
          "internalType": "bool",
          "name": "",
          "type": "bool"
        }
      ],
      "stateMutability": "view",
      "type": "function",
      "constant": true
    },
    {
      "inputs": [],
      "name": "symbol",
      "outputs": [
        {
          "internalType": "string",
          "name": "",
          "type": "string"
        }
      ],
      "stateMutability": "view",
      "type": "function",
      "constant": true
    },
    {
      "inputs": [
        {
          "internalType": "uint256",
          "name": "index",
          "type": "uint256"
        }
      ],
      "name": "tokenByIndex",
      "outputs": [
        {
          "internalType": "uint256",
          "name": "",
          "type": "uint256"
        }
      ],
      "stateMutability": "view",
      "type": "function",
      "constant": true
    },
    {
      "inputs": [
        {
          "internalType": "address",
          "name": "owner",
          "type": "address"
        },
        {
          "internalType": "uint256",
          "name": "index",
          "type": "uint256"
        }
      ],
      "name": "tokenOfOwnerByIndex",
      "outputs": [
        {
          "internalType": "uint256",
          "name": "",
          "type": "uint256"
        }
      ],
      "stateMutability": "view",
      "type": "function",
      "constant": true
    },
    {
      "inputs": [
        {
          "internalType": "uint256",
          "name": "",
          "type": "uint256"
        }
      ],
      "name": "tokenURIs",
      "outputs": [
        {
          "internalType": "string",
          "name": "",
          "type": "string"
        }
      ],
      "stateMutability": "view",
      "type": "function",
      "constant": true
    },
    {
      "inputs": [],
      "name": "totalSupply",
      "outputs": [
        {
          "internalType": "uint256",
          "name": "",
          "type": "uint256"
        }
      ],
      "stateMutability": "view",
      "type": "function",
      "constant": true
    },
    {
      "inputs": [
        {
          "internalType": "address",
          "name": "from",
          "type": "address"
        },
        {
          "internalType": "address",
          "name": "to",
          "type": "address"
        },
        {
          "internalType": "uint256",
          "name": "tokenId",
          "type": "uint256"
        }
      ],
      "name": "transferFrom",
      "outputs": [],
      "stateMutability": "nonpayable",
      "type": "function"
    },
    {
      "inputs": [
        {
          "internalType": "uint256",
          "name": "_tokenId",
          "type": "uint256"
        }
      ],
      "name": "tokenURI",
      "outputs": [
        {
          "internalType": "string",
          "name": "",
          "type": "string"
        }
      ],
      "stateMutability": "view",
      "type": "function",
      "constant": true
    },
    {
      "inputs": [
        {
          "internalType": "string",
          "name": "_tokenURI",
          "type": "string"
        }
      ],
      "name": "mintNFT",
      "outputs": [
        {
          "internalType": "uint256",
          "name": "",
          "type": "uint256"
        }
      ],
      "stateMutability": "nonpayable",
      "type": "function"
    },
    {
      "inputs": [
        {
          "internalType": "address",
          "name": "operator",
          "type": "address"
        },
        {
          "internalType": "bool",
          "name": "approved",
          "type": "bool"
        }
      ],
      "name": "setApprovalForAll",
      "outputs": [],
      "stateMutability": "nonpayable",
      "type": "function"
    },
    {
      "inputs": [
        {
          "internalType": "bool",
          "name": "approved",
          "type": "bool"
        }
      ],
      "name": "setApprovalForAll",
      "outputs": [],
      "stateMutability": "nonpayable",
      "type": "function"
    },
    {
      "inputs": [
        {
          "internalType": "address",
          "name": "_nftTokenOwner",
          "type": "address"
        }
      ],
      "name": "getNftTokens",
      "outputs": [
        {
          "components": [
            {
              "internalType": "uint256",
              "name": "nftTokenId",
              "type": "uint256"
            },
            {
              "internalType": "string",
              "name": "nftTokenURI",
              "type": "string"
            },
            {
              "internalType": "uint256",
              "name": "price",
              "type": "uint256"
            }
          ],
          "internalType": "struct MintNFT.NftTokenData[]",
          "name": "",
          "type": "tuple[]"
        }
      ],
      "stateMutability": "view",
      "type": "function",
      "constant": true
    },
    {
      "inputs": [
        {
          "internalType": "uint256",
          "name": "_tokenId",
          "type": "uint256"
        },
        {
          "internalType": "uint256",
          "name": "_price",
          "type": "uint256"
        }
      ],
      "name": "setSaleNftToken",
      "outputs": [],
      "stateMutability": "nonpayable",
      "type": "function"
    },
    {
      "inputs": [],
      "name": "getSaleNftTokens",
      "outputs": [
        {
          "components": [
            {
              "internalType": "uint256",
              "name": "nftTokenId",
              "type": "uint256"
            },
            {
              "internalType": "string",
              "name": "nftTokenURI",
              "type": "string"
            },
            {
              "internalType": "uint256",
              "name": "price",
              "type": "uint256"
            }
          ],
          "internalType": "struct MintNFT.NftTokenData[]",
          "name": "",
          "type": "tuple[]"
        }
      ],
      "stateMutability": "view",
      "type": "function",
      "constant": true
    },
    {
      "inputs": [],
      "name": "getSaleNftToken",
      "outputs": [
        {
          "internalType": "uint256[]",
          "name": "",
          "type": "uint256[]"
        }
      ],
      "stateMutability": "view",
      "type": "function",
      "constant": true
    },
    {
      "inputs": [
        {
          "internalType": "uint256",
          "name": "_tokenId",
          "type": "uint256"
        }
      ],
      "name": "getNftTokenPrice",
      "outputs": [
        {
          "internalType": "uint256",
          "name": "",
          "type": "uint256"
        }
      ],
      "stateMutability": "view",
      "type": "function",
      "constant": true
    },
    {
      "inputs": [
        {
          "internalType": "uint256",
          "name": "_tokenId",
          "type": "uint256"
        }
      ],
      "name": "buyNftToken",
      "outputs": [],
      "stateMutability": "payable",
      "type": "function",
      "payable": true
    },
    {
      "inputs": [
        {
          "internalType": "uint256",
          "name": "_tokenId",
          "type": "uint256"
        }
      ],
      "name": "burn",
      "outputs": [],
      "stateMutability": "nonpayable",
      "type": "function"
    }
  ],
  "bytecode": "0x60806040523480156200001157600080fd5b506040518060400160405280600381526020017f53444400000000000000000000000000000000000000000000000000000000008152506040518060400160405280600a81526020017f5344445f73796d626f6c0000000000000000000000000000000000000000000081525081600090816200008f919062000324565b508060019081620000a1919062000324565b5050506200040b565b600081519050919050565b7f4e487b7100000000000000000000000000000000000000000000000000000000600052604160045260246000fd5b7f4e487b7100000000000000000000000000000000000000000000000000000000600052602260045260246000fd5b600060028204905060018216806200012c57607f821691505b602082108103620001425762000141620000e4565b5b50919050565b60008190508160005260206000209050919050565b60006020601f8301049050919050565b600082821b905092915050565b600060088302620001ac7fffffffffffffffffffffffffffffffffffffffffffffffffffffffffffffffff826200016d565b620001b886836200016d565b95508019841693508086168417925050509392505050565b6000819050919050565b6000819050919050565b600062000205620001ff620001f984620001d0565b620001da565b620001d0565b9050919050565b6000819050919050565b6200022183620001e4565b6200023962000230826200020c565b8484546200017a565b825550505050565b600090565b6200025062000241565b6200025d81848462000216565b505050565b5b8181101562000285576200027960008262000246565b60018101905062000263565b5050565b601f821115620002d4576200029e8162000148565b620002a9846200015d565b81016020851015620002b9578190505b620002d1620002c8856200015d565b83018262000262565b50505b505050565b600082821c905092915050565b6000620002f960001984600802620002d9565b1980831691505092915050565b6000620003148383620002e6565b9150826002028217905092915050565b6200032f82620000aa565b67ffffffffffffffff8111156200034b576200034a620000b5565b5b62000357825462000113565b6200036482828562000289565b600060209050601f8311600181146200039c576000841562000387578287015190505b62000393858262000306565b86555062000403565b601f198416620003ac8662000148565b60005b82811015620003d657848901518255600182019150602085019450602081019050620003af565b86831015620003f65784890151620003f2601f891682620002e6565b8355505b6001600288020188555050505b505050505050565b61423c806200041b6000396000f3fe6080604052600436106101b75760003560e01c806370a08231116100ec578063b8e297f41161008a578063e8b3f7e211610064578063e8b3f7e21461066d578063e985e9c514610696578063f257f548146106d3578063fb37e88314610710576101b7565b8063b8e297f4146105eb578063c87b56dd14610614578063da8cc6e814610651576101b7565b8063912c45cf116100c6578063912c45cf1461053157806395d89b411461056e578063a22cb46514610599578063b88d4fde146105c2576101b7565b806370a082311461048c57806373e778c5146104c957806374a6b54f14610506576101b7565b80632f745c59116101595780634ae23e64116101335780634ae23e64146103985780634f6ccce7146103d55780636352211e146104125780636c8b703f1461044f576101b7565b80632f745c591461030957806342842e0e1461034657806342966c681461036f576101b7565b8063095ea7b311610195578063095ea7b31461026157806318160ddd1461028a5780631efceb90146102b557806323b872dd146102e0576101b7565b806301ffc9a7146101bc57806306fdde03146101f9578063081812fc14610224575b600080fd5b3480156101c857600080fd5b506101e360048036038101906101de91906128ff565b61074d565b6040516101f09190612947565b60405180910390f35b34801561020557600080fd5b5061020e6107c7565b60405161021b91906129fb565b60405180910390f35b34801561023057600080fd5b5061024b60048036038101906102469190612a53565b610859565b6040516102589190612ac1565b60405180910390f35b34801561026d57600080fd5b5061028860048036038101906102839190612b08565b61089f565b005b34801561029657600080fd5b5061029f6109b6565b6040516102ac9190612b57565b60405180910390f35b3480156102c157600080fd5b506102ca6109c3565b6040516102d79190612c30565b60405180910390f35b3480156102ec57600080fd5b5061030760048036038101906103029190612c52565b610a1b565b005b34801561031557600080fd5b50610330600480360381019061032b9190612b08565b610a7b565b60405161033d9190612b57565b60405180910390f35b34801561035257600080fd5b5061036d60048036038101906103689190612c52565b610b20565b005b34801561037b57600080fd5b5061039660048036038101906103919190612a53565b610b40565b005b3480156103a457600080fd5b506103bf60048036038101906103ba9190612a53565b610bd1565b6040516103cc9190612b57565b60405180910390f35b3480156103e157600080fd5b506103fc60048036038101906103f79190612a53565b610be9565b6040516104099190612b57565b60405180910390f35b34801561041e57600080fd5b5061043960048036038101906104349190612a53565b610c5a565b6040516104469190612ac1565b60405180910390f35b34801561045b57600080fd5b5061047660048036038101906104719190612a53565b610d0b565b60405161048391906129fb565b60405180910390f35b34801561049857600080fd5b506104b360048036038101906104ae9190612ca5565b610dab565b6040516104c09190612b57565b60405180910390f35b3480156104d557600080fd5b506104f060048036038101906104eb9190612a53565b610e62565b6040516104fd9190612b57565b60405180910390f35b34801561051257600080fd5b5061051b610e86565b6040516105289190612e2e565b60405180910390f35b34801561053d57600080fd5b5061055860048036038101906105539190612a53565b610f84565b6040516105659190612b57565b60405180910390f35b34801561057a57600080fd5b50610583610fa1565b60405161059091906129fb565b60405180910390f35b3480156105a557600080fd5b506105c060048036038101906105bb9190612e7c565b611033565b005b3480156105ce57600080fd5b506105e960048036038101906105e49190612ff1565b611049565b005b3480156105f757600080fd5b50610612600480360381019061060d9190613074565b6110ab565b005b34801561062057600080fd5b5061063b60048036038101906106369190612a53565b611258565b60405161064891906129fb565b60405180910390f35b61066b60048036038101906106669190612a53565b6112fd565b005b34801561067957600080fd5b50610694600480360381019061068f91906130b4565b61152d565b005b3480156106a257600080fd5b506106bd60048036038101906106b891906130e1565b61153b565b6040516106ca9190612947565b60405180910390f35b3480156106df57600080fd5b506106fa60048036038101906106f59190612ca5565b6115cf565b6040516107079190612e2e565b60405180910390f35b34801561071c57600080fd5b50610737600480360381019061073291906131c2565b6116c3565b6040516107449190612b57565b60405180910390f35b60007f780e9d63000000000000000000000000000000000000000000000000000000007bffffffffffffffffffffffffffffffffffffffffffffffffffffffff1916827bffffffffffffffffffffffffffffffffffffffffffffffffffffffff191614806107c057506107bf82611711565b5b9050919050565b6060600080546107d69061323a565b80601f01602080910402602001604051908101604052809291908181526020018280546108029061323a565b801561084f5780601f106108245761010080835404028352916020019161084f565b820191906000526020600020905b81548152906001019060200180831161083257829003601f168201915b5050505050905090565b6000610864826117f3565b6004600083815260200190815260200160002060009054906101000a900473ffffffffffffffffffffffffffffffffffffffff169050919050565b60006108aa82610c5a565b90508073ffffffffffffffffffffffffffffffffffffffff168373ffffffffffffffffffffffffffffffffffffffff160361091a576040517f08c379a0000000000000000000000000000000000000000000000000000000008152600401610911906132dd565b60405180910390fd5b8073ffffffffffffffffffffffffffffffffffffffff1661093961183e565b73ffffffffffffffffffffffffffffffffffffffff16148061096857506109678161096261183e565b61153b565b5b6109a7576040517f08c379a000000000000000000000000000000000000000000000000000000000815260040161099e9061336f565b60405180910390fd5b6109b18383611846565b505050565b6000600880549050905090565b6060600d805480602002602001604051908101604052809291908181526020018280548015610a1157602002820191906000526020600020905b8154815260200190600101908083116109fd575b5050505050905090565b610a2c610a2661183e565b826118ff565b610a6b576040517f08c379a0000000000000000000000000000000000000000000000000000000008152600401610a6290613401565b60405180910390fd5b610a76838383611994565b505050565b6000610a8683610dab565b8210610ac7576040517f08c379a0000000000000000000000000000000000000000000000000000000008152600401610abe90613493565b60405180910390fd5b600660008473ffffffffffffffffffffffffffffffffffffffff1673ffffffffffffffffffffffffffffffffffffffff168152602001908152602001600020600083815260200190815260200160002054905092915050565b610b3b83838360405180602001604052806000815250611049565b505050565b6000610b4b82610c5a565b90503373ffffffffffffffffffffffffffffffffffffffff168173ffffffffffffffffffffffffffffffffffffffff1614610bbb576040517f08c379a0000000000000000000000000000000000000000000000000000000008152600401610bb290613525565b60405180910390fd5b610bc482611bfa565b610bcd82611d17565b5050565b600c6020528060005260406000206000915090505481565b6000610bf36109b6565b8210610c34576040517f08c379a0000000000000000000000000000000000000000000000000000000008152600401610c2b906135b7565b60405180910390fd5b60088281548110610c4857610c476135d7565b5b90600052602060002001549050919050565b6000806002600084815260200190815260200160002060009054906101000a900473ffffffffffffffffffffffffffffffffffffffff169050600073ffffffffffffffffffffffffffffffffffffffff168173ffffffffffffffffffffffffffffffffffffffff1603610d02576040517f08c379a0000000000000000000000000000000000000000000000000000000008152600401610cf990613652565b60405180910390fd5b80915050919050565b600b6020528060005260406000206000915090508054610d2a9061323a565b80601f0160208091040260200160405190810160405280929190818152602001828054610d569061323a565b8015610da35780601f10610d7857610100808354040283529160200191610da3565b820191906000526020600020905b815481529060010190602001808311610d8657829003601f168201915b505050505081565b60008073ffffffffffffffffffffffffffffffffffffffff168273ffffffffffffffffffffffffffffffffffffffff1603610e1b576040517f08c379a0000000000000000000000000000000000000000000000000000000008152600401610e12906136e4565b60405180910390fd5b600360008373ffffffffffffffffffffffffffffffffffffffff1673ffffffffffffffffffffffffffffffffffffffff168152602001908152602001600020549050919050565b600d8181548110610e7257600080fd5b906000526020600020016000915090505481565b60606000610e926109c3565b90506000815167ffffffffffffffff811115610eb157610eb0612ec6565b5b604051908082528060200260200182016040528015610eea57816020015b610ed7612872565b815260200190600190039081610ecf5790505b50905060005b8251811015610f7b576000838281518110610f0e57610f0d6135d7565b5b602002602001015190506000610f2382610f84565b90506040518060600160405280838152602001610f3f84611258565b815260200182815250848481518110610f5b57610f5a6135d7565b5b602002602001018190525050508080610f7390613733565b915050610ef0565b50809250505090565b6000600c6000838152602001908152602001600020549050919050565b606060018054610fb09061323a565b80601f0160208091040260200160405190810160405280929190818152602001828054610fdc9061323a565b80156110295780601f10610ffe57610100808354040283529160200191611029565b820191906000526020600020905b81548152906001019060200180831161100c57829003601f168201915b5050505050905090565b61104561103e61183e565b8383611e0b565b5050565b61105a61105461183e565b836118ff565b611099576040517f08c379a000000000000000000000000000000000000000000000000000000000815260040161109090613401565b60405180910390fd5b6110a584848484611f77565b50505050565b60006110b683610c5a565b90506110c2600161152d565b3373ffffffffffffffffffffffffffffffffffffffff168173ffffffffffffffffffffffffffffffffffffffff1614611130576040517f08c379a0000000000000000000000000000000000000000000000000000000008152600401611127906137c7565b60405180910390fd5b60008211611173576040517f08c379a000000000000000000000000000000000000000000000000000000000815260040161116a90613833565b60405180910390fd5b6000600c600085815260200190815260200160002054146111c9576040517f08c379a00000000000000000000000000000000000000000000000000000000081526004016111c0906138c5565b60405180910390fd5b6111d3813061153b565b611212576040517f08c379a000000000000000000000000000000000000000000000000000000000815260040161120990613957565b60405180910390fd5b81600c600085815260200190815260200160002081905550600d839080600181540180825580915050600190039060005260206000200160009091909190915055505050565b6060600b600083815260200190815260200160002080546112789061323a565b80601f01602080910402602001604051908101604052809291908181526020018280546112a49061323a565b80156112f15780601f106112c6576101008083540402835291602001916112f1565b820191906000526020600020905b8154815290600101906020018083116112d457829003601f168201915b50505050509050919050565b6000600c6000838152602001908152602001600020549050600061132083610c5a565b905061132c600161152d565b6000821161136f576040517f08c379a0000000000000000000000000000000000000000000000000000000008152600401611366906139c3565b60405180910390fd5b348211156113b2576040517f08c379a00000000000000000000000000000000000000000000000000000000081526004016113a990613a2f565b60405180910390fd5b3373ffffffffffffffffffffffffffffffffffffffff168173ffffffffffffffffffffffffffffffffffffffff1603611420576040517f08c379a000000000000000000000000000000000000000000000000000000000815260040161141790613a9b565b60405180910390fd5b61142a813061153b565b611469576040517f08c379a000000000000000000000000000000000000000000000000000000000815260040161146090613957565b60405180910390fd5b8073ffffffffffffffffffffffffffffffffffffffff166108fc349081150290604051600060405180830381858888f193505050501580156114af573d6000803e3d6000fd5b503073ffffffffffffffffffffffffffffffffffffffff166342842e0e8233866040518463ffffffff1660e01b81526004016114ed93929190613abb565b600060405180830381600087803b15801561150757600080fd5b505af115801561151b573d6000803e3d6000fd5b5050505061152883611d17565b505050565b611538333083611e0b565b50565b6000600560008473ffffffffffffffffffffffffffffffffffffffff1673ffffffffffffffffffffffffffffffffffffffff16815260200190815260200160002060008373ffffffffffffffffffffffffffffffffffffffff1673ffffffffffffffffffffffffffffffffffffffff16815260200190815260200160002060009054906101000a900460ff16905092915050565b606060006115dc83610dab565b905060008167ffffffffffffffff8111156115fa576115f9612ec6565b5b60405190808252806020026020018201604052801561163357816020015b611620612872565b8152602001906001900390816116185790505b50905060005b828110156116b857600061164d8683610a7b565b9050600061165a82611258565b9050600061166783610f84565b9050604051806060016040528084815260200183815260200182815250858581518110611697576116966135d7565b5b602002602001018190525050505080806116b090613733565b915050611639565b508092505050919050565b60006116cf600a611fd3565b60006116db600a611fe9565b905082600b600083815260200190815260200160002090816116fd9190613c9e565b506117083382611ff7565b80915050919050565b60007f80ac58cd000000000000000000000000000000000000000000000000000000007bffffffffffffffffffffffffffffffffffffffffffffffffffffffff1916827bffffffffffffffffffffffffffffffffffffffffffffffffffffffff191614806117dc57507f5b5e139f000000000000000000000000000000000000000000000000000000007bffffffffffffffffffffffffffffffffffffffffffffffffffffffff1916827bffffffffffffffffffffffffffffffffffffffffffffffffffffffff1916145b806117ec57506117eb826121d0565b5b9050919050565b6117fc8161223a565b61183b576040517f08c379a000000000000000000000000000000000000000000000000000000000815260040161183290613652565b60405180910390fd5b50565b600033905090565b816004600083815260200190815260200160002060006101000a81548173ffffffffffffffffffffffffffffffffffffffff021916908373ffffffffffffffffffffffffffffffffffffffff160217905550808273ffffffffffffffffffffffffffffffffffffffff166118b983610c5a565b73ffffffffffffffffffffffffffffffffffffffff167f8c5be1e5ebec7d5bd14f71427d1e84f3dd0314c0f7b2291e5b200ac8c7c3b92560405160405180910390a45050565b60008061190b83610c5a565b90508073ffffffffffffffffffffffffffffffffffffffff168473ffffffffffffffffffffffffffffffffffffffff16148061194d575061194c818561153b565b5b8061198b57508373ffffffffffffffffffffffffffffffffffffffff1661197384610859565b73ffffffffffffffffffffffffffffffffffffffff16145b91505092915050565b8273ffffffffffffffffffffffffffffffffffffffff166119b482610c5a565b73ffffffffffffffffffffffffffffffffffffffff1614611a0a576040517f08c379a0000000000000000000000000000000000000000000000000000000008152600401611a0190613de2565b60405180910390fd5b600073ffffffffffffffffffffffffffffffffffffffff168273ffffffffffffffffffffffffffffffffffffffff1603611a79576040517f08c379a0000000000000000000000000000000000000000000000000000000008152600401611a7090613e74565b60405180910390fd5b611a848383836122a6565b611a8f600082611846565b6001600360008573ffffffffffffffffffffffffffffffffffffffff1673ffffffffffffffffffffffffffffffffffffffff1681526020019081526020016000206000828254611adf9190613e94565b925050819055506001600360008473ffffffffffffffffffffffffffffffffffffffff1673ffffffffffffffffffffffffffffffffffffffff1681526020019081526020016000206000828254611b369190613ec8565b92505081905550816002600083815260200190815260200160002060006101000a81548173ffffffffffffffffffffffffffffffffffffffff021916908373ffffffffffffffffffffffffffffffffffffffff160217905550808273ffffffffffffffffffffffffffffffffffffffff168473ffffffffffffffffffffffffffffffffffffffff167fddf252ad1be2c89b69c2b068fc378daa952ba7f163c4a11628f55a4df523b3ef60405160405180910390a4611bf58383836123b8565b505050565b6000611c0582610c5a565b9050611c13816000846122a6565b611c1e600083611846565b6001600360008373ffffffffffffffffffffffffffffffffffffffff1673ffffffffffffffffffffffffffffffffffffffff1681526020019081526020016000206000828254611c6e9190613e94565b925050819055506002600083815260200190815260200160002060006101000a81549073ffffffffffffffffffffffffffffffffffffffff021916905581600073ffffffffffffffffffffffffffffffffffffffff168273ffffffffffffffffffffffffffffffffffffffff167fddf252ad1be2c89b69c2b068fc378daa952ba7f163c4a11628f55a4df523b3ef60405160405180910390a4611d13816000846123b8565b5050565b6000600c60008381526020019081526020016000208190555060005b600d80549050811015611e07576000600c6000600d8481548110611d5a57611d596135d7565b5b906000526020600020015481526020019081526020016000205403611df457600d6001600d80549050611d8d9190613e94565b81548110611d9e57611d9d6135d7565b5b9060005260206000200154600d8281548110611dbd57611dbc6135d7565b5b9060005260206000200181905550600d805480611ddd57611ddc613f1e565b5b600190038181906000526020600020016000905590555b8080611dff90613733565b915050611d33565b5050565b8173ffffffffffffffffffffffffffffffffffffffff168373ffffffffffffffffffffffffffffffffffffffff1603611e79576040517f08c379a0000000000000000000000000000000000000000000000000000000008152600401611e7090613f99565b60405180910390fd5b80600560008573ffffffffffffffffffffffffffffffffffffffff1673ffffffffffffffffffffffffffffffffffffffff16815260200190815260200160002060008473ffffffffffffffffffffffffffffffffffffffff1673ffffffffffffffffffffffffffffffffffffffff16815260200190815260200160002060006101000a81548160ff0219169083151502179055508173ffffffffffffffffffffffffffffffffffffffff168373ffffffffffffffffffffffffffffffffffffffff167f17307eab39ab6107e8899845ad3d59bd9653f200f220920489ca2b5937696c3183604051611f6a9190612947565b60405180910390a3505050565b611f82848484611994565b611f8e848484846123bd565b611fcd576040517f08c379a0000000000000000000000000000000000000000000000000000000008152600401611fc49061402b565b60405180910390fd5b50505050565b6001816000016000828254019250508190555050565b600081600001549050919050565b600073ffffffffffffffffffffffffffffffffffffffff168273ffffffffffffffffffffffffffffffffffffffff1603612066576040517f08c379a000000000000000000000000000000000000000000000000000000000815260040161205d90614097565b60405180910390fd5b61206f8161223a565b156120af576040517f08c379a00000000000000000000000000000000000000000000000000000000081526004016120a690614103565b60405180910390fd5b6120bb600083836122a6565b6001600360008473ffffffffffffffffffffffffffffffffffffffff1673ffffffffffffffffffffffffffffffffffffffff168152602001908152602001600020600082825461210b9190613ec8565b92505081905550816002600083815260200190815260200160002060006101000a81548173ffffffffffffffffffffffffffffffffffffffff021916908373ffffffffffffffffffffffffffffffffffffffff160217905550808273ffffffffffffffffffffffffffffffffffffffff16600073ffffffffffffffffffffffffffffffffffffffff167fddf252ad1be2c89b69c2b068fc378daa952ba7f163c4a11628f55a4df523b3ef60405160405180910390a46121cc600083836123b8565b5050565b60007f01ffc9a7000000000000000000000000000000000000000000000000000000007bffffffffffffffffffffffffffffffffffffffffffffffffffffffff1916827bffffffffffffffffffffffffffffffffffffffffffffffffffffffff1916149050919050565b60008073ffffffffffffffffffffffffffffffffffffffff166002600084815260200190815260200160002060009054906101000a900473ffffffffffffffffffffffffffffffffffffffff1673ffffffffffffffffffffffffffffffffffffffff1614159050919050565b6122b1838383612544565b600073ffffffffffffffffffffffffffffffffffffffff168373ffffffffffffffffffffffffffffffffffffffff16036122f3576122ee81612549565b612332565b8173ffffffffffffffffffffffffffffffffffffffff168373ffffffffffffffffffffffffffffffffffffffff1614612331576123308382612592565b5b5b600073ffffffffffffffffffffffffffffffffffffffff168273ffffffffffffffffffffffffffffffffffffffff16036123745761236f816126ff565b6123b3565b8273ffffffffffffffffffffffffffffffffffffffff168273ffffffffffffffffffffffffffffffffffffffff16146123b2576123b182826127d0565b5b5b505050565b505050565b60006123de8473ffffffffffffffffffffffffffffffffffffffff1661284f565b15612537578373ffffffffffffffffffffffffffffffffffffffff1663150b7a0261240761183e565b8786866040518563ffffffff1660e01b81526004016124299493929190614178565b6020604051808303816000875af192505050801561246557506040513d601f19601f8201168201806040525081019061246291906141d9565b60015b6124e7573d8060008114612495576040519150601f19603f3d011682016040523d82523d6000602084013e61249a565b606091505b5060008151036124df576040517f08c379a00000000000000000000000000000000000000000000000000000000081526004016124d69061402b565b60405180910390fd5b805181602001fd5b63150b7a0260e01b7bffffffffffffffffffffffffffffffffffffffffffffffffffffffff1916817bffffffffffffffffffffffffffffffffffffffffffffffffffffffff19161491505061253c565b600190505b949350505050565b505050565b6008805490506009600083815260200190815260200160002081905550600881908060018154018082558091505060019003906000526020600020016000909190919091505550565b6000600161259f84610dab565b6125a99190613e94565b905060006007600084815260200190815260200160002054905081811461268e576000600660008673ffffffffffffffffffffffffffffffffffffffff1673ffffffffffffffffffffffffffffffffffffffff168152602001908152602001600020600084815260200190815260200160002054905080600660008773ffffffffffffffffffffffffffffffffffffffff1673ffffffffffffffffffffffffffffffffffffffff168152602001908152602001600020600084815260200190815260200160002081905550816007600083815260200190815260200160002081905550505b6007600084815260200190815260200160002060009055600660008573ffffffffffffffffffffffffffffffffffffffff1673ffffffffffffffffffffffffffffffffffffffff16815260200190815260200160002060008381526020019081526020016000206000905550505050565b600060016008805490506127139190613e94565b9050600060096000848152602001908152602001600020549050600060088381548110612743576127426135d7565b5b906000526020600020015490508060088381548110612765576127646135d7565b5b9060005260206000200181905550816009600083815260200190815260200160002081905550600960008581526020019081526020016000206000905560088054806127b4576127b3613f1e565b5b6001900381819060005260206000200160009055905550505050565b60006127db83610dab565b905081600660008573ffffffffffffffffffffffffffffffffffffffff1673ffffffffffffffffffffffffffffffffffffffff168152602001908152602001600020600083815260200190815260200160002081905550806007600084815260200190815260200160002081905550505050565b6000808273ffffffffffffffffffffffffffffffffffffffff163b119050919050565b60405180606001604052806000815260200160608152602001600081525090565b6000604051905090565b600080fd5b600080fd5b60007fffffffff0000000000000000000000000000000000000000000000000000000082169050919050565b6128dc816128a7565b81146128e757600080fd5b50565b6000813590506128f9816128d3565b92915050565b6000602082840312156129155761291461289d565b5b6000612923848285016128ea565b91505092915050565b60008115159050919050565b6129418161292c565b82525050565b600060208201905061295c6000830184612938565b92915050565b600081519050919050565b600082825260208201905092915050565b60005b8381101561299c578082015181840152602081019050612981565b838111156129ab576000848401525b50505050565b6000601f19601f8301169050919050565b60006129cd82612962565b6129d7818561296d565b93506129e781856020860161297e565b6129f0816129b1565b840191505092915050565b60006020820190508181036000830152612a1581846129c2565b905092915050565b6000819050919050565b612a3081612a1d565b8114612a3b57600080fd5b50565b600081359050612a4d81612a27565b92915050565b600060208284031215612a6957612a6861289d565b5b6000612a7784828501612a3e565b91505092915050565b600073ffffffffffffffffffffffffffffffffffffffff82169050919050565b6000612aab82612a80565b9050919050565b612abb81612aa0565b82525050565b6000602082019050612ad66000830184612ab2565b92915050565b612ae581612aa0565b8114612af057600080fd5b50565b600081359050612b0281612adc565b92915050565b60008060408385031215612b1f57612b1e61289d565b5b6000612b2d85828601612af3565b9250506020612b3e85828601612a3e565b9150509250929050565b612b5181612a1d565b82525050565b6000602082019050612b6c6000830184612b48565b92915050565b600081519050919050565b600082825260208201905092915050565b6000819050602082019050919050565b612ba781612a1d565b82525050565b6000612bb98383612b9e565b60208301905092915050565b6000602082019050919050565b6000612bdd82612b72565b612be78185612b7d565b9350612bf283612b8e565b8060005b83811015612c23578151612c0a8882612bad565b9750612c1583612bc5565b925050600181019050612bf6565b5085935050505092915050565b60006020820190508181036000830152612c4a8184612bd2565b905092915050565b600080600060608486031215612c6b57612c6a61289d565b5b6000612c7986828701612af3565b9350506020612c8a86828701612af3565b9250506040612c9b86828701612a3e565b9150509250925092565b600060208284031215612cbb57612cba61289d565b5b6000612cc984828501612af3565b91505092915050565b600081519050919050565b600082825260208201905092915050565b6000819050602082019050919050565b600082825260208201905092915050565b6000612d1a82612962565b612d248185612cfe565b9350612d3481856020860161297e565b612d3d816129b1565b840191505092915050565b6000606083016000830151612d606000860182612b9e565b5060208301518482036020860152612d788282612d0f565b9150506040830151612d8d6040860182612b9e565b508091505092915050565b6000612da48383612d48565b905092915050565b6000602082019050919050565b6000612dc482612cd2565b612dce8185612cdd565b935083602082028501612de085612cee565b8060005b85811015612e1c5784840389528151612dfd8582612d98565b9450612e0883612dac565b925060208a01995050600181019050612de4565b50829750879550505050505092915050565b60006020820190508181036000830152612e488184612db9565b905092915050565b612e598161292c565b8114612e6457600080fd5b50565b600081359050612e7681612e50565b92915050565b60008060408385031215612e9357612e9261289d565b5b6000612ea185828601612af3565b9250506020612eb285828601612e67565b9150509250929050565b600080fd5b600080fd5b7f4e487b7100000000000000000000000000000000000000000000000000000000600052604160045260246000fd5b612efe826129b1565b810181811067ffffffffffffffff82111715612f1d57612f1c612ec6565b5b80604052505050565b6000612f30612893565b9050612f3c8282612ef5565b919050565b600067ffffffffffffffff821115612f5c57612f5b612ec6565b5b612f65826129b1565b9050602081019050919050565b82818337600083830152505050565b6000612f94612f8f84612f41565b612f26565b905082815260208101848484011115612fb057612faf612ec1565b5b612fbb848285612f72565b509392505050565b600082601f830112612fd857612fd7612ebc565b5b8135612fe8848260208601612f81565b91505092915050565b6000806000806080858703121561300b5761300a61289d565b5b600061301987828801612af3565b945050602061302a87828801612af3565b935050604061303b87828801612a3e565b925050606085013567ffffffffffffffff81111561305c5761305b6128a2565b5b61306887828801612fc3565b91505092959194509250565b6000806040838503121561308b5761308a61289d565b5b600061309985828601612a3e565b92505060206130aa85828601612a3e565b9150509250929050565b6000602082840312156130ca576130c961289d565b5b60006130d884828501612e67565b91505092915050565b600080604083850312156130f8576130f761289d565b5b600061310685828601612af3565b925050602061311785828601612af3565b9150509250929050565b600067ffffffffffffffff82111561313c5761313b612ec6565b5b613145826129b1565b9050602081019050919050565b600061316561316084613121565b612f26565b90508281526020810184848401111561318157613180612ec1565b5b61318c848285612f72565b509392505050565b600082601f8301126131a9576131a8612ebc565b5b81356131b9848260208601613152565b91505092915050565b6000602082840312156131d8576131d761289d565b5b600082013567ffffffffffffffff8111156131f6576131f56128a2565b5b61320284828501613194565b91505092915050565b7f4e487b7100000000000000000000000000000000000000000000000000000000600052602260045260246000fd5b6000600282049050600182168061325257607f821691505b6020821081036132655761326461320b565b5b50919050565b7f4552433732313a20617070726f76616c20746f2063757272656e74206f776e6560008201527f7200000000000000000000000000000000000000000000000000000000000000602082015250565b60006132c760218361296d565b91506132d28261326b565b604082019050919050565b600060208201905081810360008301526132f6816132ba565b9050919050565b7f4552433732313a20617070726f76652063616c6c6572206973206e6f7420746f60008201527f6b656e206f776e6572206e6f7220617070726f76656420666f7220616c6c0000602082015250565b6000613359603e8361296d565b9150613364826132fd565b604082019050919050565b600060208201905081810360008301526133888161334c565b9050919050565b7f4552433732313a2063616c6c6572206973206e6f7420746f6b656e206f776e6560008201527f72206e6f7220617070726f766564000000000000000000000000000000000000602082015250565b60006133eb602e8361296d565b91506133f68261338f565b604082019050919050565b6000602082019050818103600083015261341a816133de565b9050919050565b7f455243373231456e756d657261626c653a206f776e657220696e646578206f7560008201527f74206f6620626f756e6473000000000000000000000000000000000000000000602082015250565b600061347d602b8361296d565b915061348882613421565b604082019050919050565b600060208201905081810360008301526134ac81613470565b9050919050565b7f6d73672e73656e646572206973206e6f7420746865206f776e6572206f66207460008201527f686520746f6b656e000000000000000000000000000000000000000000000000602082015250565b600061350f60288361296d565b915061351a826134b3565b604082019050919050565b6000602082019050818103600083015261353e81613502565b9050919050565b7f455243373231456e756d657261626c653a20676c6f62616c20696e646578206f60008201527f7574206f6620626f756e64730000000000000000000000000000000000000000602082015250565b60006135a1602c8361296d565b91506135ac82613545565b604082019050919050565b600060208201905081810360008301526135d081613594565b9050919050565b7f4e487b7100000000000000000000000000000000000000000000000000000000600052603260045260246000fd5b7f4552433732313a20696e76616c696420746f6b656e2049440000000000000000600082015250565b600061363c60188361296d565b915061364782613606565b602082019050919050565b6000602082019050818103600083015261366b8161362f565b9050919050565b7f4552433732313a2061646472657373207a65726f206973206e6f74206120766160008201527f6c6964206f776e65720000000000000000000000000000000000000000000000602082015250565b60006136ce60298361296d565b91506136d982613672565b604082019050919050565b600060208201905081810360008301526136fd816136c1565b9050919050565b7f4e487b7100000000000000000000000000000000000000000000000000000000600052601160045260246000fd5b600061373e82612a1d565b91507fffffffffffffffffffffffffffffffffffffffffffffffffffffffffffffffff82036137705761376f613704565b5b600182019050919050565b7f43616c6c6572206973206e6f74206e667420746f6b656e206f776e65722e0000600082015250565b60006137b1601e8361296d565b91506137bc8261377b565b602082019050919050565b600060208201905081810360008301526137e0816137a4565b9050919050565b7f5072696365206973207a65726f206f72206c6f7765722e000000000000000000600082015250565b600061381d60178361296d565b9150613828826137e7565b602082019050919050565b6000602082019050818103600083015261384c81613810565b9050919050565b7f54686973206e667420746f6b656e20697320616c7265616479206f6e2073616c60008201527f652e000000000000000000000000000000000000000000000000000000000000602082015250565b60006138af60228361296d565b91506138ba82613853565b604082019050919050565b600060208201905081810360008301526138de816138a2565b9050919050565b7f6e667420746f6b656e206f776e657220646964206e6f7420617070726f76652060008201527f746f6b656e2e0000000000000000000000000000000000000000000000000000602082015250565b600061394160268361296d565b915061394c826138e5565b604082019050919050565b6000602082019050818103600083015261397081613934565b9050919050565b7f6e667420746f6b656e206e6f742073616c652e00000000000000000000000000600082015250565b60006139ad60138361296d565b91506139b882613977565b602082019050919050565b600060208201905081810360008301526139dc816139a0565b9050919050565b7f63616c6c65722073656e74206c6f776572207468616e2070726963652e000000600082015250565b6000613a19601d8361296d565b9150613a24826139e3565b602082019050919050565b60006020820190508181036000830152613a4881613a0c565b9050919050565b7f63616c6c6572206973206e667420746f6b656e206f776e65722e000000000000600082015250565b6000613a85601a8361296d565b9150613a9082613a4f565b602082019050919050565b60006020820190508181036000830152613ab481613a78565b9050919050565b6000606082019050613ad06000830186612ab2565b613add6020830185612ab2565b613aea6040830184612b48565b949350505050565b60008190508160005260206000209050919050565b60006020601f8301049050919050565b600082821b905092915050565b600060088302613b547fffffffffffffffffffffffffffffffffffffffffffffffffffffffffffffffff82613b17565b613b5e8683613b17565b95508019841693508086168417925050509392505050565b6000819050919050565b6000613b9b613b96613b9184612a1d565b613b76565b612a1d565b9050919050565b6000819050919050565b613bb583613b80565b613bc9613bc182613ba2565b848454613b24565b825550505050565b600090565b613bde613bd1565b613be9818484613bac565b505050565b5b81811015613c0d57613c02600082613bd6565b600181019050613bef565b5050565b601f821115613c5257613c2381613af2565b613c2c84613b07565b81016020851015613c3b578190505b613c4f613c4785613b07565b830182613bee565b50505b505050565b600082821c905092915050565b6000613c7560001984600802613c57565b1980831691505092915050565b6000613c8e8383613c64565b9150826002028217905092915050565b613ca782612962565b67ffffffffffffffff811115613cc057613cbf612ec6565b5b613cca825461323a565b613cd5828285613c11565b600060209050601f831160018114613d085760008415613cf6578287015190505b613d008582613c82565b865550613d68565b601f198416613d1686613af2565b60005b82811015613d3e57848901518255600182019150602085019450602081019050613d19565b86831015613d5b5784890151613d57601f891682613c64565b8355505b6001600288020188555050505b505050505050565b7f4552433732313a207472616e736665722066726f6d20696e636f72726563742060008201527f6f776e6572000000000000000000000000000000000000000000000000000000602082015250565b6000613dcc60258361296d565b9150613dd782613d70565b604082019050919050565b60006020820190508181036000830152613dfb81613dbf565b9050919050565b7f4552433732313a207472616e7366657220746f20746865207a65726f2061646460008201527f7265737300000000000000000000000000000000000000000000000000000000602082015250565b6000613e5e60248361296d565b9150613e6982613e02565b604082019050919050565b60006020820190508181036000830152613e8d81613e51565b9050919050565b6000613e9f82612a1d565b9150613eaa83612a1d565b925082821015613ebd57613ebc613704565b5b828203905092915050565b6000613ed382612a1d565b9150613ede83612a1d565b9250827fffffffffffffffffffffffffffffffffffffffffffffffffffffffffffffffff03821115613f1357613f12613704565b5b828201905092915050565b7f4e487b7100000000000000000000000000000000000000000000000000000000600052603160045260246000fd5b7f4552433732313a20617070726f766520746f2063616c6c657200000000000000600082015250565b6000613f8360198361296d565b9150613f8e82613f4d565b602082019050919050565b60006020820190508181036000830152613fb281613f76565b9050919050565b7f4552433732313a207472616e7366657220746f206e6f6e20455243373231526560008201527f63656976657220696d706c656d656e7465720000000000000000000000000000602082015250565b600061401560328361296d565b915061402082613fb9565b604082019050919050565b6000602082019050818103600083015261404481614008565b9050919050565b7f4552433732313a206d696e7420746f20746865207a65726f2061646472657373600082015250565b600061408160208361296d565b915061408c8261404b565b602082019050919050565b600060208201905081810360008301526140b081614074565b9050919050565b7f4552433732313a20746f6b656e20616c7265616479206d696e74656400000000600082015250565b60006140ed601c8361296d565b91506140f8826140b7565b602082019050919050565b6000602082019050818103600083015261411c816140e0565b9050919050565b600081519050919050565b600082825260208201905092915050565b600061414a82614123565b614154818561412e565b935061416481856020860161297e565b61416d816129b1565b840191505092915050565b600060808201905061418d6000830187612ab2565b61419a6020830186612ab2565b6141a76040830185612b48565b81810360608301526141b9818461413f565b905095945050505050565b6000815190506141d3816128d3565b92915050565b6000602082840312156141ef576141ee61289d565b5b60006141fd848285016141c4565b9150509291505056fea264697066735822122098fd497a5ad89e38b0254496181bd216bb00f0bc2ce1039d02b79d3dd350ac5264736f6c634300080f0033",
  "immutableReferences": {},
  "source": "// SPDX-License-Identifier: MIT\npragma solidity ^0.8.0;\n\nimport \"@openzeppelin/contracts/token/ERC721/extensions/ERC721Enumerable.sol\";\n// openzeppelin/contracts     ERC721\nimport \"@openzeppelin/contracts/utils/Counters.sol\";\n// openzeppelin count \n// library .\n\ncontract MintNFT is  ERC721Enumerable {\n    using Counters for Counters.Counter;\n    \n    Counters.Counter private _tokenIds;\n\n    // constructor(string memory _name, string memory _symbol) ERC721(_name, _symbol) {}\n    constructor() ERC721(\"SDD\", \"SDD_symbol\") {}\n    // symbol =   ethereum\n    // name = \n\n    mapping(uint =>string ) public tokenURIs ;\n\n    function tokenURI(uint _tokenId) override public view returns (string memory) {\n        return  tokenURIs[_tokenId] ;\n    }\n\n    function mintNFT( string memory _tokenURI) public  returns (uint256) {\n        _tokenIds.increment();\n        // tokenIds  1.\n\n        uint256 tokenId = _tokenIds.current();\n        // 1 tokenIds  .\n        tokenURIs[tokenId] = _tokenURI;\n\n        _mint(msg.sender, tokenId);\n        // msg.sender  \n        return tokenId;\n    }\n\n    struct NftTokenData {\n        uint256 nftTokenId;\n        string  nftTokenURI ;\n        uint price ;        \n    }\n    //    \n\n    function setApprovalForAll(bool approved) public virtual {\n        _setApprovalForAll(msg.sender, address(this), approved);\n    }\n    //   \n\n\n// My NFT\n    function getNftTokens(address _nftTokenOwner) view public returns (NftTokenData[] memory) {\n        uint256 balanceLength = balanceOf(_nftTokenOwner);\n        //balanceOf    \n        //require(balanceLength != 0, \"Owner did not have token.\");\n\n        NftTokenData[] memory nftTokenData = new NftTokenData[](balanceLength);\n\n        for(uint256 i = 0; i < balanceLength; i++) {\n            uint256 nftTokenId = tokenOfOwnerByIndex(_nftTokenOwner, i);\n            string memory nftTokenURI = tokenURI(nftTokenId);   \n            uint tokenPrice = getNftTokenPrice(nftTokenId);\n            nftTokenData[i] = NftTokenData(nftTokenId , nftTokenURI, tokenPrice );\n        }\n\n        return nftTokenData;\n\n    }\n\n    // \n    mapping(uint256 => uint256) public nftTokenPrices;\n    uint256[] public onSaleNftTokenArray;\n\n    function setSaleNftToken(uint256 _tokenId, uint256 _price) public {\n        address nftTokenOwner = ownerOf(_tokenId);\n        setApprovalForAll(true);\n\n        require(nftTokenOwner == msg.sender, \"Caller is not nft token owner.\");\n        require(_price > 0, \"Price is zero or lower.\");\n        require(nftTokenPrices[_tokenId] == 0, \"This nft token is already on sale.\");\n        require(isApprovedForAll(nftTokenOwner, address(this)), \"nft token owner did not approve token.\");\n\n        nftTokenPrices[_tokenId] = _price;\n        onSaleNftTokenArray.push(_tokenId); // nft list\n\n    }\n\n    // \n    function getSaleNftTokens() public view returns (NftTokenData[] memory ){\n        uint[] memory onSaleNftToken = getSaleNftToken();\n        NftTokenData[] memory onSaleNftTokens = new NftTokenData[](onSaleNftToken.length);\n\n        for(uint i = 0; i < onSaleNftToken.length; i ++){\n            uint tokenId = onSaleNftToken[i];\n            uint tokenPrice = getNftTokenPrice(tokenId);\n            onSaleNftTokens[i] = NftTokenData(tokenId, tokenURI(tokenId), tokenPrice) ;\n        }\n\n        return onSaleNftTokens;\n    }\n\n\n    function getSaleNftToken() view public returns (uint[] memory ){\n        return onSaleNftTokenArray ;\n    }\n\n\n    function getNftTokenPrice(uint256 _tokenId) view public returns(uint256){\n        return nftTokenPrices[_tokenId];\n    }\n\n\n    //\n    function buyNftToken(uint256 _tokenId) public payable {\n        uint256 price = nftTokenPrices[_tokenId];\n        address nftTokenOwner = ownerOf(_tokenId);\n        setApprovalForAll(true);\n\n        require(price > 0, \"nft token not sale.\");\n        require(price  <= msg.value, \"caller sent lower than price.\");\n        require(nftTokenOwner != msg.sender,\"caller is nft token owner.\");\n        require(isApprovedForAll(nftTokenOwner, address(this)), \"nft token owner did not approve token.\");\n\n\n        payable(nftTokenOwner).transfer(msg.value);\n\n        IERC721(address(this)).safeTransferFrom(nftTokenOwner, msg.sender, _tokenId);\n\n\n        //  \n        removeToken(_tokenId);        \n\n    }\n\n    function burn( uint256 _tokenId) public{\n        address addr_owner = ownerOf(_tokenId);\n        require( addr_owner == msg.sender, \"msg.sender is not the owner of the token\");\n        _burn(_tokenId);\n        removeToken(_tokenId);\n    }\n\n    function removeToken(uint256 _tokenId) private {\n                \n        nftTokenPrices[_tokenId] = 0;\n\n        for(uint256 i = 0; i<onSaleNftTokenArray.length; i ++){\n            if(nftTokenPrices[onSaleNftTokenArray[i]] ==0){\n                onSaleNftTokenArray[i] = onSaleNftTokenArray[onSaleNftTokenArray.length -1] ;\n                onSaleNftTokenArray.pop();\n            }\n        }\n    } \n}\n\n",
  "sourcePath": "/Users/ieunchong/Desktop/SDD_SmartContract/contracts/MintNFT.sol",
  "compiler": {
    "name": "solc",
    "version": "0.8.15+commit.e14f2714.Emscripten.clang"
  },
  "schemaVersion": "3.4.8",
  "updatedAt": "2022-07-31T08:59:04.561Z",
  "networkType": "ethereum",
  "devdoc": {
    "kind": "dev",
    "methods": {
      "approve(address,uint256)": {
        "details": "See {IERC721-approve}."
      },
      "balanceOf(address)": {
        "details": "See {IERC721-balanceOf}."
      },
      "getApproved(uint256)": {
        "details": "See {IERC721-getApproved}."
      },
      "isApprovedForAll(address,address)": {
        "details": "See {IERC721-isApprovedForAll}."
      },
      "name()": {
        "details": "See {IERC721Metadata-name}."
      },
      "ownerOf(uint256)": {
        "details": "See {IERC721-ownerOf}."
      },
      "safeTransferFrom(address,address,uint256)": {
        "details": "See {IERC721-safeTransferFrom}."
      },
      "safeTransferFrom(address,address,uint256,bytes)": {
        "details": "See {IERC721-safeTransferFrom}."
      },
      "setApprovalForAll(address,bool)": {
        "details": "See {IERC721-setApprovalForAll}."
      },
      "supportsInterface(bytes4)": {
        "details": "See {IERC165-supportsInterface}."
      },
      "symbol()": {
        "details": "See {IERC721Metadata-symbol}."
      },
      "tokenByIndex(uint256)": {
        "details": "See {IERC721Enumerable-tokenByIndex}."
      },
      "tokenOfOwnerByIndex(address,uint256)": {
        "details": "See {IERC721Enumerable-tokenOfOwnerByIndex}."
      },
      "totalSupply()": {
        "details": "See {IERC721Enumerable-totalSupply}."
      },
      "transferFrom(address,address,uint256)": {
        "details": "See {IERC721-transferFrom}."
      }
    },
    "version": 1
  },
  "userdoc": {
    "kind": "user",
    "methods": {},
    "version": 1
  }
}