{
  "contractName": "MintNFT",
  "abi": [
    {
      "inputs": [],
      "stateMutability": "nonpayable",
      "type": "constructor"
    },
    {
      "anonymous": false,
      "inputs": [
        {
          "indexed": true,
          "internalType": "address",
          "name": "owner",
          "type": "address"
        },
        {
          "indexed": true,
          "internalType": "address",
          "name": "approved",
          "type": "address"
        },
        {
          "indexed": true,
          "internalType": "uint256",
          "name": "tokenId",
          "type": "uint256"
        }
      ],
      "name": "Approval",
      "type": "event"
    },
    {
      "anonymous": false,
      "inputs": [
        {
          "indexed": true,
          "internalType": "address",
          "name": "owner",
          "type": "address"
        },
        {
          "indexed": true,
          "internalType": "address",
          "name": "operator",
          "type": "address"
        },
        {
          "indexed": false,
          "internalType": "bool",
          "name": "approved",
          "type": "bool"
        }
      ],
      "name": "ApprovalForAll",
      "type": "event"
    },
    {
      "anonymous": false,
      "inputs": [
        {
          "indexed": true,
          "internalType": "address",
          "name": "from",
          "type": "address"
        },
        {
          "indexed": true,
          "internalType": "address",
          "name": "to",
          "type": "address"
        },
        {
          "indexed": true,
          "internalType": "uint256",
          "name": "tokenId",
          "type": "uint256"
        }
      ],
      "name": "Transfer",
      "type": "event"
    },
    {
      "inputs": [
        {
          "internalType": "address",
          "name": "to",
          "type": "address"
        },
        {
          "internalType": "uint256",
          "name": "tokenId",
          "type": "uint256"
        }
      ],
      "name": "approve",
      "outputs": [],
      "stateMutability": "nonpayable",
      "type": "function"
    },
    {
      "inputs": [
        {
          "internalType": "address",
          "name": "owner",
          "type": "address"
        }
      ],
      "name": "balanceOf",
      "outputs": [
        {
          "internalType": "uint256",
          "name": "",
          "type": "uint256"
        }
      ],
      "stateMutability": "view",
      "type": "function",
      "constant": true
    },
    {
      "inputs": [
        {
          "internalType": "uint256",
          "name": "tokenId",
          "type": "uint256"
        }
      ],
      "name": "getApproved",
      "outputs": [
        {
          "internalType": "address",
          "name": "",
          "type": "address"
        }
      ],
      "stateMutability": "view",
      "type": "function",
      "constant": true
    },
    {
      "inputs": [
        {
          "internalType": "address",
          "name": "owner",
          "type": "address"
        },
        {
          "internalType": "address",
          "name": "operator",
          "type": "address"
        }
      ],
      "name": "isApprovedForAll",
      "outputs": [
        {
          "internalType": "bool",
          "name": "",
          "type": "bool"
        }
      ],
      "stateMutability": "view",
      "type": "function",
      "constant": true
    },
    {
      "inputs": [],
      "name": "name",
      "outputs": [
        {
          "internalType": "string",
          "name": "",
          "type": "string"
        }
      ],
      "stateMutability": "view",
      "type": "function",
      "constant": true
    },
    {
      "inputs": [
        {
          "internalType": "uint256",
          "name": "",
          "type": "uint256"
        }
      ],
      "name": "nftTokenPrices",
      "outputs": [
        {
          "internalType": "uint256",
          "name": "",
          "type": "uint256"
        }
      ],
      "stateMutability": "view",
      "type": "function",
      "constant": true
    },
    {
      "inputs": [
        {
          "internalType": "uint256",
          "name": "",
          "type": "uint256"
        }
      ],
      "name": "onSaleNftTokenArray",
      "outputs": [
        {
          "internalType": "uint256",
          "name": "",
          "type": "uint256"
        }
      ],
      "stateMutability": "view",
      "type": "function",
      "constant": true
    },
    {
      "inputs": [
        {
          "internalType": "uint256",
          "name": "tokenId",
          "type": "uint256"
        }
      ],
      "name": "ownerOf",
      "outputs": [
        {
          "internalType": "address",
          "name": "",
          "type": "address"
        }
      ],
      "stateMutability": "view",
      "type": "function",
      "constant": true
    },
    {
      "inputs": [
        {
          "internalType": "address",
          "name": "from",
          "type": "address"
        },
        {
          "internalType": "address",
          "name": "to",
          "type": "address"
        },
        {
          "internalType": "uint256",
          "name": "tokenId",
          "type": "uint256"
        }
      ],
      "name": "safeTransferFrom",
      "outputs": [],
      "stateMutability": "nonpayable",
      "type": "function"
    },
    {
      "inputs": [
        {
          "internalType": "address",
          "name": "from",
          "type": "address"
        },
        {
          "internalType": "address",
          "name": "to",
          "type": "address"
        },
        {
          "internalType": "uint256",
          "name": "tokenId",
          "type": "uint256"
        },
        {
          "internalType": "bytes",
          "name": "data",
          "type": "bytes"
        }
      ],
      "name": "safeTransferFrom",
      "outputs": [],
      "stateMutability": "nonpayable",
      "type": "function"
    },
    {
      "inputs": [
        {
          "internalType": "address",
          "name": "operator",
          "type": "address"
        },
        {
          "internalType": "bool",
          "name": "approved",
          "type": "bool"
        }
      ],
      "name": "setApprovalForAll",
      "outputs": [],
      "stateMutability": "nonpayable",
      "type": "function"
    },
    {
      "inputs": [
        {
          "internalType": "bytes4",
          "name": "interfaceId",
          "type": "bytes4"
        }
      ],
      "name": "supportsInterface",
      "outputs": [
        {
          "internalType": "bool",
          "name": "",
          "type": "bool"
        }
      ],
      "stateMutability": "view",
      "type": "function",
      "constant": true
    },
    {
      "inputs": [],
      "name": "symbol",
      "outputs": [
        {
          "internalType": "string",
          "name": "",
          "type": "string"
        }
      ],
      "stateMutability": "view",
      "type": "function",
      "constant": true
    },
    {
      "inputs": [
        {
          "internalType": "uint256",
          "name": "index",
          "type": "uint256"
        }
      ],
      "name": "tokenByIndex",
      "outputs": [
        {
          "internalType": "uint256",
          "name": "",
          "type": "uint256"
        }
      ],
      "stateMutability": "view",
      "type": "function",
      "constant": true
    },
    {
      "inputs": [
        {
          "internalType": "address",
          "name": "owner",
          "type": "address"
        },
        {
          "internalType": "uint256",
          "name": "index",
          "type": "uint256"
        }
      ],
      "name": "tokenOfOwnerByIndex",
      "outputs": [
        {
          "internalType": "uint256",
          "name": "",
          "type": "uint256"
        }
      ],
      "stateMutability": "view",
      "type": "function",
      "constant": true
    },
    {
      "inputs": [
        {
          "internalType": "uint256",
          "name": "",
          "type": "uint256"
        }
      ],
      "name": "tokenURIs",
      "outputs": [
        {
          "internalType": "string",
          "name": "",
          "type": "string"
        }
      ],
      "stateMutability": "view",
      "type": "function",
      "constant": true
    },
    {
      "inputs": [],
      "name": "totalSupply",
      "outputs": [
        {
          "internalType": "uint256",
          "name": "",
          "type": "uint256"
        }
      ],
      "stateMutability": "view",
      "type": "function",
      "constant": true
    },
    {
      "inputs": [
        {
          "internalType": "address",
          "name": "from",
          "type": "address"
        },
        {
          "internalType": "address",
          "name": "to",
          "type": "address"
        },
        {
          "internalType": "uint256",
          "name": "tokenId",
          "type": "uint256"
        }
      ],
      "name": "transferFrom",
      "outputs": [],
      "stateMutability": "nonpayable",
      "type": "function"
    },
    {
      "inputs": [
        {
          "internalType": "uint256",
          "name": "_tokenId",
          "type": "uint256"
        }
      ],
      "name": "tokenURI",
      "outputs": [
        {
          "internalType": "string",
          "name": "",
          "type": "string"
        }
      ],
      "stateMutability": "view",
      "type": "function",
      "constant": true
    },
    {
      "inputs": [
        {
          "internalType": "string",
          "name": "_tokenURI",
          "type": "string"
        }
      ],
      "name": "mintNFT",
      "outputs": [
        {
          "internalType": "uint256",
          "name": "",
          "type": "uint256"
        }
      ],
      "stateMutability": "nonpayable",
      "type": "function"
    },
    {
      "inputs": [
        {
          "internalType": "address",
          "name": "_nftTokenOwner",
          "type": "address"
        }
      ],
      "name": "getNftTokens",
      "outputs": [
        {
          "components": [
            {
              "internalType": "uint256",
              "name": "nftTokenId",
              "type": "uint256"
            },
            {
              "internalType": "string",
              "name": "nftTokenURI",
              "type": "string"
            },
            {
              "internalType": "uint256",
              "name": "price",
              "type": "uint256"
            }
          ],
          "internalType": "struct MintNFT.NftTokenData[]",
          "name": "",
          "type": "tuple[]"
        }
      ],
      "stateMutability": "view",
      "type": "function",
      "constant": true
    },
    {
      "inputs": [
        {
          "internalType": "uint256",
          "name": "_tokenId",
          "type": "uint256"
        },
        {
          "internalType": "uint256",
          "name": "_price",
          "type": "uint256"
        }
      ],
      "name": "setSaleNftToken",
      "outputs": [],
      "stateMutability": "nonpayable",
      "type": "function"
    },
    {
      "inputs": [],
      "name": "getSaleNftTokens",
      "outputs": [
        {
          "components": [
            {
              "internalType": "uint256",
              "name": "nftTokenId",
              "type": "uint256"
            },
            {
              "internalType": "string",
              "name": "nftTokenURI",
              "type": "string"
            },
            {
              "internalType": "uint256",
              "name": "price",
              "type": "uint256"
            }
          ],
          "internalType": "struct MintNFT.NftTokenData[]",
          "name": "",
          "type": "tuple[]"
        }
      ],
      "stateMutability": "view",
      "type": "function",
      "constant": true
    },
    {
      "inputs": [],
      "name": "getSaleNftToken",
      "outputs": [
        {
          "internalType": "uint256[]",
          "name": "",
          "type": "uint256[]"
        }
      ],
      "stateMutability": "view",
      "type": "function",
      "constant": true
    },
    {
      "inputs": [
        {
          "internalType": "uint256",
          "name": "_tokenId",
          "type": "uint256"
        }
      ],
      "name": "getNftTokenPrice",
      "outputs": [
        {
          "internalType": "uint256",
          "name": "",
          "type": "uint256"
        }
      ],
      "stateMutability": "view",
      "type": "function",
      "constant": true
    },
    {
      "inputs": [
        {
          "internalType": "uint256",
          "name": "_tokenId",
          "type": "uint256"
        }
      ],
      "name": "buyNftToken",
      "outputs": [],
      "stateMutability": "payable",
      "type": "function",
      "payable": true
    },
    {
      "inputs": [
        {
          "internalType": "uint256",
          "name": "_tokenId",
          "type": "uint256"
        }
      ],
      "name": "burn",
      "outputs": [],
      "stateMutability": "nonpayable",
      "type": "function"
    }
  ],
  "bytecode": "0x60806040523480156200001157600080fd5b506040518060400160405280600381526020017f53444400000000000000000000000000000000000000000000000000000000008152506040518060400160405280600a81526020017f5344445f73796d626f6c0000000000000000000000000000000000000000000081525081600090816200008f919062000324565b508060019081620000a1919062000324565b5050506200040b565b600081519050919050565b7f4e487b7100000000000000000000000000000000000000000000000000000000600052604160045260246000fd5b7f4e487b7100000000000000000000000000000000000000000000000000000000600052602260045260246000fd5b600060028204905060018216806200012c57607f821691505b602082108103620001425762000141620000e4565b5b50919050565b60008190508160005260206000209050919050565b60006020601f8301049050919050565b600082821b905092915050565b600060088302620001ac7fffffffffffffffffffffffffffffffffffffffffffffffffffffffffffffffff826200016d565b620001b886836200016d565b95508019841693508086168417925050509392505050565b6000819050919050565b6000819050919050565b600062000205620001ff620001f984620001d0565b620001da565b620001d0565b9050919050565b6000819050919050565b6200022183620001e4565b6200023962000230826200020c565b8484546200017a565b825550505050565b600090565b6200025062000241565b6200025d81848462000216565b505050565b5b8181101562000285576200027960008262000246565b60018101905062000263565b5050565b601f821115620002d4576200029e8162000148565b620002a9846200015d565b81016020851015620002b9578190505b620002d1620002c8856200015d565b83018262000262565b50505b505050565b600082821c905092915050565b6000620002f960001984600802620002d9565b1980831691505092915050565b6000620003148383620002e6565b9150826002028217905092915050565b6200032f82620000aa565b67ffffffffffffffff8111156200034b576200034a620000b5565b5b62000357825462000113565b6200036482828562000289565b600060209050601f8311600181146200039c576000841562000387578287015190505b62000393858262000306565b86555062000403565b601f198416620003ac8662000148565b60005b82811015620003d657848901518255600182019150602085019450602081019050620003af565b86831015620003f65784890151620003f2601f891682620002e6565b8355505b6001600288020188555050505b505050505050565b6141a9806200041b6000396000f3fe60806040526004361061019c5760003560e01c80636c8b703f116100ec578063b88d4fde1161008a578063da8cc6e811610064578063da8cc6e814610636578063e985e9c514610652578063f257f5481461068f578063fb37e883146106cc5761019c565b8063b88d4fde146105a7578063b8e297f4146105d0578063c87b56dd146105f95761019c565b806374a6b54f116100c657806374a6b54f146104eb578063912c45cf1461051657806395d89b4114610553578063a22cb4651461057e5761019c565b80636c8b703f1461043457806370a082311461047157806373e778c5146104ae5761019c565b806323b872dd1161015957806342966c681161013357806342966c68146103545780634ae23e641461037d5780634f6ccce7146103ba5780636352211e146103f75761019c565b806323b872dd146102c55780632f745c59146102ee57806342842e0e1461032b5761019c565b806301ffc9a7146101a157806306fdde03146101de578063081812fc14610209578063095ea7b31461024657806318160ddd1461026f5780631efceb901461029a575b600080fd5b3480156101ad57600080fd5b506101c860048036038101906101c39190612899565b610709565b6040516101d591906128e1565b60405180910390f35b3480156101ea57600080fd5b506101f3610783565b6040516102009190612995565b60405180910390f35b34801561021557600080fd5b50610230600480360381019061022b91906129ed565b610815565b60405161023d9190612a5b565b60405180910390f35b34801561025257600080fd5b5061026d60048036038101906102689190612aa2565b61085b565b005b34801561027b57600080fd5b50610284610972565b6040516102919190612af1565b60405180910390f35b3480156102a657600080fd5b506102af61097f565b6040516102bc9190612bca565b60405180910390f35b3480156102d157600080fd5b506102ec60048036038101906102e79190612bec565b6109d7565b005b3480156102fa57600080fd5b5061031560048036038101906103109190612aa2565b610a37565b6040516103229190612af1565b60405180910390f35b34801561033757600080fd5b50610352600480360381019061034d9190612bec565b610adc565b005b34801561036057600080fd5b5061037b600480360381019061037691906129ed565b610afc565b005b34801561038957600080fd5b506103a4600480360381019061039f91906129ed565b610b8d565b6040516103b19190612af1565b60405180910390f35b3480156103c657600080fd5b506103e160048036038101906103dc91906129ed565b610ba5565b6040516103ee9190612af1565b60405180910390f35b34801561040357600080fd5b5061041e600480360381019061041991906129ed565b610c16565b60405161042b9190612a5b565b60405180910390f35b34801561044057600080fd5b5061045b600480360381019061045691906129ed565b610cc7565b6040516104689190612995565b60405180910390f35b34801561047d57600080fd5b5061049860048036038101906104939190612c3f565b610d67565b6040516104a59190612af1565b60405180910390f35b3480156104ba57600080fd5b506104d560048036038101906104d091906129ed565b610e1e565b6040516104e29190612af1565b60405180910390f35b3480156104f757600080fd5b50610500610e42565b60405161050d9190612dc8565b60405180910390f35b34801561052257600080fd5b5061053d600480360381019061053891906129ed565b610f40565b60405161054a9190612af1565b60405180910390f35b34801561055f57600080fd5b50610568610f5d565b6040516105759190612995565b60405180910390f35b34801561058a57600080fd5b506105a560048036038101906105a09190612e16565b610fef565b005b3480156105b357600080fd5b506105ce60048036038101906105c99190612f8b565b611005565b005b3480156105dc57600080fd5b506105f760048036038101906105f2919061300e565b611067565b005b34801561060557600080fd5b50610620600480360381019061061b91906129ed565b61120a565b60405161062d9190612995565b60405180910390f35b610650600480360381019061064b91906129ed565b6112af565b005b34801561065e57600080fd5b506106796004803603810190610674919061304e565b6114d5565b60405161068691906128e1565b60405180910390f35b34801561069b57600080fd5b506106b660048036038101906106b19190612c3f565b611569565b6040516106c39190612dc8565b60405180910390f35b3480156106d857600080fd5b506106f360048036038101906106ee919061312f565b61165d565b6040516107009190612af1565b60405180910390f35b60007f780e9d63000000000000000000000000000000000000000000000000000000007bffffffffffffffffffffffffffffffffffffffffffffffffffffffff1916827bffffffffffffffffffffffffffffffffffffffffffffffffffffffff1916148061077c575061077b826116ab565b5b9050919050565b606060008054610792906131a7565b80601f01602080910402602001604051908101604052809291908181526020018280546107be906131a7565b801561080b5780601f106107e05761010080835404028352916020019161080b565b820191906000526020600020905b8154815290600101906020018083116107ee57829003601f168201915b5050505050905090565b60006108208261178d565b6004600083815260200190815260200160002060009054906101000a900473ffffffffffffffffffffffffffffffffffffffff169050919050565b600061086682610c16565b90508073ffffffffffffffffffffffffffffffffffffffff168373ffffffffffffffffffffffffffffffffffffffff16036108d6576040517f08c379a00000000000000000000000000000000000000000000000000000000081526004016108cd9061324a565b60405180910390fd5b8073ffffffffffffffffffffffffffffffffffffffff166108f56117d8565b73ffffffffffffffffffffffffffffffffffffffff16148061092457506109238161091e6117d8565b6114d5565b5b610963576040517f08c379a000000000000000000000000000000000000000000000000000000000815260040161095a906132dc565b60405180910390fd5b61096d83836117e0565b505050565b6000600880549050905090565b6060600d8054806020026020016040519081016040528092919081815260200182805480156109cd57602002820191906000526020600020905b8154815260200190600101908083116109b9575b5050505050905090565b6109e86109e26117d8565b82611899565b610a27576040517f08c379a0000000000000000000000000000000000000000000000000000000008152600401610a1e9061336e565b60405180910390fd5b610a3283838361192e565b505050565b6000610a4283610d67565b8210610a83576040517f08c379a0000000000000000000000000000000000000000000000000000000008152600401610a7a90613400565b60405180910390fd5b600660008473ffffffffffffffffffffffffffffffffffffffff1673ffffffffffffffffffffffffffffffffffffffff168152602001908152602001600020600083815260200190815260200160002054905092915050565b610af783838360405180602001604052806000815250611005565b505050565b6000610b0782610c16565b90503373ffffffffffffffffffffffffffffffffffffffff168173ffffffffffffffffffffffffffffffffffffffff1614610b77576040517f08c379a0000000000000000000000000000000000000000000000000000000008152600401610b6e90613492565b60405180910390fd5b610b8082611b94565b610b8982611cb1565b5050565b600c6020528060005260406000206000915090505481565b6000610baf610972565b8210610bf0576040517f08c379a0000000000000000000000000000000000000000000000000000000008152600401610be790613524565b60405180910390fd5b60088281548110610c0457610c03613544565b5b90600052602060002001549050919050565b6000806002600084815260200190815260200160002060009054906101000a900473ffffffffffffffffffffffffffffffffffffffff169050600073ffffffffffffffffffffffffffffffffffffffff168173ffffffffffffffffffffffffffffffffffffffff1603610cbe576040517f08c379a0000000000000000000000000000000000000000000000000000000008152600401610cb5906135bf565b60405180910390fd5b80915050919050565b600b6020528060005260406000206000915090508054610ce6906131a7565b80601f0160208091040260200160405190810160405280929190818152602001828054610d12906131a7565b8015610d5f5780601f10610d3457610100808354040283529160200191610d5f565b820191906000526020600020905b815481529060010190602001808311610d4257829003601f168201915b505050505081565b60008073ffffffffffffffffffffffffffffffffffffffff168273ffffffffffffffffffffffffffffffffffffffff1603610dd7576040517f08c379a0000000000000000000000000000000000000000000000000000000008152600401610dce90613651565b60405180910390fd5b600360008373ffffffffffffffffffffffffffffffffffffffff1673ffffffffffffffffffffffffffffffffffffffff168152602001908152602001600020549050919050565b600d8181548110610e2e57600080fd5b906000526020600020016000915090505481565b60606000610e4e61097f565b90506000815167ffffffffffffffff811115610e6d57610e6c612e60565b5b604051908082528060200260200182016040528015610ea657816020015b610e9361280c565b815260200190600190039081610e8b5790505b50905060005b8251811015610f37576000838281518110610eca57610ec9613544565b5b602002602001015190506000610edf82610f40565b90506040518060600160405280838152602001610efb8461120a565b815260200182815250848481518110610f1757610f16613544565b5b602002602001018190525050508080610f2f906136a0565b915050610eac565b50809250505090565b6000600c6000838152602001908152602001600020549050919050565b606060018054610f6c906131a7565b80601f0160208091040260200160405190810160405280929190818152602001828054610f98906131a7565b8015610fe55780601f10610fba57610100808354040283529160200191610fe5565b820191906000526020600020905b815481529060010190602001808311610fc857829003601f168201915b5050505050905090565b611001610ffa6117d8565b8383611da5565b5050565b6110166110106117d8565b83611899565b611055576040517f08c379a000000000000000000000000000000000000000000000000000000000815260040161104c9061336e565b60405180910390fd5b61106184848484611f11565b50505050565b600061107283610c16565b90503373ffffffffffffffffffffffffffffffffffffffff168173ffffffffffffffffffffffffffffffffffffffff16146110e2576040517f08c379a00000000000000000000000000000000000000000000000000000000081526004016110d990613734565b60405180910390fd5b60008211611125576040517f08c379a000000000000000000000000000000000000000000000000000000000815260040161111c906137a0565b60405180910390fd5b6000600c6000858152602001908152602001600020541461117b576040517f08c379a000000000000000000000000000000000000000000000000000000000815260040161117290613832565b60405180910390fd5b61118581306114d5565b6111c4576040517f08c379a00000000000000000000000000000000000000000000000000000000081526004016111bb906138c4565b60405180910390fd5b81600c600085815260200190815260200160002081905550600d839080600181540180825580915050600190039060005260206000200160009091909190915055505050565b6060600b6000838152602001908152602001600020805461122a906131a7565b80601f0160208091040260200160405190810160405280929190818152602001828054611256906131a7565b80156112a35780601f10611278576101008083540402835291602001916112a3565b820191906000526020600020905b81548152906001019060200180831161128657829003601f168201915b50505050509050919050565b6000600c600083815260200190815260200160002054905060006112d283610c16565b905060008211611317576040517f08c379a000000000000000000000000000000000000000000000000000000000815260040161130e90613930565b60405180910390fd5b3482111561135a576040517f08c379a00000000000000000000000000000000000000000000000000000000081526004016113519061399c565b60405180910390fd5b3373ffffffffffffffffffffffffffffffffffffffff168173ffffffffffffffffffffffffffffffffffffffff16036113c8576040517f08c379a00000000000000000000000000000000000000000000000000000000081526004016113bf90613a08565b60405180910390fd5b6113d281306114d5565b611411576040517f08c379a0000000000000000000000000000000000000000000000000000000008152600401611408906138c4565b60405180910390fd5b8073ffffffffffffffffffffffffffffffffffffffff166108fc349081150290604051600060405180830381858888f19350505050158015611457573d6000803e3d6000fd5b503073ffffffffffffffffffffffffffffffffffffffff166342842e0e8233866040518463ffffffff1660e01b815260040161149593929190613a28565b600060405180830381600087803b1580156114af57600080fd5b505af11580156114c3573d6000803e3d6000fd5b505050506114d083611cb1565b505050565b6000600560008473ffffffffffffffffffffffffffffffffffffffff1673ffffffffffffffffffffffffffffffffffffffff16815260200190815260200160002060008373ffffffffffffffffffffffffffffffffffffffff1673ffffffffffffffffffffffffffffffffffffffff16815260200190815260200160002060009054906101000a900460ff16905092915050565b6060600061157683610d67565b905060008167ffffffffffffffff81111561159457611593612e60565b5b6040519080825280602002602001820160405280156115cd57816020015b6115ba61280c565b8152602001906001900390816115b25790505b50905060005b828110156116525760006115e78683610a37565b905060006115f48261120a565b9050600061160183610f40565b905060405180606001604052808481526020018381526020018281525085858151811061163157611630613544565b5b6020026020010181905250505050808061164a906136a0565b9150506115d3565b508092505050919050565b6000611669600a611f6d565b6000611675600a611f83565b905082600b600083815260200190815260200160002090816116979190613c0b565b506116a23382611f91565b80915050919050565b60007f80ac58cd000000000000000000000000000000000000000000000000000000007bffffffffffffffffffffffffffffffffffffffffffffffffffffffff1916827bffffffffffffffffffffffffffffffffffffffffffffffffffffffff1916148061177657507f5b5e139f000000000000000000000000000000000000000000000000000000007bffffffffffffffffffffffffffffffffffffffffffffffffffffffff1916827bffffffffffffffffffffffffffffffffffffffffffffffffffffffff1916145b8061178657506117858261216a565b5b9050919050565b611796816121d4565b6117d5576040517f08c379a00000000000000000000000000000000000000000000000000000000081526004016117cc906135bf565b60405180910390fd5b50565b600033905090565b816004600083815260200190815260200160002060006101000a81548173ffffffffffffffffffffffffffffffffffffffff021916908373ffffffffffffffffffffffffffffffffffffffff160217905550808273ffffffffffffffffffffffffffffffffffffffff1661185383610c16565b73ffffffffffffffffffffffffffffffffffffffff167f8c5be1e5ebec7d5bd14f71427d1e84f3dd0314c0f7b2291e5b200ac8c7c3b92560405160405180910390a45050565b6000806118a583610c16565b90508073ffffffffffffffffffffffffffffffffffffffff168473ffffffffffffffffffffffffffffffffffffffff1614806118e757506118e681856114d5565b5b8061192557508373ffffffffffffffffffffffffffffffffffffffff1661190d84610815565b73ffffffffffffffffffffffffffffffffffffffff16145b91505092915050565b8273ffffffffffffffffffffffffffffffffffffffff1661194e82610c16565b73ffffffffffffffffffffffffffffffffffffffff16146119a4576040517f08c379a000000000000000000000000000000000000000000000000000000000815260040161199b90613d4f565b60405180910390fd5b600073ffffffffffffffffffffffffffffffffffffffff168273ffffffffffffffffffffffffffffffffffffffff1603611a13576040517f08c379a0000000000000000000000000000000000000000000000000000000008152600401611a0a90613de1565b60405180910390fd5b611a1e838383612240565b611a296000826117e0565b6001600360008573ffffffffffffffffffffffffffffffffffffffff1673ffffffffffffffffffffffffffffffffffffffff1681526020019081526020016000206000828254611a799190613e01565b925050819055506001600360008473ffffffffffffffffffffffffffffffffffffffff1673ffffffffffffffffffffffffffffffffffffffff1681526020019081526020016000206000828254611ad09190613e35565b92505081905550816002600083815260200190815260200160002060006101000a81548173ffffffffffffffffffffffffffffffffffffffff021916908373ffffffffffffffffffffffffffffffffffffffff160217905550808273ffffffffffffffffffffffffffffffffffffffff168473ffffffffffffffffffffffffffffffffffffffff167fddf252ad1be2c89b69c2b068fc378daa952ba7f163c4a11628f55a4df523b3ef60405160405180910390a4611b8f838383612352565b505050565b6000611b9f82610c16565b9050611bad81600084612240565b611bb86000836117e0565b6001600360008373ffffffffffffffffffffffffffffffffffffffff1673ffffffffffffffffffffffffffffffffffffffff1681526020019081526020016000206000828254611c089190613e01565b925050819055506002600083815260200190815260200160002060006101000a81549073ffffffffffffffffffffffffffffffffffffffff021916905581600073ffffffffffffffffffffffffffffffffffffffff168273ffffffffffffffffffffffffffffffffffffffff167fddf252ad1be2c89b69c2b068fc378daa952ba7f163c4a11628f55a4df523b3ef60405160405180910390a4611cad81600084612352565b5050565b6000600c60008381526020019081526020016000208190555060005b600d80549050811015611da1576000600c6000600d8481548110611cf457611cf3613544565b5b906000526020600020015481526020019081526020016000205403611d8e57600d6001600d80549050611d279190613e01565b81548110611d3857611d37613544565b5b9060005260206000200154600d8281548110611d5757611d56613544565b5b9060005260206000200181905550600d805480611d7757611d76613e8b565b5b600190038181906000526020600020016000905590555b8080611d99906136a0565b915050611ccd565b5050565b8173ffffffffffffffffffffffffffffffffffffffff168373ffffffffffffffffffffffffffffffffffffffff1603611e13576040517f08c379a0000000000000000000000000000000000000000000000000000000008152600401611e0a90613f06565b60405180910390fd5b80600560008573ffffffffffffffffffffffffffffffffffffffff1673ffffffffffffffffffffffffffffffffffffffff16815260200190815260200160002060008473ffffffffffffffffffffffffffffffffffffffff1673ffffffffffffffffffffffffffffffffffffffff16815260200190815260200160002060006101000a81548160ff0219169083151502179055508173ffffffffffffffffffffffffffffffffffffffff168373ffffffffffffffffffffffffffffffffffffffff167f17307eab39ab6107e8899845ad3d59bd9653f200f220920489ca2b5937696c3183604051611f0491906128e1565b60405180910390a3505050565b611f1c84848461192e565b611f2884848484612357565b611f67576040517f08c379a0000000000000000000000000000000000000000000000000000000008152600401611f5e90613f98565b60405180910390fd5b50505050565b6001816000016000828254019250508190555050565b600081600001549050919050565b600073ffffffffffffffffffffffffffffffffffffffff168273ffffffffffffffffffffffffffffffffffffffff1603612000576040517f08c379a0000000000000000000000000000000000000000000000000000000008152600401611ff790614004565b60405180910390fd5b612009816121d4565b15612049576040517f08c379a000000000000000000000000000000000000000000000000000000000815260040161204090614070565b60405180910390fd5b61205560008383612240565b6001600360008473ffffffffffffffffffffffffffffffffffffffff1673ffffffffffffffffffffffffffffffffffffffff16815260200190815260200160002060008282546120a59190613e35565b92505081905550816002600083815260200190815260200160002060006101000a81548173ffffffffffffffffffffffffffffffffffffffff021916908373ffffffffffffffffffffffffffffffffffffffff160217905550808273ffffffffffffffffffffffffffffffffffffffff16600073ffffffffffffffffffffffffffffffffffffffff167fddf252ad1be2c89b69c2b068fc378daa952ba7f163c4a11628f55a4df523b3ef60405160405180910390a461216660008383612352565b5050565b60007f01ffc9a7000000000000000000000000000000000000000000000000000000007bffffffffffffffffffffffffffffffffffffffffffffffffffffffff1916827bffffffffffffffffffffffffffffffffffffffffffffffffffffffff1916149050919050565b60008073ffffffffffffffffffffffffffffffffffffffff166002600084815260200190815260200160002060009054906101000a900473ffffffffffffffffffffffffffffffffffffffff1673ffffffffffffffffffffffffffffffffffffffff1614159050919050565b61224b8383836124de565b600073ffffffffffffffffffffffffffffffffffffffff168373ffffffffffffffffffffffffffffffffffffffff160361228d57612288816124e3565b6122cc565b8173ffffffffffffffffffffffffffffffffffffffff168373ffffffffffffffffffffffffffffffffffffffff16146122cb576122ca838261252c565b5b5b600073ffffffffffffffffffffffffffffffffffffffff168273ffffffffffffffffffffffffffffffffffffffff160361230e5761230981612699565b61234d565b8273ffffffffffffffffffffffffffffffffffffffff168273ffffffffffffffffffffffffffffffffffffffff161461234c5761234b828261276a565b5b5b505050565b505050565b60006123788473ffffffffffffffffffffffffffffffffffffffff166127e9565b156124d1578373ffffffffffffffffffffffffffffffffffffffff1663150b7a026123a16117d8565b8786866040518563ffffffff1660e01b81526004016123c394939291906140e5565b6020604051808303816000875af19250505080156123ff57506040513d601f19601f820116820180604052508101906123fc9190614146565b60015b612481573d806000811461242f576040519150601f19603f3d011682016040523d82523d6000602084013e612434565b606091505b506000815103612479576040517f08c379a000000000000000000000000000000000000000000000000000000000815260040161247090613f98565b60405180910390fd5b805181602001fd5b63150b7a0260e01b7bffffffffffffffffffffffffffffffffffffffffffffffffffffffff1916817bffffffffffffffffffffffffffffffffffffffffffffffffffffffff1916149150506124d6565b600190505b949350505050565b505050565b6008805490506009600083815260200190815260200160002081905550600881908060018154018082558091505060019003906000526020600020016000909190919091505550565b6000600161253984610d67565b6125439190613e01565b9050600060076000848152602001908152602001600020549050818114612628576000600660008673ffffffffffffffffffffffffffffffffffffffff1673ffffffffffffffffffffffffffffffffffffffff168152602001908152602001600020600084815260200190815260200160002054905080600660008773ffffffffffffffffffffffffffffffffffffffff1673ffffffffffffffffffffffffffffffffffffffff168152602001908152602001600020600084815260200190815260200160002081905550816007600083815260200190815260200160002081905550505b6007600084815260200190815260200160002060009055600660008573ffffffffffffffffffffffffffffffffffffffff1673ffffffffffffffffffffffffffffffffffffffff16815260200190815260200160002060008381526020019081526020016000206000905550505050565b600060016008805490506126ad9190613e01565b90506000600960008481526020019081526020016000205490506000600883815481106126dd576126dc613544565b5b9060005260206000200154905080600883815481106126ff576126fe613544565b5b90600052602060002001819055508160096000838152602001908152602001600020819055506009600085815260200190815260200160002060009055600880548061274e5761274d613e8b565b5b6001900381819060005260206000200160009055905550505050565b600061277583610d67565b905081600660008573ffffffffffffffffffffffffffffffffffffffff1673ffffffffffffffffffffffffffffffffffffffff168152602001908152602001600020600083815260200190815260200160002081905550806007600084815260200190815260200160002081905550505050565b6000808273ffffffffffffffffffffffffffffffffffffffff163b119050919050565b60405180606001604052806000815260200160608152602001600081525090565b6000604051905090565b600080fd5b600080fd5b60007fffffffff0000000000000000000000000000000000000000000000000000000082169050919050565b61287681612841565b811461288157600080fd5b50565b6000813590506128938161286d565b92915050565b6000602082840312156128af576128ae612837565b5b60006128bd84828501612884565b91505092915050565b60008115159050919050565b6128db816128c6565b82525050565b60006020820190506128f660008301846128d2565b92915050565b600081519050919050565b600082825260208201905092915050565b60005b8381101561293657808201518184015260208101905061291b565b83811115612945576000848401525b50505050565b6000601f19601f8301169050919050565b6000612967826128fc565b6129718185612907565b9350612981818560208601612918565b61298a8161294b565b840191505092915050565b600060208201905081810360008301526129af818461295c565b905092915050565b6000819050919050565b6129ca816129b7565b81146129d557600080fd5b50565b6000813590506129e7816129c1565b92915050565b600060208284031215612a0357612a02612837565b5b6000612a11848285016129d8565b91505092915050565b600073ffffffffffffffffffffffffffffffffffffffff82169050919050565b6000612a4582612a1a565b9050919050565b612a5581612a3a565b82525050565b6000602082019050612a706000830184612a4c565b92915050565b612a7f81612a3a565b8114612a8a57600080fd5b50565b600081359050612a9c81612a76565b92915050565b60008060408385031215612ab957612ab8612837565b5b6000612ac785828601612a8d565b9250506020612ad8858286016129d8565b9150509250929050565b612aeb816129b7565b82525050565b6000602082019050612b066000830184612ae2565b92915050565b600081519050919050565b600082825260208201905092915050565b6000819050602082019050919050565b612b41816129b7565b82525050565b6000612b538383612b38565b60208301905092915050565b6000602082019050919050565b6000612b7782612b0c565b612b818185612b17565b9350612b8c83612b28565b8060005b83811015612bbd578151612ba48882612b47565b9750612baf83612b5f565b925050600181019050612b90565b5085935050505092915050565b60006020820190508181036000830152612be48184612b6c565b905092915050565b600080600060608486031215612c0557612c04612837565b5b6000612c1386828701612a8d565b9350506020612c2486828701612a8d565b9250506040612c35868287016129d8565b9150509250925092565b600060208284031215612c5557612c54612837565b5b6000612c6384828501612a8d565b91505092915050565b600081519050919050565b600082825260208201905092915050565b6000819050602082019050919050565b600082825260208201905092915050565b6000612cb4826128fc565b612cbe8185612c98565b9350612cce818560208601612918565b612cd78161294b565b840191505092915050565b6000606083016000830151612cfa6000860182612b38565b5060208301518482036020860152612d128282612ca9565b9150506040830151612d276040860182612b38565b508091505092915050565b6000612d3e8383612ce2565b905092915050565b6000602082019050919050565b6000612d5e82612c6c565b612d688185612c77565b935083602082028501612d7a85612c88565b8060005b85811015612db65784840389528151612d978582612d32565b9450612da283612d46565b925060208a01995050600181019050612d7e565b50829750879550505050505092915050565b60006020820190508181036000830152612de28184612d53565b905092915050565b612df3816128c6565b8114612dfe57600080fd5b50565b600081359050612e1081612dea565b92915050565b60008060408385031215612e2d57612e2c612837565b5b6000612e3b85828601612a8d565b9250506020612e4c85828601612e01565b9150509250929050565b600080fd5b600080fd5b7f4e487b7100000000000000000000000000000000000000000000000000000000600052604160045260246000fd5b612e988261294b565b810181811067ffffffffffffffff82111715612eb757612eb6612e60565b5b80604052505050565b6000612eca61282d565b9050612ed68282612e8f565b919050565b600067ffffffffffffffff821115612ef657612ef5612e60565b5b612eff8261294b565b9050602081019050919050565b82818337600083830152505050565b6000612f2e612f2984612edb565b612ec0565b905082815260208101848484011115612f4a57612f49612e5b565b5b612f55848285612f0c565b509392505050565b600082601f830112612f7257612f71612e56565b5b8135612f82848260208601612f1b565b91505092915050565b60008060008060808587031215612fa557612fa4612837565b5b6000612fb387828801612a8d565b9450506020612fc487828801612a8d565b9350506040612fd5878288016129d8565b925050606085013567ffffffffffffffff811115612ff657612ff561283c565b5b61300287828801612f5d565b91505092959194509250565b6000806040838503121561302557613024612837565b5b6000613033858286016129d8565b9250506020613044858286016129d8565b9150509250929050565b6000806040838503121561306557613064612837565b5b600061307385828601612a8d565b925050602061308485828601612a8d565b9150509250929050565b600067ffffffffffffffff8211156130a9576130a8612e60565b5b6130b28261294b565b9050602081019050919050565b60006130d26130cd8461308e565b612ec0565b9050828152602081018484840111156130ee576130ed612e5b565b5b6130f9848285612f0c565b509392505050565b600082601f83011261311657613115612e56565b5b81356131268482602086016130bf565b91505092915050565b60006020828403121561314557613144612837565b5b600082013567ffffffffffffffff8111156131635761316261283c565b5b61316f84828501613101565b91505092915050565b7f4e487b7100000000000000000000000000000000000000000000000000000000600052602260045260246000fd5b600060028204905060018216806131bf57607f821691505b6020821081036131d2576131d1613178565b5b50919050565b7f4552433732313a20617070726f76616c20746f2063757272656e74206f776e6560008201527f7200000000000000000000000000000000000000000000000000000000000000602082015250565b6000613234602183612907565b915061323f826131d8565b604082019050919050565b6000602082019050818103600083015261326381613227565b9050919050565b7f4552433732313a20617070726f76652063616c6c6572206973206e6f7420746f60008201527f6b656e206f776e6572206e6f7220617070726f76656420666f7220616c6c0000602082015250565b60006132c6603e83612907565b91506132d18261326a565b604082019050919050565b600060208201905081810360008301526132f5816132b9565b9050919050565b7f4552433732313a2063616c6c6572206973206e6f7420746f6b656e206f776e6560008201527f72206e6f7220617070726f766564000000000000000000000000000000000000602082015250565b6000613358602e83612907565b9150613363826132fc565b604082019050919050565b600060208201905081810360008301526133878161334b565b9050919050565b7f455243373231456e756d657261626c653a206f776e657220696e646578206f7560008201527f74206f6620626f756e6473000000000000000000000000000000000000000000602082015250565b60006133ea602b83612907565b91506133f58261338e565b604082019050919050565b60006020820190508181036000830152613419816133dd565b9050919050565b7f6d73672e73656e646572206973206e6f7420746865206f776e6572206f66207460008201527f686520746f6b656e000000000000000000000000000000000000000000000000602082015250565b600061347c602883612907565b915061348782613420565b604082019050919050565b600060208201905081810360008301526134ab8161346f565b9050919050565b7f455243373231456e756d657261626c653a20676c6f62616c20696e646578206f60008201527f7574206f6620626f756e64730000000000000000000000000000000000000000602082015250565b600061350e602c83612907565b9150613519826134b2565b604082019050919050565b6000602082019050818103600083015261353d81613501565b9050919050565b7f4e487b7100000000000000000000000000000000000000000000000000000000600052603260045260246000fd5b7f4552433732313a20696e76616c696420746f6b656e2049440000000000000000600082015250565b60006135a9601883612907565b91506135b482613573565b602082019050919050565b600060208201905081810360008301526135d88161359c565b9050919050565b7f4552433732313a2061646472657373207a65726f206973206e6f74206120766160008201527f6c6964206f776e65720000000000000000000000000000000000000000000000602082015250565b600061363b602983612907565b9150613646826135df565b604082019050919050565b6000602082019050818103600083015261366a8161362e565b9050919050565b7f4e487b7100000000000000000000000000000000000000000000000000000000600052601160045260246000fd5b60006136ab826129b7565b91507fffffffffffffffffffffffffffffffffffffffffffffffffffffffffffffffff82036136dd576136dc613671565b5b600182019050919050565b7f43616c6c6572206973206e6f74206e667420746f6b656e206f776e65722e0000600082015250565b600061371e601e83612907565b9150613729826136e8565b602082019050919050565b6000602082019050818103600083015261374d81613711565b9050919050565b7f5072696365206973207a65726f206f72206c6f7765722e000000000000000000600082015250565b600061378a601783612907565b915061379582613754565b602082019050919050565b600060208201905081810360008301526137b98161377d565b9050919050565b7f54686973206e667420746f6b656e20697320616c7265616479206f6e2073616c60008201527f652e000000000000000000000000000000000000000000000000000000000000602082015250565b600061381c602283612907565b9150613827826137c0565b604082019050919050565b6000602082019050818103600083015261384b8161380f565b9050919050565b7f6e667420746f6b656e206f776e657220646964206e6f7420617070726f76652060008201527f746f6b656e2e0000000000000000000000000000000000000000000000000000602082015250565b60006138ae602683612907565b91506138b982613852565b604082019050919050565b600060208201905081810360008301526138dd816138a1565b9050919050565b7f6e667420746f6b656e206e6f742073616c652e00000000000000000000000000600082015250565b600061391a601383612907565b9150613925826138e4565b602082019050919050565b600060208201905081810360008301526139498161390d565b9050919050565b7f63616c6c65722073656e74206c6f776572207468616e2070726963652e000000600082015250565b6000613986601d83612907565b915061399182613950565b602082019050919050565b600060208201905081810360008301526139b581613979565b9050919050565b7f63616c6c6572206973206e667420746f6b656e206f776e65722e000000000000600082015250565b60006139f2601a83612907565b91506139fd826139bc565b602082019050919050565b60006020820190508181036000830152613a21816139e5565b9050919050565b6000606082019050613a3d6000830186612a4c565b613a4a6020830185612a4c565b613a576040830184612ae2565b949350505050565b60008190508160005260206000209050919050565b60006020601f8301049050919050565b600082821b905092915050565b600060088302613ac17fffffffffffffffffffffffffffffffffffffffffffffffffffffffffffffffff82613a84565b613acb8683613a84565b95508019841693508086168417925050509392505050565b6000819050919050565b6000613b08613b03613afe846129b7565b613ae3565b6129b7565b9050919050565b6000819050919050565b613b2283613aed565b613b36613b2e82613b0f565b848454613a91565b825550505050565b600090565b613b4b613b3e565b613b56818484613b19565b505050565b5b81811015613b7a57613b6f600082613b43565b600181019050613b5c565b5050565b601f821115613bbf57613b9081613a5f565b613b9984613a74565b81016020851015613ba8578190505b613bbc613bb485613a74565b830182613b5b565b50505b505050565b600082821c905092915050565b6000613be260001984600802613bc4565b1980831691505092915050565b6000613bfb8383613bd1565b9150826002028217905092915050565b613c14826128fc565b67ffffffffffffffff811115613c2d57613c2c612e60565b5b613c3782546131a7565b613c42828285613b7e565b600060209050601f831160018114613c755760008415613c63578287015190505b613c6d8582613bef565b865550613cd5565b601f198416613c8386613a5f565b60005b82811015613cab57848901518255600182019150602085019450602081019050613c86565b86831015613cc85784890151613cc4601f891682613bd1565b8355505b6001600288020188555050505b505050505050565b7f4552433732313a207472616e736665722066726f6d20696e636f72726563742060008201527f6f776e6572000000000000000000000000000000000000000000000000000000602082015250565b6000613d39602583612907565b9150613d4482613cdd565b604082019050919050565b60006020820190508181036000830152613d6881613d2c565b9050919050565b7f4552433732313a207472616e7366657220746f20746865207a65726f2061646460008201527f7265737300000000000000000000000000000000000000000000000000000000602082015250565b6000613dcb602483612907565b9150613dd682613d6f565b604082019050919050565b60006020820190508181036000830152613dfa81613dbe565b9050919050565b6000613e0c826129b7565b9150613e17836129b7565b925082821015613e2a57613e29613671565b5b828203905092915050565b6000613e40826129b7565b9150613e4b836129b7565b9250827fffffffffffffffffffffffffffffffffffffffffffffffffffffffffffffffff03821115613e8057613e7f613671565b5b828201905092915050565b7f4e487b7100000000000000000000000000000000000000000000000000000000600052603160045260246000fd5b7f4552433732313a20617070726f766520746f2063616c6c657200000000000000600082015250565b6000613ef0601983612907565b9150613efb82613eba565b602082019050919050565b60006020820190508181036000830152613f1f81613ee3565b9050919050565b7f4552433732313a207472616e7366657220746f206e6f6e20455243373231526560008201527f63656976657220696d706c656d656e7465720000000000000000000000000000602082015250565b6000613f82603283612907565b9150613f8d82613f26565b604082019050919050565b60006020820190508181036000830152613fb181613f75565b9050919050565b7f4552433732313a206d696e7420746f20746865207a65726f2061646472657373600082015250565b6000613fee602083612907565b9150613ff982613fb8565b602082019050919050565b6000602082019050818103600083015261401d81613fe1565b9050919050565b7f4552433732313a20746f6b656e20616c7265616479206d696e74656400000000600082015250565b600061405a601c83612907565b915061406582614024565b602082019050919050565b600060208201905081810360008301526140898161404d565b9050919050565b600081519050919050565b600082825260208201905092915050565b60006140b782614090565b6140c1818561409b565b93506140d1818560208601612918565b6140da8161294b565b840191505092915050565b60006080820190506140fa6000830187612a4c565b6141076020830186612a4c565b6141146040830185612ae2565b818103606083015261412681846140ac565b905095945050505050565b6000815190506141408161286d565b92915050565b60006020828403121561415c5761415b612837565b5b600061416a84828501614131565b9150509291505056fea264697066735822122064a1abb0d252a5d09d53b9fe4075cefe5b3a1eb9ede26664a71153c1274e1a5464736f6c634300080f0033",
  "immutableReferences": {},
  "source": "// SPDX-License-Identifier: MIT\npragma solidity ^0.8.0;\n\nimport \"@openzeppelin/contracts/token/ERC721/extensions/ERC721Enumerable.sol\";\n// openzeppelin/contracts     ERC721\nimport \"@openzeppelin/contracts/utils/Counters.sol\";\n// openzeppelin count \n// library .\n\ncontract MintNFT is  ERC721Enumerable {\n    using Counters for Counters.Counter;\n    \n    Counters.Counter private _tokenIds;\n\n    // constructor(string memory _name, string memory _symbol) ERC721(_name, _symbol) {}\n    constructor() ERC721(\"SDD\", \"SDD_symbol\") {}\n    // symbol =   ethereum\n    // name = \n\n    mapping(uint =>string ) public tokenURIs ;\n\n    function tokenURI(uint _tokenId) override public view returns (string memory) {\n        return  tokenURIs[_tokenId] ;\n    }\n\n    function mintNFT( string memory _tokenURI) public  returns (uint256) {\n        _tokenIds.increment();\n        // tokenIds  1.\n\n        uint256 tokenId = _tokenIds.current();\n        // 1 tokenIds  .\n        tokenURIs[tokenId] = _tokenURI;\n\n        _mint(msg.sender, tokenId);\n        // msg.sender  \n        return tokenId;\n    }\n\n    struct NftTokenData {\n        uint256 nftTokenId;\n        string  nftTokenURI ;\n        uint price ;        \n    }\n    //    \n\n\n// My NFT\n    function getNftTokens(address _nftTokenOwner) view public returns (NftTokenData[] memory) {\n        uint256 balanceLength = balanceOf(_nftTokenOwner);\n        //balanceOf    \n        //require(balanceLength != 0, \"Owner did not have token.\");\n\n        NftTokenData[] memory nftTokenData = new NftTokenData[](balanceLength);\n\n        for(uint256 i = 0; i < balanceLength; i++) {\n            uint256 nftTokenId = tokenOfOwnerByIndex(_nftTokenOwner, i);\n            string memory nftTokenURI = tokenURI(nftTokenId);   \n            uint tokenPrice = getNftTokenPrice(nftTokenId);\n            nftTokenData[i] = NftTokenData(nftTokenId , nftTokenURI, tokenPrice );\n        }\n\n        return nftTokenData;\n\n    }\n\n    // \n    mapping(uint256 => uint256) public nftTokenPrices;\n    uint256[] public onSaleNftTokenArray;\n\n    function setSaleNftToken(uint256 _tokenId, uint256 _price) public {\n        address nftTokenOwner = ownerOf(_tokenId);\n\n        require(nftTokenOwner == msg.sender, \"Caller is not nft token owner.\");\n        require(_price > 0, \"Price is zero or lower.\");\n        require(nftTokenPrices[_tokenId] == 0, \"This nft token is already on sale.\");\n        require(isApprovedForAll(nftTokenOwner, address(this)), \"nft token owner did not approve token.\");\n\n        nftTokenPrices[_tokenId] = _price;\n        onSaleNftTokenArray.push(_tokenId); // nft list\n\n    }\n\n    // \n    function getSaleNftTokens() public view returns (NftTokenData[] memory ){\n        uint[] memory onSaleNftToken = getSaleNftToken();\n        NftTokenData[] memory onSaleNftTokens = new NftTokenData[](onSaleNftToken.length);\n\n        for(uint i = 0; i < onSaleNftToken.length; i ++){\n            uint tokenId = onSaleNftToken[i];\n            uint tokenPrice = getNftTokenPrice(tokenId);\n            onSaleNftTokens[i] = NftTokenData(tokenId, tokenURI(tokenId), tokenPrice) ;\n        }\n\n        return onSaleNftTokens;\n    }\n\n\n    function getSaleNftToken() view public returns (uint[] memory ){\n        return onSaleNftTokenArray ;\n    }\n\n\n    function getNftTokenPrice(uint256 _tokenId) view public returns(uint256){\n        return nftTokenPrices[_tokenId];\n    }\n\n\n    //\n    function buyNftToken(uint256 _tokenId) public payable {\n        uint256 price = nftTokenPrices[_tokenId];\n        address nftTokenOwner = ownerOf(_tokenId);\n\n        require(price > 0, \"nft token not sale.\");\n        require(price  <= msg.value, \"caller sent lower than price.\");\n        require(nftTokenOwner != msg.sender,\"caller is nft token owner.\");\n        require(isApprovedForAll(nftTokenOwner, address(this)), \"nft token owner did not approve token.\");\n\n\n        payable(nftTokenOwner).transfer(msg.value);\n\n        IERC721(address(this)).safeTransferFrom(nftTokenOwner, msg.sender, _tokenId);\n\n\n        //  \n        removeToken(_tokenId);        \n\n    }\n\n    function burn( uint256 _tokenId) public{\n        address addr_owner = ownerOf(_tokenId);\n        require( addr_owner == msg.sender, \"msg.sender is not the owner of the token\");\n        _burn(_tokenId);\n        removeToken(_tokenId);\n    }\n\n    function removeToken(uint256 _tokenId) private {\n                \n        nftTokenPrices[_tokenId] = 0;\n\n        for(uint256 i = 0; i<onSaleNftTokenArray.length; i ++){\n            if(nftTokenPrices[onSaleNftTokenArray[i]] ==0){\n                onSaleNftTokenArray[i] = onSaleNftTokenArray[onSaleNftTokenArray.length -1] ;\n                onSaleNftTokenArray.pop();\n            }\n        }\n    } \n}\n\n",
  "sourcePath": "/Users/ieunchong/Desktop/SDD_SmartContract/contracts/MintNFT.sol",
  "compiler": {
    "name": "solc",
    "version": "0.8.15+commit.e14f2714.Emscripten.clang"
  },
  "schemaVersion": "3.4.8",
  "updatedAt": "2022-07-30T23:45:51.378Z",
  "networkType": "ethereum",
  "devdoc": {
    "kind": "dev",
    "methods": {
      "approve(address,uint256)": {
        "details": "See {IERC721-approve}."
      },
      "balanceOf(address)": {
        "details": "See {IERC721-balanceOf}."
      },
      "getApproved(uint256)": {
        "details": "See {IERC721-getApproved}."
      },
      "isApprovedForAll(address,address)": {
        "details": "See {IERC721-isApprovedForAll}."
      },
      "name()": {
        "details": "See {IERC721Metadata-name}."
      },
      "ownerOf(uint256)": {
        "details": "See {IERC721-ownerOf}."
      },
      "safeTransferFrom(address,address,uint256)": {
        "details": "See {IERC721-safeTransferFrom}."
      },
      "safeTransferFrom(address,address,uint256,bytes)": {
        "details": "See {IERC721-safeTransferFrom}."
      },
      "setApprovalForAll(address,bool)": {
        "details": "See {IERC721-setApprovalForAll}."
      },
      "supportsInterface(bytes4)": {
        "details": "See {IERC165-supportsInterface}."
      },
      "symbol()": {
        "details": "See {IERC721Metadata-symbol}."
      },
      "tokenByIndex(uint256)": {
        "details": "See {IERC721Enumerable-tokenByIndex}."
      },
      "tokenOfOwnerByIndex(address,uint256)": {
        "details": "See {IERC721Enumerable-tokenOfOwnerByIndex}."
      },
      "totalSupply()": {
        "details": "See {IERC721Enumerable-totalSupply}."
      },
      "transferFrom(address,address,uint256)": {
        "details": "See {IERC721-transferFrom}."
      }
    },
    "version": 1
  },
  "userdoc": {
    "kind": "user",
    "methods": {},
    "version": 1
  }
}