{
  "contractName": "MintNFT",
  "abi": [
    {
      "inputs": [],
      "stateMutability": "nonpayable",
      "type": "constructor"
    },
    {
      "anonymous": false,
      "inputs": [
        {
          "indexed": true,
          "internalType": "address",
          "name": "owner",
          "type": "address"
        },
        {
          "indexed": true,
          "internalType": "address",
          "name": "approved",
          "type": "address"
        },
        {
          "indexed": true,
          "internalType": "uint256",
          "name": "tokenId",
          "type": "uint256"
        }
      ],
      "name": "Approval",
      "type": "event"
    },
    {
      "anonymous": false,
      "inputs": [
        {
          "indexed": true,
          "internalType": "address",
          "name": "owner",
          "type": "address"
        },
        {
          "indexed": true,
          "internalType": "address",
          "name": "operator",
          "type": "address"
        },
        {
          "indexed": false,
          "internalType": "bool",
          "name": "approved",
          "type": "bool"
        }
      ],
      "name": "ApprovalForAll",
      "type": "event"
    },
    {
      "anonymous": false,
      "inputs": [
        {
          "indexed": true,
          "internalType": "address",
          "name": "from",
          "type": "address"
        },
        {
          "indexed": true,
          "internalType": "address",
          "name": "to",
          "type": "address"
        },
        {
          "indexed": true,
          "internalType": "uint256",
          "name": "tokenId",
          "type": "uint256"
        }
      ],
      "name": "Transfer",
      "type": "event"
    },
    {
      "inputs": [
        {
          "internalType": "address",
          "name": "to",
          "type": "address"
        },
        {
          "internalType": "uint256",
          "name": "tokenId",
          "type": "uint256"
        }
      ],
      "name": "approve",
      "outputs": [],
      "stateMutability": "nonpayable",
      "type": "function"
    },
    {
      "inputs": [
        {
          "internalType": "address",
          "name": "owner",
          "type": "address"
        }
      ],
      "name": "balanceOf",
      "outputs": [
        {
          "internalType": "uint256",
          "name": "",
          "type": "uint256"
        }
      ],
      "stateMutability": "view",
      "type": "function",
      "constant": true
    },
    {
      "inputs": [
        {
          "internalType": "uint256",
          "name": "tokenId",
          "type": "uint256"
        }
      ],
      "name": "getApproved",
      "outputs": [
        {
          "internalType": "address",
          "name": "",
          "type": "address"
        }
      ],
      "stateMutability": "view",
      "type": "function",
      "constant": true
    },
    {
      "inputs": [
        {
          "internalType": "address",
          "name": "owner",
          "type": "address"
        },
        {
          "internalType": "address",
          "name": "operator",
          "type": "address"
        }
      ],
      "name": "isApprovedForAll",
      "outputs": [
        {
          "internalType": "bool",
          "name": "",
          "type": "bool"
        }
      ],
      "stateMutability": "view",
      "type": "function",
      "constant": true
    },
    {
      "inputs": [],
      "name": "name",
      "outputs": [
        {
          "internalType": "string",
          "name": "",
          "type": "string"
        }
      ],
      "stateMutability": "view",
      "type": "function",
      "constant": true
    },
    {
      "inputs": [
        {
          "internalType": "uint256",
          "name": "",
          "type": "uint256"
        }
      ],
      "name": "nftTokenPrices",
      "outputs": [
        {
          "internalType": "uint256",
          "name": "",
          "type": "uint256"
        }
      ],
      "stateMutability": "view",
      "type": "function",
      "constant": true
    },
    {
      "inputs": [
        {
          "internalType": "uint256",
          "name": "",
          "type": "uint256"
        }
      ],
      "name": "onSaleNftTokenArray",
      "outputs": [
        {
          "internalType": "uint256",
          "name": "",
          "type": "uint256"
        }
      ],
      "stateMutability": "view",
      "type": "function",
      "constant": true
    },
    {
      "inputs": [
        {
          "internalType": "uint256",
          "name": "tokenId",
          "type": "uint256"
        }
      ],
      "name": "ownerOf",
      "outputs": [
        {
          "internalType": "address",
          "name": "",
          "type": "address"
        }
      ],
      "stateMutability": "view",
      "type": "function",
      "constant": true
    },
    {
      "inputs": [
        {
          "internalType": "address",
          "name": "from",
          "type": "address"
        },
        {
          "internalType": "address",
          "name": "to",
          "type": "address"
        },
        {
          "internalType": "uint256",
          "name": "tokenId",
          "type": "uint256"
        }
      ],
      "name": "safeTransferFrom",
      "outputs": [],
      "stateMutability": "nonpayable",
      "type": "function"
    },
    {
      "inputs": [
        {
          "internalType": "address",
          "name": "from",
          "type": "address"
        },
        {
          "internalType": "address",
          "name": "to",
          "type": "address"
        },
        {
          "internalType": "uint256",
          "name": "tokenId",
          "type": "uint256"
        },
        {
          "internalType": "bytes",
          "name": "data",
          "type": "bytes"
        }
      ],
      "name": "safeTransferFrom",
      "outputs": [],
      "stateMutability": "nonpayable",
      "type": "function"
    },
    {
      "inputs": [
        {
          "internalType": "bytes4",
          "name": "interfaceId",
          "type": "bytes4"
        }
      ],
      "name": "supportsInterface",
      "outputs": [
        {
          "internalType": "bool",
          "name": "",
          "type": "bool"
        }
      ],
      "stateMutability": "view",
      "type": "function",
      "constant": true
    },
    {
      "inputs": [],
      "name": "symbol",
      "outputs": [
        {
          "internalType": "string",
          "name": "",
          "type": "string"
        }
      ],
      "stateMutability": "view",
      "type": "function",
      "constant": true
    },
    {
      "inputs": [
        {
          "internalType": "uint256",
          "name": "index",
          "type": "uint256"
        }
      ],
      "name": "tokenByIndex",
      "outputs": [
        {
          "internalType": "uint256",
          "name": "",
          "type": "uint256"
        }
      ],
      "stateMutability": "view",
      "type": "function",
      "constant": true
    },
    {
      "inputs": [
        {
          "internalType": "address",
          "name": "owner",
          "type": "address"
        },
        {
          "internalType": "uint256",
          "name": "index",
          "type": "uint256"
        }
      ],
      "name": "tokenOfOwnerByIndex",
      "outputs": [
        {
          "internalType": "uint256",
          "name": "",
          "type": "uint256"
        }
      ],
      "stateMutability": "view",
      "type": "function",
      "constant": true
    },
    {
      "inputs": [
        {
          "internalType": "uint256",
          "name": "",
          "type": "uint256"
        }
      ],
      "name": "tokenURIs",
      "outputs": [
        {
          "internalType": "string",
          "name": "",
          "type": "string"
        }
      ],
      "stateMutability": "view",
      "type": "function",
      "constant": true
    },
    {
      "inputs": [],
      "name": "totalSupply",
      "outputs": [
        {
          "internalType": "uint256",
          "name": "",
          "type": "uint256"
        }
      ],
      "stateMutability": "view",
      "type": "function",
      "constant": true
    },
    {
      "inputs": [
        {
          "internalType": "address",
          "name": "from",
          "type": "address"
        },
        {
          "internalType": "address",
          "name": "to",
          "type": "address"
        },
        {
          "internalType": "uint256",
          "name": "tokenId",
          "type": "uint256"
        }
      ],
      "name": "transferFrom",
      "outputs": [],
      "stateMutability": "nonpayable",
      "type": "function"
    },
    {
      "inputs": [
        {
          "internalType": "uint256",
          "name": "_tokenId",
          "type": "uint256"
        }
      ],
      "name": "tokenURI",
      "outputs": [
        {
          "internalType": "string",
          "name": "",
          "type": "string"
        }
      ],
      "stateMutability": "view",
      "type": "function",
      "constant": true
    },
    {
      "inputs": [
        {
          "internalType": "string",
          "name": "_tokenURI",
          "type": "string"
        }
      ],
      "name": "mintNFT",
      "outputs": [
        {
          "internalType": "uint256",
          "name": "",
          "type": "uint256"
        }
      ],
      "stateMutability": "nonpayable",
      "type": "function"
    },
    {
      "inputs": [
        {
          "internalType": "address",
          "name": "operator",
          "type": "address"
        },
        {
          "internalType": "bool",
          "name": "approved",
          "type": "bool"
        }
      ],
      "name": "setApprovalForAll",
      "outputs": [],
      "stateMutability": "nonpayable",
      "type": "function"
    },
    {
      "inputs": [
        {
          "internalType": "bool",
          "name": "approved",
          "type": "bool"
        }
      ],
      "name": "setApprovalForAll",
      "outputs": [],
      "stateMutability": "nonpayable",
      "type": "function"
    },
    {
      "inputs": [
        {
          "internalType": "address",
          "name": "_nftTokenOwner",
          "type": "address"
        }
      ],
      "name": "getNftTokens",
      "outputs": [
        {
          "components": [
            {
              "internalType": "uint256",
              "name": "nftTokenId",
              "type": "uint256"
            },
            {
              "internalType": "string",
              "name": "nftTokenURI",
              "type": "string"
            },
            {
              "internalType": "uint256",
              "name": "price",
              "type": "uint256"
            }
          ],
          "internalType": "struct MintNFT.NftTokenData[]",
          "name": "",
          "type": "tuple[]"
        }
      ],
      "stateMutability": "view",
      "type": "function",
      "constant": true
    },
    {
      "inputs": [
        {
          "internalType": "uint256",
          "name": "_tokenId",
          "type": "uint256"
        },
        {
          "internalType": "uint256",
          "name": "_price",
          "type": "uint256"
        }
      ],
      "name": "setSaleNftToken",
      "outputs": [],
      "stateMutability": "nonpayable",
      "type": "function"
    },
    {
      "inputs": [],
      "name": "getSaleNftTokens",
      "outputs": [
        {
          "components": [
            {
              "internalType": "uint256",
              "name": "nftTokenId",
              "type": "uint256"
            },
            {
              "internalType": "string",
              "name": "nftTokenURI",
              "type": "string"
            },
            {
              "internalType": "uint256",
              "name": "price",
              "type": "uint256"
            }
          ],
          "internalType": "struct MintNFT.NftTokenData[]",
          "name": "",
          "type": "tuple[]"
        }
      ],
      "stateMutability": "view",
      "type": "function",
      "constant": true
    },
    {
      "inputs": [],
      "name": "getSaleNftToken",
      "outputs": [
        {
          "internalType": "uint256[]",
          "name": "",
          "type": "uint256[]"
        }
      ],
      "stateMutability": "view",
      "type": "function",
      "constant": true
    },
    {
      "inputs": [
        {
          "internalType": "uint256",
          "name": "_tokenId",
          "type": "uint256"
        }
      ],
      "name": "getNftTokenPrice",
      "outputs": [
        {
          "internalType": "uint256",
          "name": "",
          "type": "uint256"
        }
      ],
      "stateMutability": "view",
      "type": "function",
      "constant": true
    },
    {
      "inputs": [
        {
          "internalType": "uint256",
          "name": "_tokenId",
          "type": "uint256"
        }
      ],
      "name": "buyNftToken",
      "outputs": [],
      "stateMutability": "payable",
      "type": "function",
      "payable": true
    },
    {
      "inputs": [
        {
          "internalType": "uint256",
          "name": "_tokenId",
          "type": "uint256"
        }
      ],
      "name": "burn",
      "outputs": [],
      "stateMutability": "nonpayable",
      "type": "function"
    }
  ],
  "bytecode": "0x60806040523480156200001157600080fd5b506040518060400160405280600381526020017f53444400000000000000000000000000000000000000000000000000000000008152506040518060400160405280600a81526020017f5344445f73796d626f6c0000000000000000000000000000000000000000000081525081600090816200008f919062000324565b508060019081620000a1919062000324565b5050506200040b565b600081519050919050565b7f4e487b7100000000000000000000000000000000000000000000000000000000600052604160045260246000fd5b7f4e487b7100000000000000000000000000000000000000000000000000000000600052602260045260246000fd5b600060028204905060018216806200012c57607f821691505b602082108103620001425762000141620000e4565b5b50919050565b60008190508160005260206000209050919050565b60006020601f8301049050919050565b600082821b905092915050565b600060088302620001ac7fffffffffffffffffffffffffffffffffffffffffffffffffffffffffffffffff826200016d565b620001b886836200016d565b95508019841693508086168417925050509392505050565b6000819050919050565b6000819050919050565b600062000205620001ff620001f984620001d0565b620001da565b620001d0565b9050919050565b6000819050919050565b6200022183620001e4565b6200023962000230826200020c565b8484546200017a565b825550505050565b600090565b6200025062000241565b6200025d81848462000216565b505050565b5b8181101562000285576200027960008262000246565b60018101905062000263565b5050565b601f821115620002d4576200029e8162000148565b620002a9846200015d565b81016020851015620002b9578190505b620002d1620002c8856200015d565b83018262000262565b50505b505050565b600082821c905092915050565b6000620002f960001984600802620002d9565b1980831691505092915050565b6000620003148383620002e6565b9150826002028217905092915050565b6200032f82620000aa565b67ffffffffffffffff8111156200034b576200034a620000b5565b5b62000357825462000113565b6200036482828562000289565b600060209050601f8311600181146200039c576000841562000387578287015190505b62000393858262000306565b86555062000403565b601f198416620003ac8662000148565b60005b82811015620003d657848901518255600182019150602085019450602081019050620003af565b86831015620003f65784890151620003f2601f891682620002e6565b8355505b6001600288020188555050505b505050505050565b614016806200041b6000396000f3fe6080604052600436106101b75760003560e01c806370a08231116100ec578063b8e297f41161008a578063e8b3f7e211610064578063e8b3f7e21461066d578063e985e9c514610696578063f257f548146106d3578063fb37e88314610710576101b7565b8063b8e297f4146105eb578063c87b56dd14610614578063da8cc6e814610651576101b7565b8063912c45cf116100c6578063912c45cf1461053157806395d89b411461056e578063a22cb46514610599578063b88d4fde146105c2576101b7565b806370a082311461048c57806373e778c5146104c957806374a6b54f14610506576101b7565b80632f745c59116101595780634ae23e64116101335780634ae23e64146103985780634f6ccce7146103d55780636352211e146104125780636c8b703f1461044f576101b7565b80632f745c591461030957806342842e0e1461034657806342966c681461036f576101b7565b8063095ea7b311610195578063095ea7b31461026157806318160ddd1461028a5780631efceb90146102b557806323b872dd146102e0576101b7565b806301ffc9a7146101bc57806306fdde03146101f9578063081812fc14610224575b600080fd5b3480156101c857600080fd5b506101e360048036038101906101de919061281d565b61074d565b6040516101f09190612865565b60405180910390f35b34801561020557600080fd5b5061020e6107c7565b60405161021b9190612919565b60405180910390f35b34801561023057600080fd5b5061024b60048036038101906102469190612971565b610859565b60405161025891906129df565b60405180910390f35b34801561026d57600080fd5b5061028860048036038101906102839190612a26565b61089f565b005b34801561029657600080fd5b5061029f6109b6565b6040516102ac9190612a75565b60405180910390f35b3480156102c157600080fd5b506102ca6109c3565b6040516102d79190612b4e565b60405180910390f35b3480156102ec57600080fd5b5061030760048036038101906103029190612b70565b610a1b565b005b34801561031557600080fd5b50610330600480360381019061032b9190612a26565b610a7b565b60405161033d9190612a75565b60405180910390f35b34801561035257600080fd5b5061036d60048036038101906103689190612b70565b610b20565b005b34801561037b57600080fd5b5061039660048036038101906103919190612971565b610b40565b005b3480156103a457600080fd5b506103bf60048036038101906103ba9190612971565b610bd1565b6040516103cc9190612a75565b60405180910390f35b3480156103e157600080fd5b506103fc60048036038101906103f79190612971565b610be9565b6040516104099190612a75565b60405180910390f35b34801561041e57600080fd5b5061043960048036038101906104349190612971565b610c5a565b60405161044691906129df565b60405180910390f35b34801561045b57600080fd5b5061047660048036038101906104719190612971565b610d0b565b6040516104839190612919565b60405180910390f35b34801561049857600080fd5b506104b360048036038101906104ae9190612bc3565b610dab565b6040516104c09190612a75565b60405180910390f35b3480156104d557600080fd5b506104f060048036038101906104eb9190612971565b610e62565b6040516104fd9190612a75565b60405180910390f35b34801561051257600080fd5b5061051b610e86565b6040516105289190612d4c565b60405180910390f35b34801561053d57600080fd5b5061055860048036038101906105539190612971565b610f84565b6040516105659190612a75565b60405180910390f35b34801561057a57600080fd5b50610583610fa1565b6040516105909190612919565b60405180910390f35b3480156105a557600080fd5b506105c060048036038101906105bb9190612d9a565b611033565b005b3480156105ce57600080fd5b506105e960048036038101906105e49190612f0f565b611049565b005b3480156105f757600080fd5b50610612600480360381019061060d9190612f92565b6110ab565b005b34801561062057600080fd5b5061063b60048036038101906106369190612971565b611215565b6040516106489190612919565b60405180910390f35b61066b60048036038101906106669190612971565b6112ba565b005b34801561067957600080fd5b50610694600480360381019061068f9190612fd2565b61144b565b005b3480156106a257600080fd5b506106bd60048036038101906106b89190612fff565b611459565b6040516106ca9190612865565b60405180910390f35b3480156106df57600080fd5b506106fa60048036038101906106f59190612bc3565b6114ed565b6040516107079190612d4c565b60405180910390f35b34801561071c57600080fd5b50610737600480360381019061073291906130e0565b6115e1565b6040516107449190612a75565b60405180910390f35b60007f780e9d63000000000000000000000000000000000000000000000000000000007bffffffffffffffffffffffffffffffffffffffffffffffffffffffff1916827bffffffffffffffffffffffffffffffffffffffffffffffffffffffff191614806107c057506107bf8261162f565b5b9050919050565b6060600080546107d690613158565b80601f016020809104026020016040519081016040528092919081815260200182805461080290613158565b801561084f5780601f106108245761010080835404028352916020019161084f565b820191906000526020600020905b81548152906001019060200180831161083257829003601f168201915b5050505050905090565b600061086482611711565b6004600083815260200190815260200160002060009054906101000a900473ffffffffffffffffffffffffffffffffffffffff169050919050565b60006108aa82610c5a565b90508073ffffffffffffffffffffffffffffffffffffffff168373ffffffffffffffffffffffffffffffffffffffff160361091a576040517f08c379a0000000000000000000000000000000000000000000000000000000008152600401610911906131fb565b60405180910390fd5b8073ffffffffffffffffffffffffffffffffffffffff1661093961175c565b73ffffffffffffffffffffffffffffffffffffffff16148061096857506109678161096261175c565b611459565b5b6109a7576040517f08c379a000000000000000000000000000000000000000000000000000000000815260040161099e9061328d565b60405180910390fd5b6109b18383611764565b505050565b6000600880549050905090565b6060600d805480602002602001604051908101604052809291908181526020018280548015610a1157602002820191906000526020600020905b8154815260200190600101908083116109fd575b5050505050905090565b610a2c610a2661175c565b8261181d565b610a6b576040517f08c379a0000000000000000000000000000000000000000000000000000000008152600401610a629061331f565b60405180910390fd5b610a768383836118b2565b505050565b6000610a8683610dab565b8210610ac7576040517f08c379a0000000000000000000000000000000000000000000000000000000008152600401610abe906133b1565b60405180910390fd5b600660008473ffffffffffffffffffffffffffffffffffffffff1673ffffffffffffffffffffffffffffffffffffffff168152602001908152602001600020600083815260200190815260200160002054905092915050565b610b3b83838360405180602001604052806000815250611049565b505050565b6000610b4b82610c5a565b90503373ffffffffffffffffffffffffffffffffffffffff168173ffffffffffffffffffffffffffffffffffffffff1614610bbb576040517f08c379a0000000000000000000000000000000000000000000000000000000008152600401610bb290613443565b60405180910390fd5b610bc482611b18565b610bcd82611c35565b5050565b600c6020528060005260406000206000915090505481565b6000610bf36109b6565b8210610c34576040517f08c379a0000000000000000000000000000000000000000000000000000000008152600401610c2b906134d5565b60405180910390fd5b60088281548110610c4857610c476134f5565b5b90600052602060002001549050919050565b6000806002600084815260200190815260200160002060009054906101000a900473ffffffffffffffffffffffffffffffffffffffff169050600073ffffffffffffffffffffffffffffffffffffffff168173ffffffffffffffffffffffffffffffffffffffff1603610d02576040517f08c379a0000000000000000000000000000000000000000000000000000000008152600401610cf990613570565b60405180910390fd5b80915050919050565b600b6020528060005260406000206000915090508054610d2a90613158565b80601f0160208091040260200160405190810160405280929190818152602001828054610d5690613158565b8015610da35780601f10610d7857610100808354040283529160200191610da3565b820191906000526020600020905b815481529060010190602001808311610d8657829003601f168201915b505050505081565b60008073ffffffffffffffffffffffffffffffffffffffff168273ffffffffffffffffffffffffffffffffffffffff1603610e1b576040517f08c379a0000000000000000000000000000000000000000000000000000000008152600401610e1290613602565b60405180910390fd5b600360008373ffffffffffffffffffffffffffffffffffffffff1673ffffffffffffffffffffffffffffffffffffffff168152602001908152602001600020549050919050565b600d8181548110610e7257600080fd5b906000526020600020016000915090505481565b60606000610e926109c3565b90506000815167ffffffffffffffff811115610eb157610eb0612de4565b5b604051908082528060200260200182016040528015610eea57816020015b610ed7612790565b815260200190600190039081610ecf5790505b50905060005b8251811015610f7b576000838281518110610f0e57610f0d6134f5565b5b602002602001015190506000610f2382610f84565b90506040518060600160405280838152602001610f3f84611215565b815260200182815250848481518110610f5b57610f5a6134f5565b5b602002602001018190525050508080610f7390613651565b915050610ef0565b50809250505090565b6000600c6000838152602001908152602001600020549050919050565b606060018054610fb090613158565b80601f0160208091040260200160405190810160405280929190818152602001828054610fdc90613158565b80156110295780601f10610ffe57610100808354040283529160200191611029565b820191906000526020600020905b81548152906001019060200180831161100c57829003601f168201915b5050505050905090565b61104561103e61175c565b8383611d29565b5050565b61105a61105461175c565b8361181d565b611099576040517f08c379a00000000000000000000000000000000000000000000000000000000081526004016110909061331f565b60405180910390fd5b6110a584848484611e95565b50505050565b60006110b683610c5a565b90506110c2600161144b565b3373ffffffffffffffffffffffffffffffffffffffff168173ffffffffffffffffffffffffffffffffffffffff1614611130576040517f08c379a0000000000000000000000000000000000000000000000000000000008152600401611127906136e5565b60405180910390fd5b6000600c60008581526020019081526020016000205414611186576040517f08c379a000000000000000000000000000000000000000000000000000000000815260040161117d90613777565b60405180910390fd5b6111908130611459565b6111cf576040517f08c379a00000000000000000000000000000000000000000000000000000000081526004016111c690613809565b60405180910390fd5b81600c600085815260200190815260200160002081905550600d839080600181540180825580915050600190039060005260206000200160009091909190915055505050565b6060600b6000838152602001908152602001600020805461123590613158565b80601f016020809104026020016040519081016040528092919081815260200182805461126190613158565b80156112ae5780601f10611283576101008083540402835291602001916112ae565b820191906000526020600020905b81548152906001019060200180831161129157829003601f168201915b50505050509050919050565b60006112c582610c5a565b90506112d1600161144b565b3373ffffffffffffffffffffffffffffffffffffffff168173ffffffffffffffffffffffffffffffffffffffff160361133f576040517f08c379a000000000000000000000000000000000000000000000000000000000815260040161133690613875565b60405180910390fd5b6113498130611459565b611388576040517f08c379a000000000000000000000000000000000000000000000000000000000815260040161137f90613809565b60405180910390fd5b8073ffffffffffffffffffffffffffffffffffffffff166108fc349081150290604051600060405180830381858888f193505050501580156113ce573d6000803e3d6000fd5b503073ffffffffffffffffffffffffffffffffffffffff166342842e0e8233856040518463ffffffff1660e01b815260040161140c93929190613895565b600060405180830381600087803b15801561142657600080fd5b505af115801561143a573d6000803e3d6000fd5b5050505061144782611c35565b5050565b611456333083611d29565b50565b6000600560008473ffffffffffffffffffffffffffffffffffffffff1673ffffffffffffffffffffffffffffffffffffffff16815260200190815260200160002060008373ffffffffffffffffffffffffffffffffffffffff1673ffffffffffffffffffffffffffffffffffffffff16815260200190815260200160002060009054906101000a900460ff16905092915050565b606060006114fa83610dab565b905060008167ffffffffffffffff81111561151857611517612de4565b5b60405190808252806020026020018201604052801561155157816020015b61153e612790565b8152602001906001900390816115365790505b50905060005b828110156115d657600061156b8683610a7b565b9050600061157882611215565b9050600061158583610f84565b90506040518060600160405280848152602001838152602001828152508585815181106115b5576115b46134f5565b5b602002602001018190525050505080806115ce90613651565b915050611557565b508092505050919050565b60006115ed600a611ef1565b60006115f9600a611f07565b905082600b6000838152602001908152602001600020908161161b9190613a78565b506116263382611f15565b80915050919050565b60007f80ac58cd000000000000000000000000000000000000000000000000000000007bffffffffffffffffffffffffffffffffffffffffffffffffffffffff1916827bffffffffffffffffffffffffffffffffffffffffffffffffffffffff191614806116fa57507f5b5e139f000000000000000000000000000000000000000000000000000000007bffffffffffffffffffffffffffffffffffffffffffffffffffffffff1916827bffffffffffffffffffffffffffffffffffffffffffffffffffffffff1916145b8061170a5750611709826120ee565b5b9050919050565b61171a81612158565b611759576040517f08c379a000000000000000000000000000000000000000000000000000000000815260040161175090613570565b60405180910390fd5b50565b600033905090565b816004600083815260200190815260200160002060006101000a81548173ffffffffffffffffffffffffffffffffffffffff021916908373ffffffffffffffffffffffffffffffffffffffff160217905550808273ffffffffffffffffffffffffffffffffffffffff166117d783610c5a565b73ffffffffffffffffffffffffffffffffffffffff167f8c5be1e5ebec7d5bd14f71427d1e84f3dd0314c0f7b2291e5b200ac8c7c3b92560405160405180910390a45050565b60008061182983610c5a565b90508073ffffffffffffffffffffffffffffffffffffffff168473ffffffffffffffffffffffffffffffffffffffff16148061186b575061186a8185611459565b5b806118a957508373ffffffffffffffffffffffffffffffffffffffff1661189184610859565b73ffffffffffffffffffffffffffffffffffffffff16145b91505092915050565b8273ffffffffffffffffffffffffffffffffffffffff166118d282610c5a565b73ffffffffffffffffffffffffffffffffffffffff1614611928576040517f08c379a000000000000000000000000000000000000000000000000000000000815260040161191f90613bbc565b60405180910390fd5b600073ffffffffffffffffffffffffffffffffffffffff168273ffffffffffffffffffffffffffffffffffffffff1603611997576040517f08c379a000000000000000000000000000000000000000000000000000000000815260040161198e90613c4e565b60405180910390fd5b6119a28383836121c4565b6119ad600082611764565b6001600360008573ffffffffffffffffffffffffffffffffffffffff1673ffffffffffffffffffffffffffffffffffffffff16815260200190815260200160002060008282546119fd9190613c6e565b925050819055506001600360008473ffffffffffffffffffffffffffffffffffffffff1673ffffffffffffffffffffffffffffffffffffffff1681526020019081526020016000206000828254611a549190613ca2565b92505081905550816002600083815260200190815260200160002060006101000a81548173ffffffffffffffffffffffffffffffffffffffff021916908373ffffffffffffffffffffffffffffffffffffffff160217905550808273ffffffffffffffffffffffffffffffffffffffff168473ffffffffffffffffffffffffffffffffffffffff167fddf252ad1be2c89b69c2b068fc378daa952ba7f163c4a11628f55a4df523b3ef60405160405180910390a4611b138383836122d6565b505050565b6000611b2382610c5a565b9050611b31816000846121c4565b611b3c600083611764565b6001600360008373ffffffffffffffffffffffffffffffffffffffff1673ffffffffffffffffffffffffffffffffffffffff1681526020019081526020016000206000828254611b8c9190613c6e565b925050819055506002600083815260200190815260200160002060006101000a81549073ffffffffffffffffffffffffffffffffffffffff021916905581600073ffffffffffffffffffffffffffffffffffffffff168273ffffffffffffffffffffffffffffffffffffffff167fddf252ad1be2c89b69c2b068fc378daa952ba7f163c4a11628f55a4df523b3ef60405160405180910390a4611c31816000846122d6565b5050565b6000600c60008381526020019081526020016000208190555060005b600d80549050811015611d25576000600c6000600d8481548110611c7857611c776134f5565b5b906000526020600020015481526020019081526020016000205403611d1257600d6001600d80549050611cab9190613c6e565b81548110611cbc57611cbb6134f5565b5b9060005260206000200154600d8281548110611cdb57611cda6134f5565b5b9060005260206000200181905550600d805480611cfb57611cfa613cf8565b5b600190038181906000526020600020016000905590555b8080611d1d90613651565b915050611c51565b5050565b8173ffffffffffffffffffffffffffffffffffffffff168373ffffffffffffffffffffffffffffffffffffffff1603611d97576040517f08c379a0000000000000000000000000000000000000000000000000000000008152600401611d8e90613d73565b60405180910390fd5b80600560008573ffffffffffffffffffffffffffffffffffffffff1673ffffffffffffffffffffffffffffffffffffffff16815260200190815260200160002060008473ffffffffffffffffffffffffffffffffffffffff1673ffffffffffffffffffffffffffffffffffffffff16815260200190815260200160002060006101000a81548160ff0219169083151502179055508173ffffffffffffffffffffffffffffffffffffffff168373ffffffffffffffffffffffffffffffffffffffff167f17307eab39ab6107e8899845ad3d59bd9653f200f220920489ca2b5937696c3183604051611e889190612865565b60405180910390a3505050565b611ea08484846118b2565b611eac848484846122db565b611eeb576040517f08c379a0000000000000000000000000000000000000000000000000000000008152600401611ee290613e05565b60405180910390fd5b50505050565b6001816000016000828254019250508190555050565b600081600001549050919050565b600073ffffffffffffffffffffffffffffffffffffffff168273ffffffffffffffffffffffffffffffffffffffff1603611f84576040517f08c379a0000000000000000000000000000000000000000000000000000000008152600401611f7b90613e71565b60405180910390fd5b611f8d81612158565b15611fcd576040517f08c379a0000000000000000000000000000000000000000000000000000000008152600401611fc490613edd565b60405180910390fd5b611fd9600083836121c4565b6001600360008473ffffffffffffffffffffffffffffffffffffffff1673ffffffffffffffffffffffffffffffffffffffff16815260200190815260200160002060008282546120299190613ca2565b92505081905550816002600083815260200190815260200160002060006101000a81548173ffffffffffffffffffffffffffffffffffffffff021916908373ffffffffffffffffffffffffffffffffffffffff160217905550808273ffffffffffffffffffffffffffffffffffffffff16600073ffffffffffffffffffffffffffffffffffffffff167fddf252ad1be2c89b69c2b068fc378daa952ba7f163c4a11628f55a4df523b3ef60405160405180910390a46120ea600083836122d6565b5050565b60007f01ffc9a7000000000000000000000000000000000000000000000000000000007bffffffffffffffffffffffffffffffffffffffffffffffffffffffff1916827bffffffffffffffffffffffffffffffffffffffffffffffffffffffff1916149050919050565b60008073ffffffffffffffffffffffffffffffffffffffff166002600084815260200190815260200160002060009054906101000a900473ffffffffffffffffffffffffffffffffffffffff1673ffffffffffffffffffffffffffffffffffffffff1614159050919050565b6121cf838383612462565b600073ffffffffffffffffffffffffffffffffffffffff168373ffffffffffffffffffffffffffffffffffffffff16036122115761220c81612467565b612250565b8173ffffffffffffffffffffffffffffffffffffffff168373ffffffffffffffffffffffffffffffffffffffff161461224f5761224e83826124b0565b5b5b600073ffffffffffffffffffffffffffffffffffffffff168273ffffffffffffffffffffffffffffffffffffffff16036122925761228d8161261d565b6122d1565b8273ffffffffffffffffffffffffffffffffffffffff168273ffffffffffffffffffffffffffffffffffffffff16146122d0576122cf82826126ee565b5b5b505050565b505050565b60006122fc8473ffffffffffffffffffffffffffffffffffffffff1661276d565b15612455578373ffffffffffffffffffffffffffffffffffffffff1663150b7a0261232561175c565b8786866040518563ffffffff1660e01b81526004016123479493929190613f52565b6020604051808303816000875af192505050801561238357506040513d601f19601f820116820180604052508101906123809190613fb3565b60015b612405573d80600081146123b3576040519150601f19603f3d011682016040523d82523d6000602084013e6123b8565b606091505b5060008151036123fd576040517f08c379a00000000000000000000000000000000000000000000000000000000081526004016123f490613e05565b60405180910390fd5b805181602001fd5b63150b7a0260e01b7bffffffffffffffffffffffffffffffffffffffffffffffffffffffff1916817bffffffffffffffffffffffffffffffffffffffffffffffffffffffff19161491505061245a565b600190505b949350505050565b505050565b6008805490506009600083815260200190815260200160002081905550600881908060018154018082558091505060019003906000526020600020016000909190919091505550565b600060016124bd84610dab565b6124c79190613c6e565b90506000600760008481526020019081526020016000205490508181146125ac576000600660008673ffffffffffffffffffffffffffffffffffffffff1673ffffffffffffffffffffffffffffffffffffffff168152602001908152602001600020600084815260200190815260200160002054905080600660008773ffffffffffffffffffffffffffffffffffffffff1673ffffffffffffffffffffffffffffffffffffffff168152602001908152602001600020600084815260200190815260200160002081905550816007600083815260200190815260200160002081905550505b6007600084815260200190815260200160002060009055600660008573ffffffffffffffffffffffffffffffffffffffff1673ffffffffffffffffffffffffffffffffffffffff16815260200190815260200160002060008381526020019081526020016000206000905550505050565b600060016008805490506126319190613c6e565b9050600060096000848152602001908152602001600020549050600060088381548110612661576126606134f5565b5b906000526020600020015490508060088381548110612683576126826134f5565b5b9060005260206000200181905550816009600083815260200190815260200160002081905550600960008581526020019081526020016000206000905560088054806126d2576126d1613cf8565b5b6001900381819060005260206000200160009055905550505050565b60006126f983610dab565b905081600660008573ffffffffffffffffffffffffffffffffffffffff1673ffffffffffffffffffffffffffffffffffffffff168152602001908152602001600020600083815260200190815260200160002081905550806007600084815260200190815260200160002081905550505050565b6000808273ffffffffffffffffffffffffffffffffffffffff163b119050919050565b60405180606001604052806000815260200160608152602001600081525090565b6000604051905090565b600080fd5b600080fd5b60007fffffffff0000000000000000000000000000000000000000000000000000000082169050919050565b6127fa816127c5565b811461280557600080fd5b50565b600081359050612817816127f1565b92915050565b600060208284031215612833576128326127bb565b5b600061284184828501612808565b91505092915050565b60008115159050919050565b61285f8161284a565b82525050565b600060208201905061287a6000830184612856565b92915050565b600081519050919050565b600082825260208201905092915050565b60005b838110156128ba57808201518184015260208101905061289f565b838111156128c9576000848401525b50505050565b6000601f19601f8301169050919050565b60006128eb82612880565b6128f5818561288b565b935061290581856020860161289c565b61290e816128cf565b840191505092915050565b6000602082019050818103600083015261293381846128e0565b905092915050565b6000819050919050565b61294e8161293b565b811461295957600080fd5b50565b60008135905061296b81612945565b92915050565b600060208284031215612987576129866127bb565b5b60006129958482850161295c565b91505092915050565b600073ffffffffffffffffffffffffffffffffffffffff82169050919050565b60006129c98261299e565b9050919050565b6129d9816129be565b82525050565b60006020820190506129f460008301846129d0565b92915050565b612a03816129be565b8114612a0e57600080fd5b50565b600081359050612a20816129fa565b92915050565b60008060408385031215612a3d57612a3c6127bb565b5b6000612a4b85828601612a11565b9250506020612a5c8582860161295c565b9150509250929050565b612a6f8161293b565b82525050565b6000602082019050612a8a6000830184612a66565b92915050565b600081519050919050565b600082825260208201905092915050565b6000819050602082019050919050565b612ac58161293b565b82525050565b6000612ad78383612abc565b60208301905092915050565b6000602082019050919050565b6000612afb82612a90565b612b058185612a9b565b9350612b1083612aac565b8060005b83811015612b41578151612b288882612acb565b9750612b3383612ae3565b925050600181019050612b14565b5085935050505092915050565b60006020820190508181036000830152612b688184612af0565b905092915050565b600080600060608486031215612b8957612b886127bb565b5b6000612b9786828701612a11565b9350506020612ba886828701612a11565b9250506040612bb98682870161295c565b9150509250925092565b600060208284031215612bd957612bd86127bb565b5b6000612be784828501612a11565b91505092915050565b600081519050919050565b600082825260208201905092915050565b6000819050602082019050919050565b600082825260208201905092915050565b6000612c3882612880565b612c428185612c1c565b9350612c5281856020860161289c565b612c5b816128cf565b840191505092915050565b6000606083016000830151612c7e6000860182612abc565b5060208301518482036020860152612c968282612c2d565b9150506040830151612cab6040860182612abc565b508091505092915050565b6000612cc28383612c66565b905092915050565b6000602082019050919050565b6000612ce282612bf0565b612cec8185612bfb565b935083602082028501612cfe85612c0c565b8060005b85811015612d3a5784840389528151612d1b8582612cb6565b9450612d2683612cca565b925060208a01995050600181019050612d02565b50829750879550505050505092915050565b60006020820190508181036000830152612d668184612cd7565b905092915050565b612d778161284a565b8114612d8257600080fd5b50565b600081359050612d9481612d6e565b92915050565b60008060408385031215612db157612db06127bb565b5b6000612dbf85828601612a11565b9250506020612dd085828601612d85565b9150509250929050565b600080fd5b600080fd5b7f4e487b7100000000000000000000000000000000000000000000000000000000600052604160045260246000fd5b612e1c826128cf565b810181811067ffffffffffffffff82111715612e3b57612e3a612de4565b5b80604052505050565b6000612e4e6127b1565b9050612e5a8282612e13565b919050565b600067ffffffffffffffff821115612e7a57612e79612de4565b5b612e83826128cf565b9050602081019050919050565b82818337600083830152505050565b6000612eb2612ead84612e5f565b612e44565b905082815260208101848484011115612ece57612ecd612ddf565b5b612ed9848285612e90565b509392505050565b600082601f830112612ef657612ef5612dda565b5b8135612f06848260208601612e9f565b91505092915050565b60008060008060808587031215612f2957612f286127bb565b5b6000612f3787828801612a11565b9450506020612f4887828801612a11565b9350506040612f598782880161295c565b925050606085013567ffffffffffffffff811115612f7a57612f796127c0565b5b612f8687828801612ee1565b91505092959194509250565b60008060408385031215612fa957612fa86127bb565b5b6000612fb78582860161295c565b9250506020612fc88582860161295c565b9150509250929050565b600060208284031215612fe857612fe76127bb565b5b6000612ff684828501612d85565b91505092915050565b60008060408385031215613016576130156127bb565b5b600061302485828601612a11565b925050602061303585828601612a11565b9150509250929050565b600067ffffffffffffffff82111561305a57613059612de4565b5b613063826128cf565b9050602081019050919050565b600061308361307e8461303f565b612e44565b90508281526020810184848401111561309f5761309e612ddf565b5b6130aa848285612e90565b509392505050565b600082601f8301126130c7576130c6612dda565b5b81356130d7848260208601613070565b91505092915050565b6000602082840312156130f6576130f56127bb565b5b600082013567ffffffffffffffff811115613114576131136127c0565b5b613120848285016130b2565b91505092915050565b7f4e487b7100000000000000000000000000000000000000000000000000000000600052602260045260246000fd5b6000600282049050600182168061317057607f821691505b60208210810361318357613182613129565b5b50919050565b7f4552433732313a20617070726f76616c20746f2063757272656e74206f776e6560008201527f7200000000000000000000000000000000000000000000000000000000000000602082015250565b60006131e560218361288b565b91506131f082613189565b604082019050919050565b60006020820190508181036000830152613214816131d8565b9050919050565b7f4552433732313a20617070726f76652063616c6c6572206973206e6f7420746f60008201527f6b656e206f776e6572206e6f7220617070726f76656420666f7220616c6c0000602082015250565b6000613277603e8361288b565b91506132828261321b565b604082019050919050565b600060208201905081810360008301526132a68161326a565b9050919050565b7f4552433732313a2063616c6c6572206973206e6f7420746f6b656e206f776e6560008201527f72206e6f7220617070726f766564000000000000000000000000000000000000602082015250565b6000613309602e8361288b565b9150613314826132ad565b604082019050919050565b60006020820190508181036000830152613338816132fc565b9050919050565b7f455243373231456e756d657261626c653a206f776e657220696e646578206f7560008201527f74206f6620626f756e6473000000000000000000000000000000000000000000602082015250565b600061339b602b8361288b565b91506133a68261333f565b604082019050919050565b600060208201905081810360008301526133ca8161338e565b9050919050565b7f6d73672e73656e646572206973206e6f7420746865206f776e6572206f66207460008201527f686520746f6b656e000000000000000000000000000000000000000000000000602082015250565b600061342d60288361288b565b9150613438826133d1565b604082019050919050565b6000602082019050818103600083015261345c81613420565b9050919050565b7f455243373231456e756d657261626c653a20676c6f62616c20696e646578206f60008201527f7574206f6620626f756e64730000000000000000000000000000000000000000602082015250565b60006134bf602c8361288b565b91506134ca82613463565b604082019050919050565b600060208201905081810360008301526134ee816134b2565b9050919050565b7f4e487b7100000000000000000000000000000000000000000000000000000000600052603260045260246000fd5b7f4552433732313a20696e76616c696420746f6b656e2049440000000000000000600082015250565b600061355a60188361288b565b915061356582613524565b602082019050919050565b600060208201905081810360008301526135898161354d565b9050919050565b7f4552433732313a2061646472657373207a65726f206973206e6f74206120766160008201527f6c6964206f776e65720000000000000000000000000000000000000000000000602082015250565b60006135ec60298361288b565b91506135f782613590565b604082019050919050565b6000602082019050818103600083015261361b816135df565b9050919050565b7f4e487b7100000000000000000000000000000000000000000000000000000000600052601160045260246000fd5b600061365c8261293b565b91507fffffffffffffffffffffffffffffffffffffffffffffffffffffffffffffffff820361368e5761368d613622565b5b600182019050919050565b7f43616c6c6572206973206e6f74206e667420746f6b656e206f776e65722e0000600082015250565b60006136cf601e8361288b565b91506136da82613699565b602082019050919050565b600060208201905081810360008301526136fe816136c2565b9050919050565b7f54686973206e667420746f6b656e20697320616c7265616479206f6e2073616c60008201527f652e000000000000000000000000000000000000000000000000000000000000602082015250565b600061376160228361288b565b915061376c82613705565b604082019050919050565b6000602082019050818103600083015261379081613754565b9050919050565b7f6e667420746f6b656e206f776e657220646964206e6f7420617070726f76652060008201527f746f6b656e2e0000000000000000000000000000000000000000000000000000602082015250565b60006137f360268361288b565b91506137fe82613797565b604082019050919050565b60006020820190508181036000830152613822816137e6565b9050919050565b7f63616c6c6572206973206e667420746f6b656e206f776e65722e000000000000600082015250565b600061385f601a8361288b565b915061386a82613829565b602082019050919050565b6000602082019050818103600083015261388e81613852565b9050919050565b60006060820190506138aa60008301866129d0565b6138b760208301856129d0565b6138c46040830184612a66565b949350505050565b60008190508160005260206000209050919050565b60006020601f8301049050919050565b600082821b905092915050565b60006008830261392e7fffffffffffffffffffffffffffffffffffffffffffffffffffffffffffffffff826138f1565b61393886836138f1565b95508019841693508086168417925050509392505050565b6000819050919050565b600061397561397061396b8461293b565b613950565b61293b565b9050919050565b6000819050919050565b61398f8361395a565b6139a361399b8261397c565b8484546138fe565b825550505050565b600090565b6139b86139ab565b6139c3818484613986565b505050565b5b818110156139e7576139dc6000826139b0565b6001810190506139c9565b5050565b601f821115613a2c576139fd816138cc565b613a06846138e1565b81016020851015613a15578190505b613a29613a21856138e1565b8301826139c8565b50505b505050565b600082821c905092915050565b6000613a4f60001984600802613a31565b1980831691505092915050565b6000613a688383613a3e565b9150826002028217905092915050565b613a8182612880565b67ffffffffffffffff811115613a9a57613a99612de4565b5b613aa48254613158565b613aaf8282856139eb565b600060209050601f831160018114613ae25760008415613ad0578287015190505b613ada8582613a5c565b865550613b42565b601f198416613af0866138cc565b60005b82811015613b1857848901518255600182019150602085019450602081019050613af3565b86831015613b355784890151613b31601f891682613a3e565b8355505b6001600288020188555050505b505050505050565b7f4552433732313a207472616e736665722066726f6d20696e636f72726563742060008201527f6f776e6572000000000000000000000000000000000000000000000000000000602082015250565b6000613ba660258361288b565b9150613bb182613b4a565b604082019050919050565b60006020820190508181036000830152613bd581613b99565b9050919050565b7f4552433732313a207472616e7366657220746f20746865207a65726f2061646460008201527f7265737300000000000000000000000000000000000000000000000000000000602082015250565b6000613c3860248361288b565b9150613c4382613bdc565b604082019050919050565b60006020820190508181036000830152613c6781613c2b565b9050919050565b6000613c798261293b565b9150613c848361293b565b925082821015613c9757613c96613622565b5b828203905092915050565b6000613cad8261293b565b9150613cb88361293b565b9250827fffffffffffffffffffffffffffffffffffffffffffffffffffffffffffffffff03821115613ced57613cec613622565b5b828201905092915050565b7f4e487b7100000000000000000000000000000000000000000000000000000000600052603160045260246000fd5b7f4552433732313a20617070726f766520746f2063616c6c657200000000000000600082015250565b6000613d5d60198361288b565b9150613d6882613d27565b602082019050919050565b60006020820190508181036000830152613d8c81613d50565b9050919050565b7f4552433732313a207472616e7366657220746f206e6f6e20455243373231526560008201527f63656976657220696d706c656d656e7465720000000000000000000000000000602082015250565b6000613def60328361288b565b9150613dfa82613d93565b604082019050919050565b60006020820190508181036000830152613e1e81613de2565b9050919050565b7f4552433732313a206d696e7420746f20746865207a65726f2061646472657373600082015250565b6000613e5b60208361288b565b9150613e6682613e25565b602082019050919050565b60006020820190508181036000830152613e8a81613e4e565b9050919050565b7f4552433732313a20746f6b656e20616c7265616479206d696e74656400000000600082015250565b6000613ec7601c8361288b565b9150613ed282613e91565b602082019050919050565b60006020820190508181036000830152613ef681613eba565b9050919050565b600081519050919050565b600082825260208201905092915050565b6000613f2482613efd565b613f2e8185613f08565b9350613f3e81856020860161289c565b613f47816128cf565b840191505092915050565b6000608082019050613f6760008301876129d0565b613f7460208301866129d0565b613f816040830185612a66565b8181036060830152613f938184613f19565b905095945050505050565b600081519050613fad816127f1565b92915050565b600060208284031215613fc957613fc86127bb565b5b6000613fd784828501613f9e565b9150509291505056fea2646970667358221220ba776b4a2dac4063629373e066149b62eab3fa75cb247877ed0155831320e9d064736f6c634300080f0033",
  "immutableReferences": {},
  "source": "// SPDX-License-Identifier: MIT\npragma solidity ^0.8.0;\n\nimport \"@openzeppelin/contracts/token/ERC721/extensions/ERC721Enumerable.sol\";\n// openzeppelin/contracts     ERC721\nimport \"@openzeppelin/contracts/utils/Counters.sol\";\n// openzeppelin count \n// library .\n\ncontract MintNFT is  ERC721Enumerable {\n    using Counters for Counters.Counter;\n    \n    Counters.Counter private _tokenIds;\n\n    // constructor(string memory _name, string memory _symbol) ERC721(_name, _symbol) {}\n    constructor() ERC721(\"SDD\", \"SDD_symbol\") {}\n    // symbol =   ethereum\n    // name = \n\n    mapping(uint =>string ) public tokenURIs ;\n\n    function tokenURI(uint _tokenId) override public view returns (string memory) {\n        return  tokenURIs[_tokenId] ;\n    }\n\n    function mintNFT( string memory _tokenURI) public  returns (uint256) {\n        _tokenIds.increment();\n        // tokenIds  1.\n\n        uint256 tokenId = _tokenIds.current();\n        // 1 tokenIds  .\n        tokenURIs[tokenId] = _tokenURI;\n\n        _mint(msg.sender, tokenId);\n        // msg.sender  \n        return tokenId;\n    }\n\n\n    struct NftTokenData {\n        uint256 nftTokenId;\n        string  nftTokenURI ;\n        uint price ;        \n    }\n    //    \n\n    function setApprovalForAll(bool approved) public virtual {\n        _setApprovalForAll(msg.sender, address(this), approved);\n    }\n    //   \n\n\n// My NFT\n    function getNftTokens(address _nftTokenOwner) view public returns (NftTokenData[] memory) {\n        uint256 balanceLength = balanceOf(_nftTokenOwner);\n        //balanceOf    \n        //require(balanceLength != 0, \"Owner did not have token.\");\n\n        NftTokenData[] memory nftTokenData = new NftTokenData[](balanceLength);\n\n        for(uint256 i = 0; i < balanceLength; i++) {\n            uint256 nftTokenId = tokenOfOwnerByIndex(_nftTokenOwner, i);\n            string memory nftTokenURI = tokenURI(nftTokenId);   \n            uint tokenPrice = getNftTokenPrice(nftTokenId);\n            nftTokenData[i] = NftTokenData(nftTokenId , nftTokenURI, tokenPrice );\n        }\n\n        return nftTokenData;\n\n    }\n\n    // \n    mapping(uint256 => uint256) public nftTokenPrices;\n    uint256[] public onSaleNftTokenArray;\n\n    function setSaleNftToken(uint256 _tokenId, uint256 _price) public {\n        address nftTokenOwner = ownerOf(_tokenId);\n        setApprovalForAll(true);\n\n        require(nftTokenOwner == msg.sender, \"Caller is not nft token owner.\");\n        require(nftTokenPrices[_tokenId] == 0, \"This nft token is already on sale.\");\n        require(isApprovedForAll(nftTokenOwner, address(this)), \"nft token owner did not approve token.\");\n\n        nftTokenPrices[_tokenId] = _price;\n        onSaleNftTokenArray.push(_tokenId); // nft list\n\n    }\n\n    // \n    function getSaleNftTokens() public view returns (NftTokenData[] memory ){\n        uint[] memory onSaleNftToken = getSaleNftToken();\n        NftTokenData[] memory onSaleNftTokens = new NftTokenData[](onSaleNftToken.length);\n\n        for(uint i = 0; i < onSaleNftToken.length; i ++){\n            uint tokenId = onSaleNftToken[i];\n            uint tokenPrice = getNftTokenPrice(tokenId);\n            onSaleNftTokens[i] = NftTokenData(tokenId, tokenURI(tokenId), tokenPrice) ;\n        }\n\n        return onSaleNftTokens;\n    }\n\n\n    function getSaleNftToken() view public returns (uint[] memory ){\n        return onSaleNftTokenArray ;\n    }\n\n\n    function getNftTokenPrice(uint256 _tokenId) view public returns(uint256){\n        return nftTokenPrices[_tokenId];\n    }\n\n\n    //\n    function buyNftToken(uint256 _tokenId) public payable {\n        address nftTokenOwner = ownerOf(_tokenId);\n        setApprovalForAll(true);\n\n        require(nftTokenOwner != msg.sender,\"caller is nft token owner.\");\n        require(isApprovedForAll(nftTokenOwner, address(this)), \"nft token owner did not approve token.\");\n\n\n        payable(nftTokenOwner).transfer(msg.value);\n\n        IERC721(address(this)).safeTransferFrom(nftTokenOwner, msg.sender, _tokenId);\n\n\n        //  \n        removeToken(_tokenId);        \n\n    }\n\n    function burn( uint256 _tokenId) public{\n        address addr_owner = ownerOf(_tokenId);\n        require( addr_owner == msg.sender, \"msg.sender is not the owner of the token\");\n        _burn(_tokenId);\n        removeToken(_tokenId);\n    }\n\n    function removeToken(uint256 _tokenId) private {\n                \n        nftTokenPrices[_tokenId] = 0;\n\n        for(uint256 i = 0; i<onSaleNftTokenArray.length; i ++){\n            if(nftTokenPrices[onSaleNftTokenArray[i]] ==0){\n                onSaleNftTokenArray[i] = onSaleNftTokenArray[onSaleNftTokenArray.length -1] ;\n                onSaleNftTokenArray.pop();\n            }\n        }\n    } \n}\n\n",
  "sourcePath": "/Users/ieunchong/Desktop/SDD_SmartContract/contracts/MintNFT.sol",
  "compiler": {
    "name": "solc",
    "version": "0.8.15+commit.e14f2714.Emscripten.clang"
  },
  "schemaVersion": "3.4.8",
  "updatedAt": "2022-08-01T11:03:06.438Z",
  "networkType": "ethereum",
  "devdoc": {
    "kind": "dev",
    "methods": {
      "approve(address,uint256)": {
        "details": "See {IERC721-approve}."
      },
      "balanceOf(address)": {
        "details": "See {IERC721-balanceOf}."
      },
      "getApproved(uint256)": {
        "details": "See {IERC721-getApproved}."
      },
      "isApprovedForAll(address,address)": {
        "details": "See {IERC721-isApprovedForAll}."
      },
      "name()": {
        "details": "See {IERC721Metadata-name}."
      },
      "ownerOf(uint256)": {
        "details": "See {IERC721-ownerOf}."
      },
      "safeTransferFrom(address,address,uint256)": {
        "details": "See {IERC721-safeTransferFrom}."
      },
      "safeTransferFrom(address,address,uint256,bytes)": {
        "details": "See {IERC721-safeTransferFrom}."
      },
      "setApprovalForAll(address,bool)": {
        "details": "See {IERC721-setApprovalForAll}."
      },
      "supportsInterface(bytes4)": {
        "details": "See {IERC165-supportsInterface}."
      },
      "symbol()": {
        "details": "See {IERC721Metadata-symbol}."
      },
      "tokenByIndex(uint256)": {
        "details": "See {IERC721Enumerable-tokenByIndex}."
      },
      "tokenOfOwnerByIndex(address,uint256)": {
        "details": "See {IERC721Enumerable-tokenOfOwnerByIndex}."
      },
      "totalSupply()": {
        "details": "See {IERC721Enumerable-totalSupply}."
      },
      "transferFrom(address,address,uint256)": {
        "details": "See {IERC721-transferFrom}."
      }
    },
    "version": 1
  },
  "userdoc": {
    "kind": "user",
    "methods": {},
    "version": 1
  }
}